{"contracts/StableRotatorAgent.sol":{"StableRotatorAgent":{"abi":[{"inputs":[],"stateMutability":"nonpayable","type":"constructor"},{"inputs":[],"name":"ERC721EnumerableForbiddenBatchMint","type":"error"},{"inputs":[{"internalType":"address","name":"sender","type":"address"},{"internalType":"uint256","name":"tokenId","type":"uint256"},{"internalType":"address","name":"owner","type":"address"}],"name":"ERC721IncorrectOwner","type":"error"},{"inputs":[{"internalType":"address","name":"operator","type":"address"},{"internalType":"uint256","name":"tokenId","type":"uint256"}],"name":"ERC721InsufficientApproval","type":"error"},{"inputs":[{"internalType":"address","name":"approver","type":"address"}],"name":"ERC721InvalidApprover","type":"error"},{"inputs":[{"internalType":"address","name":"operator","type":"address"}],"name":"ERC721InvalidOperator","type":"error"},{"inputs":[{"internalType":"address","name":"owner","type":"address"}],"name":"ERC721InvalidOwner","type":"error"},{"inputs":[{"internalType":"address","name":"receiver","type":"address"}],"name":"ERC721InvalidReceiver","type":"error"},{"inputs":[{"internalType":"address","name":"sender","type":"address"}],"name":"ERC721InvalidSender","type":"error"},{"inputs":[{"internalType":"uint256","name":"tokenId","type":"uint256"}],"name":"ERC721NonexistentToken","type":"error"},{"inputs":[{"internalType":"address","name":"owner","type":"address"},{"internalType":"uint256","name":"index","type":"uint256"}],"name":"ERC721OutOfBoundsIndex","type":"error"},{"inputs":[{"internalType":"address","name":"owner","type":"address"}],"name":"OwnableInvalidOwner","type":"error"},{"inputs":[{"internalType":"address","name":"account","type":"address"}],"name":"OwnableUnauthorizedAccount","type":"error"},{"anonymous":false,"inputs":[{"indexed":true,"internalType":"uint256","name":"tokenId","type":"uint256"},{"indexed":true,"internalType":"address","name":"owner","type":"address"},{"indexed":false,"internalType":"string","name":"name","type":"string"},{"indexed":false,"internalType":"string","name":"configHash","type":"string"},{"indexed":false,"internalType":"uint256","name":"clonedFrom","type":"uint256"}],"name":"AgentMinted","type":"event"},{"anonymous":false,"inputs":[{"indexed":true,"internalType":"uint256","name":"childTokenId","type":"uint256"},{"indexed":true,"internalType":"uint256","name":"parentA","type":"uint256"},{"indexed":true,"internalType":"uint256","name":"parentB","type":"uint256"},{"indexed":false,"internalType":"address","name":"minter","type":"address"}],"name":"AgentsMerged","type":"event"},{"anonymous":false,"inputs":[{"indexed":true,"internalType":"address","name":"owner","type":"address"},{"indexed":true,"internalType":"address","name":"approved","type":"address"},{"indexed":true,"internalType":"uint256","name":"tokenId","type":"uint256"}],"name":"Approval","type":"event"},{"anonymous":false,"inputs":[{"indexed":true,"internalType":"address","name":"owner","type":"address"},{"indexed":true,"internalType":"address","name":"operator","type":"address"},{"indexed":false,"internalType":"bool","name":"approved","type":"bool"}],"name":"ApprovalForAll","type":"event"},{"anonymous":false,"inputs":[{"indexed":true,"internalType":"uint256","name":"tokenId","type":"uint256"},{"indexed":false,"internalType":"address","name":"caller","type":"address"},{"indexed":false,"internalType":"bool","name":"authorized","type":"bool"}],"name":"CallerAuthorized","type":"event"},{"anonymous":false,"inputs":[{"indexed":true,"internalType":"uint256","name":"clonedTokenId","type":"uint256"},{"indexed":true,"internalType":"uint256","name":"sourceTokenId","type":"uint256"},{"indexed":false,"internalType":"address","name":"payer","type":"address"},{"indexed":false,"internalType":"uint256","name":"amount","type":"uint256"}],"name":"CloneFeePaid","type":"event"},{"anonymous":false,"inputs":[{"indexed":true,"internalType":"uint256","name":"tokenId","type":"uint256"},{"indexed":false,"internalType":"string","name":"configHash","type":"string"}],"name":"ConfigUpdated","type":"event"},{"anonymous":false,"inputs":[{"indexed":true,"internalType":"uint256","name":"tokenId","type":"uint256"},{"indexed":false,"internalType":"uint256","name":"totalDecisions","type":"uint256"},{"indexed":false,"internalType":"uint256","name":"totalRebalances","type":"uint256"},{"indexed":false,"internalType":"uint256","name":"totalHarvests","type":"uint256"}],"name":"DecisionRecorded","type":"event"},{"anonymous":false,"inputs":[{"indexed":true,"internalType":"uint256","name":"tokenId","type":"uint256"},{"indexed":false,"internalType":"string","name":"memoryHash","type":"string"}],"name":"MemoryUpdated","type":"event"},{"anonymous":false,"inputs":[{"indexed":true,"internalType":"address","name":"previousOwner","type":"address"},{"indexed":true,"internalType":"address","name":"newOwner","type":"address"}],"name":"OwnershipTransferred","type":"event"},{"anonymous":false,"inputs":[{"indexed":false,"internalType":"address","name":"router","type":"address"},{"indexed":false,"internalType":"address","name":"token","type":"address"},{"indexed":false,"internalType":"uint256","name":"cloneFee","type":"uint256"}],"name":"RoyaltyConfigUpdated","type":"event"},{"anonymous":false,"inputs":[{"indexed":true,"internalType":"address","name":"from","type":"address"},{"indexed":true,"internalType":"address","name":"to","type":"address"},{"indexed":true,"internalType":"uint256","name":"tokenId","type":"uint256"}],"name":"Transfer","type":"event"},{"inputs":[{"internalType":"uint256","name":"","type":"uint256"}],"name":"agents","outputs":[{"internalType":"string","name":"name","type":"string"},{"internalType":"uint256","name":"minApyDeltaBps","type":"uint256"},{"internalType":"uint256","name":"minHoldingDays","type":"uint256"},{"internalType":"uint256","name":"safetyMarginBps","type":"uint256"},{"internalType":"bool","name":"harvester","type":"bool"},{"internalType":"string","name":"configHash","type":"string"},{"internalType":"string","name":"memoryHash","type":"string"},{"internalType":"uint256","name":"totalDecisions","type":"uint256"},{"internalType":"uint256","name":"totalRebalances","type":"uint256"},{"internalType":"uint256","name":"totalHarvests","type":"uint256"},{"internalType":"uint256","name":"clonedFrom","type":"uint256"},{"internalType":"uint256","name":"mergedFrom","type":"uint256"},{"internalType":"uint256","name":"createdAt","type":"uint256"}],"stateMutability":"view","type":"function"},{"inputs":[{"internalType":"address","name":"to","type":"address"},{"internalType":"uint256","name":"tokenId","type":"uint256"}],"name":"approve","outputs":[],"stateMutability":"nonpayable","type":"function"},{"inputs":[{"internalType":"uint256","name":"tokenId","type":"uint256"},{"internalType":"address","name":"caller","type":"address"},{"internalType":"bool","name":"authorized","type":"bool"}],"name":"authorizeCaller","outputs":[],"stateMutability":"nonpayable","type":"function"},{"inputs":[{"internalType":"uint256","name":"","type":"uint256"},{"internalType":"address","name":"","type":"address"}],"name":"authorizedCallers","outputs":[{"internalType":"bool","name":"","type":"bool"}],"stateMutability":"view","type":"function"},{"inputs":[{"internalType":"address","name":"owner","type":"address"}],"name":"balanceOf","outputs":[{"internalType":"uint256","name":"","type":"uint256"}],"stateMutability":"view","type":"function"},{"inputs":[{"internalType":"uint256","name":"sourceTokenId","type":"uint256"}],"name":"cloneAgent","outputs":[{"internalType":"uint256","name":"","type":"uint256"}],"stateMutability":"nonpayable","type":"function"},{"inputs":[],"name":"cloneFee","outputs":[{"internalType":"uint256","name":"","type":"uint256"}],"stateMutability":"view","type":"function"},{"inputs":[{"internalType":"uint256","name":"tokenId","type":"uint256"}],"name":"getApproved","outputs":[{"internalType":"address","name":"","type":"address"}],"stateMutability":"view","type":"function"},{"inputs":[{"internalType":"address","name":"owner","type":"address"},{"internalType":"address","name":"operator","type":"address"}],"name":"isApprovedForAll","outputs":[{"internalType":"bool","name":"","type":"bool"}],"stateMutability":"view","type":"function"},{"inputs":[{"internalType":"uint256","name":"parentA","type":"uint256"},{"internalType":"uint256","name":"parentB","type":"uint256"}],"name":"mergeAgents","outputs":[{"internalType":"uint256","name":"","type":"uint256"}],"stateMutability":"nonpayable","type":"function"},{"inputs":[{"internalType":"string","name":"name","type":"string"},{"internalType":"uint256","name":"minApyDeltaBps","type":"uint256"},{"internalType":"uint256","name":"minHoldingDays","type":"uint256"},{"internalType":"uint256","name":"safetyMarginBps","type":"uint256"},{"internalType":"bool","name":"harvester","type":"bool"},{"internalType":"string","name":"configHash","type":"string"}],"name":"mintAgent","outputs":[{"internalType":"uint256","name":"","type":"uint256"}],"stateMutability":"nonpayable","type":"function"},{"inputs":[],"name":"name","outputs":[{"internalType":"string","name":"","type":"string"}],"stateMutability":"view","type":"function"},{"inputs":[],"name":"owner","outputs":[{"internalType":"address","name":"","type":"address"}],"stateMutability":"view","type":"function"},{"inputs":[{"internalType":"uint256","name":"tokenId","type":"uint256"}],"name":"ownerOf","outputs":[{"internalType":"address","name":"","type":"address"}],"stateMutability":"view","type":"function"},{"inputs":[{"internalType":"uint256","name":"tokenId","type":"uint256"},{"internalType":"uint8","name":"kind","type":"uint8"}],"name":"recordDecision","outputs":[],"stateMutability":"nonpayable","type":"function"},{"inputs":[],"name":"renounceOwnership","outputs":[],"stateMutability":"nonpayable","type":"function"},{"inputs":[],"name":"royaltyRouter","outputs":[{"internalType":"contract IRoyaltyRouter","name":"","type":"address"}],"stateMutability":"view","type":"function"},{"inputs":[],"name":"royaltyToken","outputs":[{"internalType":"contract IERC20","name":"","type":"address"}],"stateMutability":"view","type":"function"},{"inputs":[{"internalType":"address","name":"from","type":"address"},{"internalType":"address","name":"to","type":"address"},{"internalType":"uint256","name":"tokenId","type":"uint256"}],"name":"safeTransferFrom","outputs":[],"stateMutability":"nonpayable","type":"function"},{"inputs":[{"internalType":"address","name":"from","type":"address"},{"internalType":"address","name":"to","type":"address"},{"internalType":"uint256","name":"tokenId","type":"uint256"},{"internalType":"bytes","name":"data","type":"bytes"}],"name":"safeTransferFrom","outputs":[],"stateMutability":"nonpayable","type":"function"},{"inputs":[{"internalType":"address","name":"operator","type":"address"},{"internalType":"bool","name":"approved","type":"bool"}],"name":"setApprovalForAll","outputs":[],"stateMutability":"nonpayable","type":"function"},{"inputs":[{"internalType":"address","name":"router","type":"address"},{"internalType":"address","name":"token","type":"address"},{"internalType":"uint256","name":"fee","type":"uint256"}],"name":"setRoyaltyConfig","outputs":[],"stateMutability":"nonpayable","type":"function"},{"inputs":[{"internalType":"bytes4","name":"interfaceId","type":"bytes4"}],"name":"supportsInterface","outputs":[{"internalType":"bool","name":"","type":"bool"}],"stateMutability":"view","type":"function"},{"inputs":[],"name":"symbol","outputs":[{"internalType":"string","name":"","type":"string"}],"stateMutability":"view","type":"function"},{"inputs":[{"internalType":"uint256","name":"index","type":"uint256"}],"name":"tokenByIndex","outputs":[{"internalType":"uint256","name":"","type":"uint256"}],"stateMutability":"view","type":"function"},{"inputs":[{"internalType":"address","name":"owner","type":"address"},{"internalType":"uint256","name":"index","type":"uint256"}],"name":"tokenOfOwnerByIndex","outputs":[{"internalType":"uint256","name":"","type":"uint256"}],"stateMutability":"view","type":"function"},{"inputs":[{"internalType":"uint256","name":"tokenId","type":"uint256"}],"name":"tokenURI","outputs":[{"internalType":"string","name":"","type":"string"}],"stateMutability":"view","type":"function"},{"inputs":[],"name":"totalSupply","outputs":[{"internalType":"uint256","name":"","type":"uint256"}],"stateMutability":"view","type":"function"},{"inputs":[{"internalType":"address","name":"from","type":"address"},{"internalType":"address","name":"to","type":"address"},{"internalType":"uint256","name":"tokenId","type":"uint256"}],"name":"transferFrom","outputs":[],"stateMutability":"nonpayable","type":"function"},{"inputs":[{"internalType":"address","name":"newOwner","type":"address"}],"name":"transferOwnership","outputs":[],"stateMutability":"nonpayable","type":"function"},{"inputs":[{"internalType":"uint256","name":"tokenId","type":"uint256"},{"internalType":"string","name":"newConfigHash","type":"string"}],"name":"updateConfig","outputs":[],"stateMutability":"nonpayable","type":"function"},{"inputs":[{"internalType":"uint256","name":"tokenId","type":"uint256"},{"internalType":"string","name":"newMemoryHash","type":"string"}],"name":"updateMemory","outputs":[],"stateMutability":"nonpayable","type":"function"}],"evm":{"bytecode":{"linkReferences":{},"object":"60806040523461037e57604080519081016001600160401b03811182821017610294576040908152601382527f537461626c65526f7461746f72204167656e7400000000000000000000000000602083015280519081016001600160401b0381118282101761029457604052600381526253524160e81b602082015281516001600160401b038111610294575f54600181811c91168015610374575b602082101461027657601f8111610312575b50602092601f82116001146102b357928192935f926102a8575b50508160011b915f199060031b1c1916175f555b80516001600160401b03811161029457600154600181811c9116801561028a575b602082101461027657601f8111610213575b50602091601f82116001146101b3579181925f926101a8575b50508160011b915f199060031b1c1916176001555b331561019557600a8054336001600160a01b03198216811790925560405191906001600160a01b03167f8be0079c531659141344cd1fd0a4f28419497f9722a3daafe3b4186f6b6457e05f80a3612ff890816103838239f35b631e4fbdf760e01b5f525f60045260245ffd5b015190505f80610127565b601f1982169260015f52805f20915f5b8581106101fb575083600195106101e3575b505050811b0160015561013c565b01515f1960f88460031b161c191690555f80806101d5565b919260206001819286850151815501940192016101c3565b60015f527fb10e2d527612073b26eecdfd717e6a320cf44b4afac2b0732d9fcbe2b7fa0cf6601f830160051c8101916020841061026c575b601f0160051c01905b818110610261575061010e565b5f8155600101610254565b909150819061024b565b634e487b7160e01b5f52602260045260245ffd5b90607f16906100fc565b634e487b7160e01b5f52604160045260245ffd5b015190505f806100c7565b601f198216935f8052805f20915f5b8681106102fa57508360019596106102e2575b505050811b015f556100db565b01515f1960f88460031b161c191690555f80806102d5565b919260206001819286850151815501940192016102c2565b5f80527f290decd9548b62a8d60345a988386fc84ba6bc95484008f6362f93160ef3e563601f830160051c8101916020841061036a575b601f0160051c01905b81811061035f57506100ad565b5f8155600101610352565b9091508190610349565b90607f169061009b565b5f80fdfe6080806040526004361015610012575f80fd5b5f905f3560e01c90816301ffc9a7146122705750806306fdde03146121a9578063081812fc1461216d578063095ea7b31461208357806318160ddd1461206657806323b872dd1461204f5780632f745c5914611fdd578063304969cc14611ec957806342842e0e14611e985780634f6ccce714611e4a57806350a42e2e14611763578063513856c81461166757806352383037146116495780636352211e1461161857806370a08231146115ec578063715018a61461158f57806380b6185e14611486578063881d09d414610db55780638da5cb5b14610d8c57806395d89b4114610ca9578063a22cb46514610be8578063a7fa3f141461067e578063b0353cfe14610634578063b88d4fde146105c1578063b96354cf14610598578063c21c3e1a14610435578063c87b56dd146103da578063cbe39c20146103b1578063db7477ff146102f9578063e985e9c5146102a1578063f2fde38b146102185763fb305ae51461017e575f80fd5b34610215577f3ac4bc32465d1e87f862bb690143e4dccce3ba824ce50abd648f1d26e5a157bf61020f6101b036612345565b6101bb939193612e57565b600e80546001600160a01b039485166001600160a01b03199182168117909255600f805496909516951685179093556010819055604080519384526020840194909452928201929092529081906060820190565b0390a180f35b80fd5b503461021557602036600319011261021557610232612319565b61023a612e57565b6001600160a01b0316801561028d57600a80546001600160a01b0319811683179091556001600160a01b03167f8be0079c531659141344cd1fd0a4f28419497f9722a3daafe3b4186f6b6457e05f80a380f35b631e4fbdf760e01b82526004829052602482fd5b50346102155760403660031901126102155760406102bd612319565b916102c661232f565b9260018060a01b031681526005602052209060018060a01b03165f52602052602060ff60405f2054166040519015158152f35b50346102155760603660031901126102155760043561031661232f565b604435801515918282036103ad577f136602f218ae287f0d5b40c7312d717840e8f62069f115a3fd6a00be6de7645a9261039560409361036861035888612adb565b6001600160a01b03163314612aa2565b868852600d60205284882060018060a01b0385165f52602052845f209060ff801983541691151516179055565b82516001600160a01b0390921682526020820152a280f35b5f80fd5b5034610215578060031936011261021557600e546040516001600160a01b039091168152602090f35b5034610215576020366003190112610215576103f7600435612adb565b50806040516104076020826123e7565b525061043160405161041a6020826123e7565b5f81526040519182916020835260208301906122f5565b0390f35b503461021557610444366124d5565b92919061045361035883612adb565b818352600c60205260056040842001936001600160401b038111610584576104858161047f875461237f565b87612953565b8394601f8211600114610500576104d5828087987ff3cb9e4896730a0e19d942b5a7560134bfcc3761db7cb21e08e683fdc6f613f79798916104f5575b508160011b915f199060031b1c19161790565b90555b6104ef604051928392602084526020840191612a82565b0390a280f35b90508501355f6104c2565b8085526020852095601f198316865b81811061056c575090837ff3cb9e4896730a0e19d942b5a7560134bfcc3761db7cb21e08e683fdc6f613f79697989210610553575b5050600182811b0190556104d8565b8401355f19600385901b60f8161c191690555f80610544565b8583013589556001909801976020928301920161050f565b634e487b7160e01b84526041600452602484fd5b5034610215578060031936011261021557600f546040516001600160a01b039091168152602090f35b5034610215576080366003190112610215576105db612319565b6105e361232f565b90604435606435926001600160401b03841161063057366023850112156106305761061b61062d943690602481600401359101612523565b92610627838383612559565b33612e7e565b80f35b8480fd5b503461021557604036600319011261021557604061065061232f565b916004358152600d602052209060018060a01b03165f52602052602060ff60405f2054166040519015158152f35b50346102155760c0366003190112610215576004356001600160401b038111610be4576106af9036906004016124a8565b6024359260443591606435608435801515809103610be05760a4356001600160401b038111610630576106e69036906004016124a8565b9190928815610ba25786151580610b96575b15610b5a576127108110610b1c57600b5496610713886128db565b600b556107208833612b5a565b6040519961072d8b6123b7565b61073836888c612523565b8b5260208b015260408a015260608901526080880152610759368284612523565b60a088015260209560405161076e88826123e7565b85815260c08901528460e08901528461010089015284610120890152846101408901528461016089015242610180890152858552600c87526040852088518051906001600160401b038211610a34576107d1826107cb855461237f565b85612953565b8990601f8311600114610ab5576107ff929189918361099a575b50508160011b915f199060031b1c19161790565b81555b60208901516001820155604089015160028201556060890151600382015561083f60808a01511515600483019060ff801983541691151516179055565b60a08901518051906001600160401b038211610a345761086f82610866600586015461237f565b60058601612953565b8990601f8311600114610a485761089c929189918361099a5750508160011b915f199060031b1c19161790565b60058201555b60c08901519889516001600160401b038111610a345788999a6108d8826108cf6006879d9c9d015461237f565b60068701612953565b8b908a601f84116001146109a55761097994610926855f516020612fa35f395f51905f529c9b99966109869b9996600c96610180969261099a5750508160011b915f199060031b1c19161790565b60068501555b60e0810151600785015561010081015160088501556101208101516009850155610140810151600a850155610160810151600b850155015191015560405195606087526060870191612a82565b918483038a860152612a82565b9360408201528033940390a3604051908152f35b015190505f806107eb565b50600685018b528c8b2091908b8e5b601f1986168210610a1a575050610979946001856109869a9895600c95610180955f516020612fa35f395f51905f529f9e9c99601f19811610610a02575b505050811b01600685015561092c565b01515f1960f88460031b161c191690555f80806109f2565b8383015185558e9c5060019094019392830192018e6109b4565b634e487b7160e01b88526041600452602488fd5b91906005840189528a89209089935b8c601f1985168610610a9c57506001945083601f19811610610a84575b505050811b0160058201556108a2565b01515f1960f88460031b161c191690555f8080610a74565b8282015184559485019460019093019290910190610a57565b91908389528a89209089935b8c601f1985168610610b0357506001945083601f19811610610aeb575b505050811b018155610802565b01515f1960f88460031b161c191690555f8080610ade565b8282015184559485019460019093019290910190610ac1565b60405162461bcd60e51b81526020600482015260166024820152750e6c2cccae8f240daeae6e840c4ca407c7a40625c60f60531b6044820152606490fd5b60405162461bcd60e51b8152602060048201526014602482015273696e76616c696420686f6c64696e67206461797360601b6044820152606490fd5b5061016d8711156106f8565b60405162461bcd60e51b815260206004820152601660248201527564656c7461206d75737420626520706f73697469766560501b6044820152606490fd5b8380fd5b5080fd5b503461021557604036600319011261021557610c02612319565b6024359081151590818303610be0573315610c95576001600160a01b0316918215610c8157610c5290338552600560205260408520845f5260205260405f209060ff801983541691151516179055565b6040519081527f17307eab39ab6107e8899845ad3d59bd9653f200f220920489ca2b5937696c3160203392a380f35b630b61174360e31b84526004839052602484fd5b63a9fbf51f60e01b84526004849052602484fd5b5034610215578060031936011261021557604051908060015490610ccc8261237f565b8085529160018116908115610d655750600114610d08575b61043184610cf4818603826123e7565b6040519182916020835260208301906122f5565b600181527fb10e2d527612073b26eecdfd717e6a320cf44b4afac2b0732d9fcbe2b7fa0cf6939250905b808210610d4b57509091508101602001610cf482610ce4565b919260018160209254838588010152019101909291610d32565b60ff191660208087019190915292151560051b85019092019250610cf49150839050610ce4565b5034610215578060031936011261021557600a546040516001600160a01b039091168152602090f35b5034610215576020366003190112610215576004355f908152600260205260409020546001600160a01b031615611450576004358152600c60205260408120600e546001600160a01b0316151580611445575b61124b575b600b5490610e1a826128db565b600b55610e278233612b5a565b60405192610e58600585610e3e60208201866128e9565b642d666f726b60d81b815203601a198101875201856123e7565b6001820154600283015460038401549060ff6004860154169260405197610e7e896123b7565b885260208801526040870152606086015215156080850152610ea260058301612408565b60a0850152604051602094610eb786836123e7565b82825260c081019182528260e082015282610100820152826101208201526004356101408201528261016082015242610180820152848352600c8652604083209181518051906001600160401b0382116111d057610f198261047f875461237f565b8890601f83116001146111e457610f46929187918361099a5750508160011b915f199060031b1c19161790565b83555b602082015160018401556040820151600284015560608201516003840155610f8660808301511515600485019060ff801983541691151516179055565b60a08201518051906001600160401b0382116111d057610fb682610fad600588015461237f565b60058801612953565b8890601f831160011461116357610fe3929187918361099a5750508160011b915f199060031b1c19161790565b60058401555b518051906001600160401b03821161114f5790839291611012826108cf60068b9998015461237f565b8890601f83116001146110c65761018060409461105b8589966110bb9996600c965f516020612fa35f395f51905f529c9261099a5750508160011b915f199060031b1c19161790565b60068501555b60e0810151600785015561010081015160088501556101208101516009850155610140810151600a850155610160810151600b8501550151910155848152600c885220936040519182913396600560043592019084612a23565b0390a3604051908152f35b9060068501865289862091865b8b601f19861682106111365750506040946001856110bb9895600c95610180955f516020612fa35f395f51905f529c99601f1981161061111e575b505050811b016006850155611061565b01515f1960f88460031b161c191690555f808061110e565b8383015185558b995060019094019392830192016110d3565b634e487b7160e01b85526041600452602485fd5b91906005860187528987209087935b8b601f19851686106111b757506001945083601f1981161061119f575b505050811b016005840155610fe9565b01515f1960f88460031b161c191690555f808061118f565b8282015184559485019460019093019290910190611172565b634e487b7160e01b86526041600452602486fd5b91908587528987209087935b8b601f198516861061123257506001945083601f1981161061121a575b505050811b018355610f49565b01515f1960f88460031b161c191690555f808061120d565b82820151845594850194600190930192909101906111f0565b600f546010546040516323b872dd60e01b81523360048201523060248201526044810191909152906020908290606490829087906001600160a01b03165af19081156113d6578391611426575b50156113e157600f54600e5460105460405163095ea7b360e01b81526001600160a01b039283166004820152602481019190915291602091839160449183918891165af180156113d6576112f39184916113a7575b5061289a565b600e5460105483916001600160a01b031690813b156113a3578291604483926040519485938492632257c3fb60e11b8452600435600485015260248401525af1801561139857611383575b5050600b5460105460408051338152602081019290925260043592917fbcd1d4af7e4c571a4d8268d7e23682d7d43f965de90ff3ce10d0e99adfc6c48b9190a3610e0d565b8161138d916123e7565b610be457815f61133e565b6040513d84823e3d90fd5b8280fd5b6113c9915060203d6020116113cf575b6113c181836123e7565b810190612882565b5f6112ed565b503d6113b7565b6040513d85823e3d90fd5b60405162461bcd60e51b815260206004820152601d60248201527f636c6f6e6520666565207472616e7366657246726f6d206661696c65640000006044820152606490fd5b61143f915060203d6020116113cf576113c181836123e7565b5f611298565b506010541515610e08565b60405162461bcd60e51b815260206004820152600e60248201526d736f75726365206d697373696e6760901b6044820152606490fd5b503461021557611495366124d5565b9291906114aa6114a53384612b0f565b61280c565b818352600c60205260066040842001936001600160401b038111610584576114d68161047f875461237f565b8394601f8211600114611525576104d5828087987f4edff0078f9c3828d1c82175891b64029ec7dc2bac5ecb6577c95c1b6435e4b89798916104f557508160011b915f199060031b1c19161790565b8085526020852095601f198316865b818110611577575090837f4edff0078f9c3828d1c82175891b64029ec7dc2bac5ecb6577c95c1b6435e4b89697989210610553575050600182811b0190556104d8565b85830135895560019098019760209283019201611534565b50346102155780600319360112610215576115a8612e57565b600a80546001600160a01b0319811690915581906001600160a01b03167f8be0079c531659141344cd1fd0a4f28419497f9722a3daafe3b4186f6b6457e08280a380f35b503461021557602036600319011261021557602061161061160b612319565b612a51565b604051908152f35b5034610215576020366003190112610215576020611637600435612adb565b6040516001600160a01b039091168152f35b50346102155780600319360112610215576020601054604051908152f35b5034610215576020366003190112610215576004358152600c6020526040902061169081612408565b600182015490600283015492600381015490600481015460ff16600582016116b790612408565b936116c460068401612408565b94600784015495600885015491600986015493600a87015495600b88015497600c0154986040519c8d9c8d946101a086526101a08601611703916122f5565b946020015260408d015260608c0152151560808b015289810360a08b015261172a916122f5565b88810360c08a015261173b916122f5565b9560e08801526101008701526101208601526101408501526101608401526101808301520390f35b50346103ad5760403660031901126103ad576004355f908152600260205260409020546001600160a01b0316151580611e28575b15611df25760243560043514611dc057600e546001600160a01b0316151580611db5575b611c01575b6004358152600c60205260408120906024358152600c6020526040812091600b54916117eb836128db565b600b556117f88333612b5a565b6040519361182e85611820600161181260208401886128e9565b602b60f81b815201846128e9565b03601f1981018752866123e7565b6118416001840154600183015490612849565b60011c6118576002850154600284015490612849565b60011c61186d6003860154600385015490612849565b60011c9160ff600487015416938415611bf2575b506040519761188f896123b7565b8852602088015260408701526060860152151560808501526118b360058301612408565b60a08501526020936040516118c886826123e7565b82815260c08201528160e0820152816101008201528161012082015260043561014082015260243561016082015242610180820152838252600c8552604082209080518051906001600160401b03821161114f576119308261192a865461237f565b86612953565b8790601f8311600114611b8b5761195d929186918361099a5750508160011b915f199060031b1c19161790565b82555b60208101516001830155604081015160028301556060810151600383015561199d60808201511515600484019060ff801983541691151516179055565b60a08101518051906001600160401b03821161114f576119cd826119c4600587015461237f565b60058701612953565b8790601f8311600114611b23576119fa929186918361099a5750508160011b915f199060031b1c19161790565b60058301555b60c08101518051906001600160401b03821161114f5790839291611a2d826108cf60068b9998015461237f565b8890601f8311600114611ab35761018060409461105b858996611a769996600c965f516020612fa35f395f51905f529c9261099a5750508160011b915f199060031b1c19161790565b0390a360405133815260243590827fc21894ca054bdb6b6f667367c0787c77acfcce5cd16fb6c4920e74d5a5c7fdd48560043593a4604051908152f35b9060068501865289862091865b8b601f1986168210611b0a575050604094600185611a769895600c95610180955f516020612fa35f395f51905f529c99601f1981161061111e57505050811b016006850155611061565b8383015185558b99506001909401939283019201611ac0565b6005850186528886209190601f198416875b8b828210611b75575050908460019594939210611b5d575b505050811b016005830155611a00565b01515f1960f88460031b161c191690555f8080611b4d565b6001859682939686015181550195019301611b35565b91908486528886209086935b8a601f1985168610611bd957506001945083601f19811610611bc1575b505050811b018255611960565b01515f1960f88460031b161c191690555f8080611bb4565b8282015184559485019460019093019290910190611b97565b6004015460ff1693505f611881565b600f546010546040516323b872dd60e01b8152336004820152306024820152604481019190915290602090829060649082905f906001600160a01b03165af1908115611d46575f91611d96575b5015611d5157600f54600e5460105460405163095ea7b360e01b81526001600160a01b039283166004820152602481019190915291602091839160449183915f91165af18015611d4657611ca8915f916113a7575061289a565b60018060a01b03600e5416601054813b156103ad575f91604483926040519485938492632257c3fb60e11b8452600435600485015260248401525af18015611d4657611d33575b50600b5460105460408051338152602081019290925260043592917fbcd1d4af7e4c571a4d8268d7e23682d7d43f965de90ff3ce10d0e99adfc6c48b9190a36117c0565b611d3f91505f906123e7565b5f5f611cef565b6040513d5f823e3d90fd5b60405162461bcd60e51b815260206004820152601d60248201527f6d6572676520666565207472616e7366657246726f6d206661696c65640000006044820152606490fd5b611daf915060203d6020116113cf576113c181836123e7565b5f611c4e565b5060105415156117bb565b60405162461bcd60e51b815260206004820152600a60248201526973656c662d6d6572676560b01b6044820152606490fd5b60405162461bcd60e51b815260206004820152600e60248201526d706172656e74206d697373696e6760901b6044820152606490fd5b506024355f908152600260205260409020546001600160a01b03161515611797565b346103ad5760203660031901126103ad57600435600854811015611e8257611e73602091612856565b90549060031b1c604051908152f35b63295f44f760e21b5f525f60045260245260445ffd5b346103ad57611ec7611ea936612345565b9060405192611eb96020856123e7565b5f8452610627838383612559565b005b346103ad5760403660031901126103ad5760043560243560ff81168091036103ad57611ef86114a53384612b0f565b815f52600c60205260405f206007810191825460018101809111611f7b57835560018103611f8f5750600881019081549260018401809411611f7b577f638d3fd664542ed46076162565daceba926b7e81dff1a8ee8ebca807c23b101693606093555b5490600960088201549101549060405192835260208301526040820152a2005b634e487b7160e01b5f52601160045260245ffd5b600214611fc1575b6060907f638d3fd664542ed46076162565daceba926b7e81dff1a8ee8ebca807c23b101692611f5b565b600981019081549260018401809411611f7b5792909155611f97565b346103ad5760403660031901126103ad57611ff6612319565b6024359061200381612a51565b8210156120325760018060a01b03165f52600660205260405f20905f52602052602060405f2054604051908152f35b63295f44f760e21b5f5260018060a01b031660045260245260445ffd5b346103ad57611ec761206036612345565b91612559565b346103ad575f3660031901126103ad576020600854604051908152f35b346103ad5760403660031901126103ad5761209c612319565b6024356120a881612adb565b3315158061215a575b8061212d575b61211a5781906001600160a01b0384811691167f8c5be1e5ebec7d5bd14f71427d1e84f3dd0314c0f7b2291e5b200ac8c7c3b9255f80a45f90815260046020526040902080546001600160a01b0319166001600160a01b03909216919091179055005b63a9fbf51f60e01b5f523360045260245ffd5b506001600160a01b0381165f90815260056020908152604080832033845290915290205460ff16156120b7565b506001600160a01b0381163314156120b1565b346103ad5760203660031901126103ad5760043561218a81612adb565b505f526004602052602060018060a01b0360405f205416604051908152f35b346103ad575f3660031901126103ad576040515f5f546121c88161237f565b808452906001811690811561224c57506001146121f0575b61043183610cf4818503826123e7565b5f8080527f290decd9548b62a8d60345a988386fc84ba6bc95484008f6362f93160ef3e563939250905b80821061223257509091508101602001610cf46121e0565b91926001816020925483858801015201910190929161221a565b60ff191660208086019190915291151560051b84019091019150610cf490506121e0565b346103ad5760203660031901126103ad576004359063ffffffff60e01b82168092036103ad5760209163780e9d6360e01b81149081156122b2575b5015158152f35b6380ac58cd60e01b8114915081156122e4575b81156122d3575b50836122ab565b6301ffc9a760e01b149050836122cc565b635b5e139f60e01b811491506122c5565b805180835260209291819084018484015e5f828201840152601f01601f1916010190565b600435906001600160a01b03821682036103ad57565b602435906001600160a01b03821682036103ad57565b60609060031901126103ad576004356001600160a01b03811681036103ad57906024356001600160a01b03811681036103ad579060443590565b90600182811c921680156123ad575b602083101461239957565b634e487b7160e01b5f52602260045260245ffd5b91607f169161238e565b6101a081019081106001600160401b038211176123d357604052565b634e487b7160e01b5f52604160045260245ffd5b90601f801991011681019081106001600160401b038211176123d357604052565b9060405191825f82549261241b8461237f565b80845293600181169081156124865750600114612442575b50612440925003836123e7565b565b90505f9291925260205f20905f915b81831061246a575050906020612440928201015f612433565b6020919350806001915483858901015201910190918492612451565b90506020925061244094915060ff191682840152151560051b8201015f612433565b9181601f840112156103ad578235916001600160401b0383116103ad57602083818601950101116103ad57565b9060406003198301126103ad5760043591602435906001600160401b0382116103ad57612504916004016124a8565b9091565b6001600160401b0381116123d357601f01601f191660200190565b92919261252f82612508565b9161253d60405193846123e7565b8294818452818301116103ad578281602093845f960137010152565b9091906001600160a01b03831680156127f9575f838152600260205260409020546001600160a01b03169333151580612769575b5084158015612736575b825f52600360205260405f2060018154019055845f52600260205260405f20836bffffffffffffffffffffffff60a01b8254161790558483877fddf252ad1be2c89b69c2b068fc378daa952ba7f163c4a11628f55a4df523b3ef5f80a4156126b957600854845f5260096020528060405f2055600160401b8110156123d3578461262a8260016126429401600855612856565b90919082549060031b91821b915f19901b1916179055565b818503612679575b50506001600160a01b031680830361266157505050565b6364283d7b60e01b5f5260045260245260445260645ffd5b61268290612a51565b5f19810191908211611f7b575f52600660205260405f20815f526020528260405f2055825f52600760205260405f20555f8061264a565b848214612642576126c985612a51565b845f52600760205260405f205490865f52600660205260405f209181810361270b575b50855f5260076020525f60408120555f526020525f6040812055612642565b815f528260205260405f2054815f52836020528060405f20555f52600760205260405f20555f6126ec565b5f85815260046020526040902080546001600160a01b0319169055855f52600360205260405f205f198154019055612597565b806127a8575b1561277a575f61258d565b838561279257637e27328960e01b5f5260045260245ffd5b63177e802f60e01b5f523360045260245260445ffd5b5033851480156127d7575b8061276f57505f848152600460205260409020546001600160a01b0316331461276f565b505f85815260056020908152604080832033845290915290205460ff166127b3565b633250574960e11b5f525f60045260245ffd5b1561281357565b60405162461bcd60e51b815260206004820152600e60248201526d1b9bdd08185d5d1a1bdc9a5e995960921b6044820152606490fd5b91908201809211611f7b57565b60085481101561286e5760085f5260205f2001905f90565b634e487b7160e01b5f52603260045260245ffd5b908160209103126103ad575180151581036103ad5790565b156128a157565b60405162461bcd60e51b815260206004820152601260248201527119995948185c1c1c9bdd994819985a5b195960721b6044820152606490fd5b5f198114611f7b5760010190565b5f92918154916128f88361237f565b9260018116908115612940575060011461291157505050565b90919293505f5260205f205f905b83821061292c5750500190565b60018160209254848601520191019061291f565b60ff191683525050811515909102019150565b601f821161296057505050565b5f5260205f20906020601f840160051c83019310612998575b601f0160051c01905b81811061298d575050565b5f8155600101612982565b9091508190612979565b5f92918154916129b18361237f565b8083529260018116908115612a0657506001146129cd57505050565b5f9081526020812093945091925b8383106129ec575060209250010190565b6001816020929493945483858701015201910191906129db565b915050602093945060ff929192191683830152151560051b010190565b939291612a4c90612a3e6040936060885260608801906129a2565b9086820360208801526129a2565b930152565b6001600160a01b03168015612a6f575f52600360205260405f205490565b6322718ad960e21b5f525f60045260245ffd5b908060209392818452848401375f828201840152601f01601f1916010190565b15612aa957565b60405162461bcd60e51b815260206004820152600a6024820152696f776e6572206f6e6c7960b01b6044820152606490fd5b5f818152600260205260409020546001600160a01b0316908115612afd575090565b637e27328960e01b5f5260045260245ffd5b90612b1982612adb565b6001600160a01b03828116911614918215612b3357505090565b9091505f52600d60205260405f209060018060a01b03165f5260205260ff60405f20541690565b9060209060405190612b6c83836123e7565b5f82526001600160a01b0384169384156127f9575f8281526002855260409020546001600160a01b031680158015919082612e26575b875f526003875260405f2060018154019055845f526002875260405f20886bffffffffffffffffffffffff60a01b8254161790558488837fddf252ad1be2c89b69c2b068fc378daa952ba7f163c4a11628f55a4df523b3ef5f80a415612db057600854845f52600987528060405f2055600160401b8110156123d3578461262a826001612c329401600855612856565b868103612d75575b50612d62573b612c4b575b50505050565b91612c8891819495936040519384928392630a85bd0160e11b84523360048501525f602485015260448401526080606484015260848301906122f5565b03815f885af15f9181612d22575b50612ceb5750503d15612ce3573d90612cae82612508565b91612cbc60405193846123e7565b82523d5f8284013e5b81519182612ce05783633250574960e11b5f5260045260245ffd5b01fd5b606090612cc5565b909291506001600160e01b03191663757a42ff60e11b01612d1057505f808080612c45565b633250574960e11b5f5260045260245ffd5b9091508381813d8311612d5b575b612d3a81836123e7565b810103126103ad57516001600160e01b0319811681036103ad57905f612c96565b503d612d30565b6339e3563760e11b5f525f60045260245ffd5b612d7e83612a51565b5f198101908111611f7b57875f526006875260405f20815f5287528460405f2055845f526007875260405f2055612c3a565b808714612c3257612dc081612a51565b845f526007875260405f205490825f526006885260405f2091818103612dfe575b50855f52600788525f60408120555f5286525f6040812055612c32565b815f5282895260405f2054815f52838a528060405f20555f526007895260405f20555f612de1565b5f8581526004602052604080822080546001600160a01b031916905583825260038952902080545f19019055612ba2565b600a546001600160a01b03163303612e6b57565b63118cdaa760e01b5f523360045260245ffd5b823b612e8c575b5050505050565b604051630a85bd0160e11b81526001600160a01b039182166004820152918116602483015260448201939093526080606482015291169160209082908190612ed89060848301906122f5565b03815f865af15f9181612f5d575b50612f3b57503d15612f34573d612efc81612508565b90612f0a60405192836123e7565b81523d5f602083013e5b80519081612f2f5782633250574960e11b5f5260045260245ffd5b602001fd5b6060612f14565b6001600160e01b03191663757a42ff60e11b01612d1057505f80808080612e85565b9091506020813d602011612f9a575b81612f79602093836123e7565b810103126103ad57516001600160e01b0319811681036103ad57905f612ee6565b3d9150612f6c56fed4b61c3a4ccd88edcd0625cf5ceda3452d33ebf07a06a80254536b0976e37667a2646970667358221220d1e2b2c40a97767d284474e7893ea6a9ca64229d1f79cfdbfc357fafd2b23d7464736f6c634300081b0033","opcodes":"PUSH1 0x80 PUSH1 0x40 MSTORE CALLVALUE PUSH2 0x37E JUMPI PUSH1 0x40 DUP1 MLOAD SWAP1 DUP2 ADD PUSH1 0x1 PUSH1 0x1 PUSH1 0x40 SHL SUB DUP2 GT DUP3 DUP3 LT OR PUSH2 0x294 JUMPI PUSH1 0x40 SWAP1 DUP2 MSTORE PUSH1 0x13 DUP3 MSTORE PUSH32 0x537461626C65526F7461746F72204167656E7400000000000000000000000000 PUSH1 0x20 DUP4 ADD MSTORE DUP1 MLOAD SWAP1 DUP2 ADD PUSH1 0x1 PUSH1 0x1 PUSH1 0x40 SHL SUB DUP2 GT DUP3 DUP3 LT OR PUSH2 0x294 JUMPI PUSH1 0x40 MSTORE PUSH1 0x3 DUP2 MSTORE PUSH3 0x535241 PUSH1 0xE8 SHL PUSH1 0x20 DUP3 ADD MSTORE DUP2 MLOAD PUSH1 0x1 PUSH1 0x1 PUSH1 0x40 SHL SUB DUP2 GT PUSH2 0x294 JUMPI PUSH0 SLOAD PUSH1 0x1 DUP2 DUP2 SHR SWAP2 AND DUP1 ISZERO PUSH2 0x374 JUMPI JUMPDEST PUSH1 0x20 DUP3 LT EQ PUSH2 0x276 JUMPI PUSH1 0x1F DUP2 GT PUSH2 0x312 JUMPI JUMPDEST POP PUSH1 0x20 SWAP3 PUSH1 0x1F DUP3 GT PUSH1 0x1 EQ PUSH2 0x2B3 JUMPI SWAP3 DUP2 SWAP3 SWAP4 PUSH0 SWAP3 PUSH2 0x2A8 JUMPI JUMPDEST POP POP DUP2 PUSH1 0x1 SHL SWAP2 PUSH0 NOT SWAP1 PUSH1 0x3 SHL SHR NOT AND OR PUSH0 SSTORE JUMPDEST DUP1 MLOAD PUSH1 0x1 PUSH1 0x1 PUSH1 0x40 SHL SUB DUP2 GT PUSH2 0x294 JUMPI PUSH1 0x1 SLOAD PUSH1 0x1 DUP2 DUP2 SHR SWAP2 AND DUP1 ISZERO PUSH2 0x28A JUMPI JUMPDEST PUSH1 0x20 DUP3 LT EQ PUSH2 0x276 JUMPI PUSH1 0x1F DUP2 GT PUSH2 0x213 JUMPI JUMPDEST POP PUSH1 0x20 SWAP2 PUSH1 0x1F DUP3 GT PUSH1 0x1 EQ PUSH2 0x1B3 JUMPI SWAP2 DUP2 SWAP3 PUSH0 SWAP3 PUSH2 0x1A8 JUMPI JUMPDEST POP POP DUP2 PUSH1 0x1 SHL SWAP2 PUSH0 NOT SWAP1 PUSH1 0x3 SHL SHR NOT AND OR PUSH1 0x1 SSTORE JUMPDEST CALLER ISZERO PUSH2 0x195 JUMPI PUSH1 0xA DUP1 SLOAD CALLER PUSH1 0x1 PUSH1 0x1 PUSH1 0xA0 SHL SUB NOT DUP3 AND DUP2 OR SWAP1 SWAP3 SSTORE PUSH1 0x40 MLOAD SWAP2 SWAP1 PUSH1 0x1 PUSH1 0x1 PUSH1 0xA0 SHL SUB AND PUSH32 0x8BE0079C531659141344CD1FD0A4F28419497F9722A3DAAFE3B4186F6B6457E0 PUSH0 DUP1 LOG3 PUSH2 0x2FF8 SWAP1 DUP2 PUSH2 0x383 DUP3 CODECOPY RETURN JUMPDEST PUSH4 0x1E4FBDF7 PUSH1 0xE0 SHL PUSH0 MSTORE PUSH0 PUSH1 0x4 MSTORE PUSH1 0x24 PUSH0 REVERT JUMPDEST ADD MLOAD SWAP1 POP PUSH0 DUP1 PUSH2 0x127 JUMP JUMPDEST PUSH1 0x1F NOT DUP3 AND SWAP3 PUSH1 0x1 PUSH0 MSTORE DUP1 PUSH0 KECCAK256 SWAP2 PUSH0 JUMPDEST DUP6 DUP2 LT PUSH2 0x1FB JUMPI POP DUP4 PUSH1 0x1 SWAP6 LT PUSH2 0x1E3 JUMPI JUMPDEST POP POP POP DUP2 SHL ADD PUSH1 0x1 SSTORE PUSH2 0x13C JUMP JUMPDEST ADD MLOAD PUSH0 NOT PUSH1 0xF8 DUP5 PUSH1 0x3 SHL AND SHR NOT AND SWAP1 SSTORE PUSH0 DUP1 DUP1 PUSH2 0x1D5 JUMP JUMPDEST SWAP2 SWAP3 PUSH1 0x20 PUSH1 0x1 DUP2 SWAP3 DUP7 DUP6 ADD MLOAD DUP2 SSTORE ADD SWAP5 ADD SWAP3 ADD PUSH2 0x1C3 JUMP JUMPDEST PUSH1 0x1 PUSH0 MSTORE PUSH32 0xB10E2D527612073B26EECDFD717E6A320CF44B4AFAC2B0732D9FCBE2B7FA0CF6 PUSH1 0x1F DUP4 ADD PUSH1 0x5 SHR DUP2 ADD SWAP2 PUSH1 0x20 DUP5 LT PUSH2 0x26C JUMPI JUMPDEST PUSH1 0x1F ADD PUSH1 0x5 SHR ADD SWAP1 JUMPDEST DUP2 DUP2 LT PUSH2 0x261 JUMPI POP PUSH2 0x10E JUMP JUMPDEST PUSH0 DUP2 SSTORE PUSH1 0x1 ADD PUSH2 0x254 JUMP JUMPDEST SWAP1 SWAP2 POP DUP2 SWAP1 PUSH2 0x24B JUMP JUMPDEST PUSH4 0x4E487B71 PUSH1 0xE0 SHL PUSH0 MSTORE PUSH1 0x22 PUSH1 0x4 MSTORE PUSH1 0x24 PUSH0 REVERT JUMPDEST SWAP1 PUSH1 0x7F AND SWAP1 PUSH2 0xFC JUMP JUMPDEST PUSH4 0x4E487B71 PUSH1 0xE0 SHL PUSH0 MSTORE PUSH1 0x41 PUSH1 0x4 MSTORE PUSH1 0x24 PUSH0 REVERT JUMPDEST ADD MLOAD SWAP1 POP PUSH0 DUP1 PUSH2 0xC7 JUMP JUMPDEST PUSH1 0x1F NOT DUP3 AND SWAP4 PUSH0 DUP1 MSTORE DUP1 PUSH0 KECCAK256 SWAP2 PUSH0 JUMPDEST DUP7 DUP2 LT PUSH2 0x2FA JUMPI POP DUP4 PUSH1 0x1 SWAP6 SWAP7 LT PUSH2 0x2E2 JUMPI JUMPDEST POP POP POP DUP2 SHL ADD PUSH0 SSTORE PUSH2 0xDB JUMP JUMPDEST ADD MLOAD PUSH0 NOT PUSH1 0xF8 DUP5 PUSH1 0x3 SHL AND SHR NOT AND SWAP1 SSTORE PUSH0 DUP1 DUP1 PUSH2 0x2D5 JUMP JUMPDEST SWAP2 SWAP3 PUSH1 0x20 PUSH1 0x1 DUP2 SWAP3 DUP7 DUP6 ADD MLOAD DUP2 SSTORE ADD SWAP5 ADD SWAP3 ADD PUSH2 0x2C2 JUMP JUMPDEST PUSH0 DUP1 MSTORE PUSH32 0x290DECD9548B62A8D60345A988386FC84BA6BC95484008F6362F93160EF3E563 PUSH1 0x1F DUP4 ADD PUSH1 0x5 SHR DUP2 ADD SWAP2 PUSH1 0x20 DUP5 LT PUSH2 0x36A JUMPI JUMPDEST PUSH1 0x1F ADD PUSH1 0x5 SHR ADD SWAP1 JUMPDEST DUP2 DUP2 LT PUSH2 0x35F JUMPI POP PUSH2 0xAD JUMP JUMPDEST PUSH0 DUP2 SSTORE PUSH1 0x1 ADD PUSH2 0x352 JUMP JUMPDEST SWAP1 SWAP2 POP DUP2 SWAP1 PUSH2 0x349 JUMP JUMPDEST SWAP1 PUSH1 0x7F AND SWAP1 PUSH2 0x9B JUMP JUMPDEST PUSH0 DUP1 REVERT INVALID PUSH1 0x80 DUP1 PUSH1 0x40 MSTORE PUSH1 0x4 CALLDATASIZE LT ISZERO PUSH2 0x12 JUMPI PUSH0 DUP1 REVERT JUMPDEST PUSH0 SWAP1 PUSH0 CALLDATALOAD PUSH1 0xE0 SHR SWAP1 DUP2 PUSH4 0x1FFC9A7 EQ PUSH2 0x2270 JUMPI POP DUP1 PUSH4 0x6FDDE03 EQ PUSH2 0x21A9 JUMPI DUP1 PUSH4 0x81812FC EQ PUSH2 0x216D JUMPI DUP1 PUSH4 0x95EA7B3 EQ PUSH2 0x2083 JUMPI DUP1 PUSH4 0x18160DDD EQ PUSH2 0x2066 JUMPI DUP1 PUSH4 0x23B872DD EQ PUSH2 0x204F JUMPI DUP1 PUSH4 0x2F745C59 EQ PUSH2 0x1FDD JUMPI DUP1 PUSH4 0x304969CC EQ PUSH2 0x1EC9 JUMPI DUP1 PUSH4 0x42842E0E EQ PUSH2 0x1E98 JUMPI DUP1 PUSH4 0x4F6CCCE7 EQ PUSH2 0x1E4A JUMPI DUP1 PUSH4 0x50A42E2E EQ PUSH2 0x1763 JUMPI DUP1 PUSH4 0x513856C8 EQ PUSH2 0x1667 JUMPI DUP1 PUSH4 0x52383037 EQ PUSH2 0x1649 JUMPI DUP1 PUSH4 0x6352211E EQ PUSH2 0x1618 JUMPI DUP1 PUSH4 0x70A08231 EQ PUSH2 0x15EC JUMPI DUP1 PUSH4 0x715018A6 EQ PUSH2 0x158F JUMPI DUP1 PUSH4 0x80B6185E EQ PUSH2 0x1486 JUMPI DUP1 PUSH4 0x881D09D4 EQ PUSH2 0xDB5 JUMPI DUP1 PUSH4 0x8DA5CB5B EQ PUSH2 0xD8C JUMPI DUP1 PUSH4 0x95D89B41 EQ PUSH2 0xCA9 JUMPI DUP1 PUSH4 0xA22CB465 EQ PUSH2 0xBE8 JUMPI DUP1 PUSH4 0xA7FA3F14 EQ PUSH2 0x67E JUMPI DUP1 PUSH4 0xB0353CFE EQ PUSH2 0x634 JUMPI DUP1 PUSH4 0xB88D4FDE EQ PUSH2 0x5C1 JUMPI DUP1 PUSH4 0xB96354CF EQ PUSH2 0x598 JUMPI DUP1 PUSH4 0xC21C3E1A EQ PUSH2 0x435 JUMPI DUP1 PUSH4 0xC87B56DD EQ PUSH2 0x3DA JUMPI DUP1 PUSH4 0xCBE39C20 EQ PUSH2 0x3B1 JUMPI DUP1 PUSH4 0xDB7477FF EQ PUSH2 0x2F9 JUMPI DUP1 PUSH4 0xE985E9C5 EQ PUSH2 0x2A1 JUMPI DUP1 PUSH4 0xF2FDE38B EQ PUSH2 0x218 JUMPI PUSH4 0xFB305AE5 EQ PUSH2 0x17E JUMPI PUSH0 DUP1 REVERT JUMPDEST CALLVALUE PUSH2 0x215 JUMPI PUSH32 0x3AC4BC32465D1E87F862BB690143E4DCCCE3BA824CE50ABD648F1D26E5A157BF PUSH2 0x20F PUSH2 0x1B0 CALLDATASIZE PUSH2 0x2345 JUMP JUMPDEST PUSH2 0x1BB SWAP4 SWAP2 SWAP4 PUSH2 0x2E57 JUMP JUMPDEST PUSH1 0xE DUP1 SLOAD PUSH1 0x1 PUSH1 0x1 PUSH1 0xA0 SHL SUB SWAP5 DUP6 AND PUSH1 0x1 PUSH1 0x1 PUSH1 0xA0 SHL SUB NOT SWAP2 DUP3 AND DUP2 OR SWAP1 SWAP3 SSTORE PUSH1 0xF DUP1 SLOAD SWAP7 SWAP1 SWAP6 AND SWAP6 AND DUP6 OR SWAP1 SWAP4 SSTORE PUSH1 0x10 DUP2 SWAP1 SSTORE PUSH1 0x40 DUP1 MLOAD SWAP4 DUP5 MSTORE PUSH1 0x20 DUP5 ADD SWAP5 SWAP1 SWAP5 MSTORE SWAP3 DUP3 ADD SWAP3 SWAP1 SWAP3 MSTORE SWAP1 DUP2 SWAP1 PUSH1 0x60 DUP3 ADD SWAP1 JUMP JUMPDEST SUB SWAP1 LOG1 DUP1 RETURN JUMPDEST DUP1 REVERT JUMPDEST POP CALLVALUE PUSH2 0x215 JUMPI PUSH1 0x20 CALLDATASIZE PUSH1 0x3 NOT ADD SLT PUSH2 0x215 JUMPI PUSH2 0x232 PUSH2 0x2319 JUMP JUMPDEST PUSH2 0x23A PUSH2 0x2E57 JUMP JUMPDEST PUSH1 0x1 PUSH1 0x1 PUSH1 0xA0 SHL SUB AND DUP1 ISZERO PUSH2 0x28D JUMPI PUSH1 0xA DUP1 SLOAD PUSH1 0x1 PUSH1 0x1 PUSH1 0xA0 SHL SUB NOT DUP2 AND DUP4 OR SWAP1 SWAP2 SSTORE PUSH1 0x1 PUSH1 0x1 PUSH1 0xA0 SHL SUB AND PUSH32 0x8BE0079C531659141344CD1FD0A4F28419497F9722A3DAAFE3B4186F6B6457E0 PUSH0 DUP1 LOG3 DUP1 RETURN JUMPDEST PUSH4 0x1E4FBDF7 PUSH1 0xE0 SHL DUP3 MSTORE PUSH1 0x4 DUP3 SWAP1 MSTORE PUSH1 0x24 DUP3 REVERT JUMPDEST POP CALLVALUE PUSH2 0x215 JUMPI PUSH1 0x40 CALLDATASIZE PUSH1 0x3 NOT ADD SLT PUSH2 0x215 JUMPI PUSH1 0x40 PUSH2 0x2BD PUSH2 0x2319 JUMP JUMPDEST SWAP2 PUSH2 0x2C6 PUSH2 0x232F JUMP JUMPDEST SWAP3 PUSH1 0x1 DUP1 PUSH1 0xA0 SHL SUB AND DUP2 MSTORE PUSH1 0x5 PUSH1 0x20 MSTORE KECCAK256 SWAP1 PUSH1 0x1 DUP1 PUSH1 0xA0 SHL SUB AND PUSH0 MSTORE PUSH1 0x20 MSTORE PUSH1 0x20 PUSH1 0xFF PUSH1 0x40 PUSH0 KECCAK256 SLOAD AND PUSH1 0x40 MLOAD SWAP1 ISZERO ISZERO DUP2 MSTORE RETURN JUMPDEST POP CALLVALUE PUSH2 0x215 JUMPI PUSH1 0x60 CALLDATASIZE PUSH1 0x3 NOT ADD SLT PUSH2 0x215 JUMPI PUSH1 0x4 CALLDATALOAD PUSH2 0x316 PUSH2 0x232F JUMP JUMPDEST PUSH1 0x44 CALLDATALOAD DUP1 ISZERO ISZERO SWAP2 DUP3 DUP3 SUB PUSH2 0x3AD JUMPI PUSH32 0x136602F218AE287F0D5B40C7312D717840E8F62069F115A3FD6A00BE6DE7645A SWAP3 PUSH2 0x395 PUSH1 0x40 SWAP4 PUSH2 0x368 PUSH2 0x358 DUP9 PUSH2 0x2ADB JUMP JUMPDEST PUSH1 0x1 PUSH1 0x1 PUSH1 0xA0 SHL SUB AND CALLER EQ PUSH2 0x2AA2 JUMP JUMPDEST DUP7 DUP9 MSTORE PUSH1 0xD PUSH1 0x20 MSTORE DUP5 DUP9 KECCAK256 PUSH1 0x1 DUP1 PUSH1 0xA0 SHL SUB DUP6 AND PUSH0 MSTORE PUSH1 0x20 MSTORE DUP5 PUSH0 KECCAK256 SWAP1 PUSH1 0xFF DUP1 NOT DUP4 SLOAD AND SWAP2 ISZERO ISZERO AND OR SWAP1 SSTORE JUMP JUMPDEST DUP3 MLOAD PUSH1 0x1 PUSH1 0x1 PUSH1 0xA0 SHL SUB SWAP1 SWAP3 AND DUP3 MSTORE PUSH1 0x20 DUP3 ADD MSTORE LOG2 DUP1 RETURN JUMPDEST PUSH0 DUP1 REVERT JUMPDEST POP CALLVALUE PUSH2 0x215 JUMPI DUP1 PUSH1 0x3 NOT CALLDATASIZE ADD SLT PUSH2 0x215 JUMPI PUSH1 0xE SLOAD PUSH1 0x40 MLOAD PUSH1 0x1 PUSH1 0x1 PUSH1 0xA0 SHL SUB SWAP1 SWAP2 AND DUP2 MSTORE PUSH1 0x20 SWAP1 RETURN JUMPDEST POP CALLVALUE PUSH2 0x215 JUMPI PUSH1 0x20 CALLDATASIZE PUSH1 0x3 NOT ADD SLT PUSH2 0x215 JUMPI PUSH2 0x3F7 PUSH1 0x4 CALLDATALOAD PUSH2 0x2ADB JUMP JUMPDEST POP DUP1 PUSH1 0x40 MLOAD PUSH2 0x407 PUSH1 0x20 DUP3 PUSH2 0x23E7 JUMP JUMPDEST MSTORE POP PUSH2 0x431 PUSH1 0x40 MLOAD PUSH2 0x41A PUSH1 0x20 DUP3 PUSH2 0x23E7 JUMP JUMPDEST PUSH0 DUP2 MSTORE PUSH1 0x40 MLOAD SWAP2 DUP3 SWAP2 PUSH1 0x20 DUP4 MSTORE PUSH1 0x20 DUP4 ADD SWAP1 PUSH2 0x22F5 JUMP JUMPDEST SUB SWAP1 RETURN JUMPDEST POP CALLVALUE PUSH2 0x215 JUMPI PUSH2 0x444 CALLDATASIZE PUSH2 0x24D5 JUMP JUMPDEST SWAP3 SWAP2 SWAP1 PUSH2 0x453 PUSH2 0x358 DUP4 PUSH2 0x2ADB JUMP JUMPDEST DUP2 DUP4 MSTORE PUSH1 0xC PUSH1 0x20 MSTORE PUSH1 0x5 PUSH1 0x40 DUP5 KECCAK256 ADD SWAP4 PUSH1 0x1 PUSH1 0x1 PUSH1 0x40 SHL SUB DUP2 GT PUSH2 0x584 JUMPI PUSH2 0x485 DUP2 PUSH2 0x47F DUP8 SLOAD PUSH2 0x237F JUMP JUMPDEST DUP8 PUSH2 0x2953 JUMP JUMPDEST DUP4 SWAP5 PUSH1 0x1F DUP3 GT PUSH1 0x1 EQ PUSH2 0x500 JUMPI PUSH2 0x4D5 DUP3 DUP1 DUP8 SWAP9 PUSH32 0xF3CB9E4896730A0E19D942B5A7560134BFCC3761DB7CB21E08E683FDC6F613F7 SWAP8 SWAP9 SWAP2 PUSH2 0x4F5 JUMPI JUMPDEST POP DUP2 PUSH1 0x1 SHL SWAP2 PUSH0 NOT SWAP1 PUSH1 0x3 SHL SHR NOT AND OR SWAP1 JUMP JUMPDEST SWAP1 SSTORE JUMPDEST PUSH2 0x4EF PUSH1 0x40 MLOAD SWAP3 DUP4 SWAP3 PUSH1 0x20 DUP5 MSTORE PUSH1 0x20 DUP5 ADD SWAP2 PUSH2 0x2A82 JUMP JUMPDEST SUB SWAP1 LOG2 DUP1 RETURN JUMPDEST SWAP1 POP DUP6 ADD CALLDATALOAD PUSH0 PUSH2 0x4C2 JUMP JUMPDEST DUP1 DUP6 MSTORE PUSH1 0x20 DUP6 KECCAK256 SWAP6 PUSH1 0x1F NOT DUP4 AND DUP7 JUMPDEST DUP2 DUP2 LT PUSH2 0x56C JUMPI POP SWAP1 DUP4 PUSH32 0xF3CB9E4896730A0E19D942B5A7560134BFCC3761DB7CB21E08E683FDC6F613F7 SWAP7 SWAP8 SWAP9 SWAP3 LT PUSH2 0x553 JUMPI JUMPDEST POP POP PUSH1 0x1 DUP3 DUP2 SHL ADD SWAP1 SSTORE PUSH2 0x4D8 JUMP JUMPDEST DUP5 ADD CALLDATALOAD PUSH0 NOT PUSH1 0x3 DUP6 SWAP1 SHL PUSH1 0xF8 AND SHR NOT AND SWAP1 SSTORE PUSH0 DUP1 PUSH2 0x544 JUMP JUMPDEST DUP6 DUP4 ADD CALLDATALOAD DUP10 SSTORE PUSH1 0x1 SWAP1 SWAP9 ADD SWAP8 PUSH1 0x20 SWAP3 DUP4 ADD SWAP3 ADD PUSH2 0x50F JUMP JUMPDEST PUSH4 0x4E487B71 PUSH1 0xE0 SHL DUP5 MSTORE PUSH1 0x41 PUSH1 0x4 MSTORE PUSH1 0x24 DUP5 REVERT JUMPDEST POP CALLVALUE PUSH2 0x215 JUMPI DUP1 PUSH1 0x3 NOT CALLDATASIZE ADD SLT PUSH2 0x215 JUMPI PUSH1 0xF SLOAD PUSH1 0x40 MLOAD PUSH1 0x1 PUSH1 0x1 PUSH1 0xA0 SHL SUB SWAP1 SWAP2 AND DUP2 MSTORE PUSH1 0x20 SWAP1 RETURN JUMPDEST POP CALLVALUE PUSH2 0x215 JUMPI PUSH1 0x80 CALLDATASIZE PUSH1 0x3 NOT ADD SLT PUSH2 0x215 JUMPI PUSH2 0x5DB PUSH2 0x2319 JUMP JUMPDEST PUSH2 0x5E3 PUSH2 0x232F JUMP JUMPDEST SWAP1 PUSH1 0x44 CALLDATALOAD PUSH1 0x64 CALLDATALOAD SWAP3 PUSH1 0x1 PUSH1 0x1 PUSH1 0x40 SHL SUB DUP5 GT PUSH2 0x630 JUMPI CALLDATASIZE PUSH1 0x23 DUP6 ADD SLT ISZERO PUSH2 0x630 JUMPI PUSH2 0x61B PUSH2 0x62D SWAP5 CALLDATASIZE SWAP1 PUSH1 0x24 DUP2 PUSH1 0x4 ADD CALLDATALOAD SWAP2 ADD PUSH2 0x2523 JUMP JUMPDEST SWAP3 PUSH2 0x627 DUP4 DUP4 DUP4 PUSH2 0x2559 JUMP JUMPDEST CALLER PUSH2 0x2E7E JUMP JUMPDEST DUP1 RETURN JUMPDEST DUP5 DUP1 REVERT JUMPDEST POP CALLVALUE PUSH2 0x215 JUMPI PUSH1 0x40 CALLDATASIZE PUSH1 0x3 NOT ADD SLT PUSH2 0x215 JUMPI PUSH1 0x40 PUSH2 0x650 PUSH2 0x232F JUMP JUMPDEST SWAP2 PUSH1 0x4 CALLDATALOAD DUP2 MSTORE PUSH1 0xD PUSH1 0x20 MSTORE KECCAK256 SWAP1 PUSH1 0x1 DUP1 PUSH1 0xA0 SHL SUB AND PUSH0 MSTORE PUSH1 0x20 MSTORE PUSH1 0x20 PUSH1 0xFF PUSH1 0x40 PUSH0 KECCAK256 SLOAD AND PUSH1 0x40 MLOAD SWAP1 ISZERO ISZERO DUP2 MSTORE RETURN JUMPDEST POP CALLVALUE PUSH2 0x215 JUMPI PUSH1 0xC0 CALLDATASIZE PUSH1 0x3 NOT ADD SLT PUSH2 0x215 JUMPI PUSH1 0x4 CALLDATALOAD PUSH1 0x1 PUSH1 0x1 PUSH1 0x40 SHL SUB DUP2 GT PUSH2 0xBE4 JUMPI PUSH2 0x6AF SWAP1 CALLDATASIZE SWAP1 PUSH1 0x4 ADD PUSH2 0x24A8 JUMP JUMPDEST PUSH1 0x24 CALLDATALOAD SWAP3 PUSH1 0x44 CALLDATALOAD SWAP2 PUSH1 0x64 CALLDATALOAD PUSH1 0x84 CALLDATALOAD DUP1 ISZERO ISZERO DUP1 SWAP2 SUB PUSH2 0xBE0 JUMPI PUSH1 0xA4 CALLDATALOAD PUSH1 0x1 PUSH1 0x1 PUSH1 0x40 SHL SUB DUP2 GT PUSH2 0x630 JUMPI PUSH2 0x6E6 SWAP1 CALLDATASIZE SWAP1 PUSH1 0x4 ADD PUSH2 0x24A8 JUMP JUMPDEST SWAP2 SWAP1 SWAP3 DUP9 ISZERO PUSH2 0xBA2 JUMPI DUP7 ISZERO ISZERO DUP1 PUSH2 0xB96 JUMPI JUMPDEST ISZERO PUSH2 0xB5A JUMPI PUSH2 0x2710 DUP2 LT PUSH2 0xB1C JUMPI PUSH1 0xB SLOAD SWAP7 PUSH2 0x713 DUP9 PUSH2 0x28DB JUMP JUMPDEST PUSH1 0xB SSTORE PUSH2 0x720 DUP9 CALLER PUSH2 0x2B5A JUMP JUMPDEST PUSH1 0x40 MLOAD SWAP10 PUSH2 0x72D DUP12 PUSH2 0x23B7 JUMP JUMPDEST PUSH2 0x738 CALLDATASIZE DUP9 DUP13 PUSH2 0x2523 JUMP JUMPDEST DUP12 MSTORE PUSH1 0x20 DUP12 ADD MSTORE PUSH1 0x40 DUP11 ADD MSTORE PUSH1 0x60 DUP10 ADD MSTORE PUSH1 0x80 DUP9 ADD MSTORE PUSH2 0x759 CALLDATASIZE DUP3 DUP5 PUSH2 0x2523 JUMP JUMPDEST PUSH1 0xA0 DUP9 ADD MSTORE PUSH1 0x20 SWAP6 PUSH1 0x40 MLOAD PUSH2 0x76E DUP9 DUP3 PUSH2 0x23E7 JUMP JUMPDEST DUP6 DUP2 MSTORE PUSH1 0xC0 DUP10 ADD MSTORE DUP5 PUSH1 0xE0 DUP10 ADD MSTORE DUP5 PUSH2 0x100 DUP10 ADD MSTORE DUP5 PUSH2 0x120 DUP10 ADD MSTORE DUP5 PUSH2 0x140 DUP10 ADD MSTORE DUP5 PUSH2 0x160 DUP10 ADD MSTORE TIMESTAMP PUSH2 0x180 DUP10 ADD MSTORE DUP6 DUP6 MSTORE PUSH1 0xC DUP8 MSTORE PUSH1 0x40 DUP6 KECCAK256 DUP9 MLOAD DUP1 MLOAD SWAP1 PUSH1 0x1 PUSH1 0x1 PUSH1 0x40 SHL SUB DUP3 GT PUSH2 0xA34 JUMPI PUSH2 0x7D1 DUP3 PUSH2 0x7CB DUP6 SLOAD PUSH2 0x237F JUMP JUMPDEST DUP6 PUSH2 0x2953 JUMP JUMPDEST DUP10 SWAP1 PUSH1 0x1F DUP4 GT PUSH1 0x1 EQ PUSH2 0xAB5 JUMPI PUSH2 0x7FF SWAP3 SWAP2 DUP10 SWAP2 DUP4 PUSH2 0x99A JUMPI JUMPDEST POP POP DUP2 PUSH1 0x1 SHL SWAP2 PUSH0 NOT SWAP1 PUSH1 0x3 SHL SHR NOT AND OR SWAP1 JUMP JUMPDEST DUP2 SSTORE JUMPDEST PUSH1 0x20 DUP10 ADD MLOAD PUSH1 0x1 DUP3 ADD SSTORE PUSH1 0x40 DUP10 ADD MLOAD PUSH1 0x2 DUP3 ADD SSTORE PUSH1 0x60 DUP10 ADD MLOAD PUSH1 0x3 DUP3 ADD SSTORE PUSH2 0x83F PUSH1 0x80 DUP11 ADD MLOAD ISZERO ISZERO PUSH1 0x4 DUP4 ADD SWAP1 PUSH1 0xFF DUP1 NOT DUP4 SLOAD AND SWAP2 ISZERO ISZERO AND OR SWAP1 SSTORE JUMP JUMPDEST PUSH1 0xA0 DUP10 ADD MLOAD DUP1 MLOAD SWAP1 PUSH1 0x1 PUSH1 0x1 PUSH1 0x40 SHL SUB DUP3 GT PUSH2 0xA34 JUMPI PUSH2 0x86F DUP3 PUSH2 0x866 PUSH1 0x5 DUP7 ADD SLOAD PUSH2 0x237F JUMP JUMPDEST PUSH1 0x5 DUP7 ADD PUSH2 0x2953 JUMP JUMPDEST DUP10 SWAP1 PUSH1 0x1F DUP4 GT PUSH1 0x1 EQ PUSH2 0xA48 JUMPI PUSH2 0x89C SWAP3 SWAP2 DUP10 SWAP2 DUP4 PUSH2 0x99A JUMPI POP POP DUP2 PUSH1 0x1 SHL SWAP2 PUSH0 NOT SWAP1 PUSH1 0x3 SHL SHR NOT AND OR SWAP1 JUMP JUMPDEST PUSH1 0x5 DUP3 ADD SSTORE JUMPDEST PUSH1 0xC0 DUP10 ADD MLOAD SWAP9 DUP10 MLOAD PUSH1 0x1 PUSH1 0x1 PUSH1 0x40 SHL SUB DUP2 GT PUSH2 0xA34 JUMPI DUP9 SWAP10 SWAP11 PUSH2 0x8D8 DUP3 PUSH2 0x8CF PUSH1 0x6 DUP8 SWAP14 SWAP13 SWAP14 ADD SLOAD PUSH2 0x237F JUMP JUMPDEST PUSH1 0x6 DUP8 ADD PUSH2 0x2953 JUMP JUMPDEST DUP12 SWAP1 DUP11 PUSH1 0x1F DUP5 GT PUSH1 0x1 EQ PUSH2 0x9A5 JUMPI PUSH2 0x979 SWAP5 PUSH2 0x926 DUP6 PUSH0 MLOAD PUSH1 0x20 PUSH2 0x2FA3 PUSH0 CODECOPY PUSH0 MLOAD SWAP1 PUSH0 MSTORE SWAP13 SWAP12 SWAP10 SWAP7 PUSH2 0x986 SWAP12 SWAP10 SWAP7 PUSH1 0xC SWAP7 PUSH2 0x180 SWAP7 SWAP3 PUSH2 0x99A JUMPI POP POP DUP2 PUSH1 0x1 SHL SWAP2 PUSH0 NOT SWAP1 PUSH1 0x3 SHL SHR NOT AND OR SWAP1 JUMP JUMPDEST PUSH1 0x6 DUP6 ADD SSTORE JUMPDEST PUSH1 0xE0 DUP2 ADD MLOAD PUSH1 0x7 DUP6 ADD SSTORE PUSH2 0x100 DUP2 ADD MLOAD PUSH1 0x8 DUP6 ADD SSTORE PUSH2 0x120 DUP2 ADD MLOAD PUSH1 0x9 DUP6 ADD SSTORE PUSH2 0x140 DUP2 ADD MLOAD PUSH1 0xA DUP6 ADD SSTORE PUSH2 0x160 DUP2 ADD MLOAD PUSH1 0xB DUP6 ADD SSTORE ADD MLOAD SWAP2 ADD SSTORE PUSH1 0x40 MLOAD SWAP6 PUSH1 0x60 DUP8 MSTORE PUSH1 0x60 DUP8 ADD SWAP2 PUSH2 0x2A82 JUMP JUMPDEST SWAP2 DUP5 DUP4 SUB DUP11 DUP7 ADD MSTORE PUSH2 0x2A82 JUMP JUMPDEST SWAP4 PUSH1 0x40 DUP3 ADD MSTORE DUP1 CALLER SWAP5 SUB SWAP1 LOG3 PUSH1 0x40 MLOAD SWAP1 DUP2 MSTORE RETURN JUMPDEST ADD MLOAD SWAP1 POP PUSH0 DUP1 PUSH2 0x7EB JUMP JUMPDEST POP PUSH1 0x6 DUP6 ADD DUP12 MSTORE DUP13 DUP12 KECCAK256 SWAP2 SWAP1 DUP12 DUP15 JUMPDEST PUSH1 0x1F NOT DUP7 AND DUP3 LT PUSH2 0xA1A JUMPI POP POP PUSH2 0x979 SWAP5 PUSH1 0x1 DUP6 PUSH2 0x986 SWAP11 SWAP9 SWAP6 PUSH1 0xC SWAP6 PUSH2 0x180 SWAP6 PUSH0 MLOAD PUSH1 0x20 PUSH2 0x2FA3 PUSH0 CODECOPY PUSH0 MLOAD SWAP1 PUSH0 MSTORE SWAP16 SWAP15 SWAP13 SWAP10 PUSH1 0x1F NOT DUP2 AND LT PUSH2 0xA02 JUMPI JUMPDEST POP POP POP DUP2 SHL ADD PUSH1 0x6 DUP6 ADD SSTORE PUSH2 0x92C JUMP JUMPDEST ADD MLOAD PUSH0 NOT PUSH1 0xF8 DUP5 PUSH1 0x3 SHL AND SHR NOT AND SWAP1 SSTORE PUSH0 DUP1 DUP1 PUSH2 0x9F2 JUMP JUMPDEST DUP4 DUP4 ADD MLOAD DUP6 SSTORE DUP15 SWAP13 POP PUSH1 0x1 SWAP1 SWAP5 ADD SWAP4 SWAP3 DUP4 ADD SWAP3 ADD DUP15 PUSH2 0x9B4 JUMP JUMPDEST PUSH4 0x4E487B71 PUSH1 0xE0 SHL DUP9 MSTORE PUSH1 0x41 PUSH1 0x4 MSTORE PUSH1 0x24 DUP9 REVERT JUMPDEST SWAP2 SWAP1 PUSH1 0x5 DUP5 ADD DUP10 MSTORE DUP11 DUP10 KECCAK256 SWAP1 DUP10 SWAP4 JUMPDEST DUP13 PUSH1 0x1F NOT DUP6 AND DUP7 LT PUSH2 0xA9C JUMPI POP PUSH1 0x1 SWAP5 POP DUP4 PUSH1 0x1F NOT DUP2 AND LT PUSH2 0xA84 JUMPI JUMPDEST POP POP POP DUP2 SHL ADD PUSH1 0x5 DUP3 ADD SSTORE PUSH2 0x8A2 JUMP JUMPDEST ADD MLOAD PUSH0 NOT PUSH1 0xF8 DUP5 PUSH1 0x3 SHL AND SHR NOT AND SWAP1 SSTORE PUSH0 DUP1 DUP1 PUSH2 0xA74 JUMP JUMPDEST DUP3 DUP3 ADD MLOAD DUP5 SSTORE SWAP5 DUP6 ADD SWAP5 PUSH1 0x1 SWAP1 SWAP4 ADD SWAP3 SWAP1 SWAP2 ADD SWAP1 PUSH2 0xA57 JUMP JUMPDEST SWAP2 SWAP1 DUP4 DUP10 MSTORE DUP11 DUP10 KECCAK256 SWAP1 DUP10 SWAP4 JUMPDEST DUP13 PUSH1 0x1F NOT DUP6 AND DUP7 LT PUSH2 0xB03 JUMPI POP PUSH1 0x1 SWAP5 POP DUP4 PUSH1 0x1F NOT DUP2 AND LT PUSH2 0xAEB JUMPI JUMPDEST POP POP POP DUP2 SHL ADD DUP2 SSTORE PUSH2 0x802 JUMP JUMPDEST ADD MLOAD PUSH0 NOT PUSH1 0xF8 DUP5 PUSH1 0x3 SHL AND SHR NOT AND SWAP1 SSTORE PUSH0 DUP1 DUP1 PUSH2 0xADE JUMP JUMPDEST DUP3 DUP3 ADD MLOAD DUP5 SSTORE SWAP5 DUP6 ADD SWAP5 PUSH1 0x1 SWAP1 SWAP4 ADD SWAP3 SWAP1 SWAP2 ADD SWAP1 PUSH2 0xAC1 JUMP JUMPDEST PUSH1 0x40 MLOAD PUSH3 0x461BCD PUSH1 0xE5 SHL DUP2 MSTORE PUSH1 0x20 PUSH1 0x4 DUP3 ADD MSTORE PUSH1 0x16 PUSH1 0x24 DUP3 ADD MSTORE PUSH22 0xE6C2CCCAE8F240DAEAE6E840C4CA407C7A40625C60F PUSH1 0x53 SHL PUSH1 0x44 DUP3 ADD MSTORE PUSH1 0x64 SWAP1 REVERT JUMPDEST PUSH1 0x40 MLOAD PUSH3 0x461BCD PUSH1 0xE5 SHL DUP2 MSTORE PUSH1 0x20 PUSH1 0x4 DUP3 ADD MSTORE PUSH1 0x14 PUSH1 0x24 DUP3 ADD MSTORE PUSH20 0x696E76616C696420686F6C64696E672064617973 PUSH1 0x60 SHL PUSH1 0x44 DUP3 ADD MSTORE PUSH1 0x64 SWAP1 REVERT JUMPDEST POP PUSH2 0x16D DUP8 GT ISZERO PUSH2 0x6F8 JUMP JUMPDEST PUSH1 0x40 MLOAD PUSH3 0x461BCD PUSH1 0xE5 SHL DUP2 MSTORE PUSH1 0x20 PUSH1 0x4 DUP3 ADD MSTORE PUSH1 0x16 PUSH1 0x24 DUP3 ADD MSTORE PUSH22 0x64656C7461206D75737420626520706F736974697665 PUSH1 0x50 SHL PUSH1 0x44 DUP3 ADD MSTORE PUSH1 0x64 SWAP1 REVERT JUMPDEST DUP4 DUP1 REVERT JUMPDEST POP DUP1 REVERT JUMPDEST POP CALLVALUE PUSH2 0x215 JUMPI PUSH1 0x40 CALLDATASIZE PUSH1 0x3 NOT ADD SLT PUSH2 0x215 JUMPI PUSH2 0xC02 PUSH2 0x2319 JUMP JUMPDEST PUSH1 0x24 CALLDATALOAD SWAP1 DUP2 ISZERO ISZERO SWAP1 DUP2 DUP4 SUB PUSH2 0xBE0 JUMPI CALLER ISZERO PUSH2 0xC95 JUMPI PUSH1 0x1 PUSH1 0x1 PUSH1 0xA0 SHL SUB AND SWAP2 DUP3 ISZERO PUSH2 0xC81 JUMPI PUSH2 0xC52 SWAP1 CALLER DUP6 MSTORE PUSH1 0x5 PUSH1 0x20 MSTORE PUSH1 0x40 DUP6 KECCAK256 DUP5 PUSH0 MSTORE PUSH1 0x20 MSTORE PUSH1 0x40 PUSH0 KECCAK256 SWAP1 PUSH1 0xFF DUP1 NOT DUP4 SLOAD AND SWAP2 ISZERO ISZERO AND OR SWAP1 SSTORE JUMP JUMPDEST PUSH1 0x40 MLOAD SWAP1 DUP2 MSTORE PUSH32 0x17307EAB39AB6107E8899845AD3D59BD9653F200F220920489CA2B5937696C31 PUSH1 0x20 CALLER SWAP3 LOG3 DUP1 RETURN JUMPDEST PUSH4 0xB611743 PUSH1 0xE3 SHL DUP5 MSTORE PUSH1 0x4 DUP4 SWAP1 MSTORE PUSH1 0x24 DUP5 REVERT JUMPDEST PUSH4 0xA9FBF51F PUSH1 0xE0 SHL DUP5 MSTORE PUSH1 0x4 DUP5 SWAP1 MSTORE PUSH1 0x24 DUP5 REVERT JUMPDEST POP CALLVALUE PUSH2 0x215 JUMPI DUP1 PUSH1 0x3 NOT CALLDATASIZE ADD SLT PUSH2 0x215 JUMPI PUSH1 0x40 MLOAD SWAP1 DUP1 PUSH1 0x1 SLOAD SWAP1 PUSH2 0xCCC DUP3 PUSH2 0x237F JUMP JUMPDEST DUP1 DUP6 MSTORE SWAP2 PUSH1 0x1 DUP2 AND SWAP1 DUP2 ISZERO PUSH2 0xD65 JUMPI POP PUSH1 0x1 EQ PUSH2 0xD08 JUMPI JUMPDEST PUSH2 0x431 DUP5 PUSH2 0xCF4 DUP2 DUP7 SUB DUP3 PUSH2 0x23E7 JUMP JUMPDEST PUSH1 0x40 MLOAD SWAP2 DUP3 SWAP2 PUSH1 0x20 DUP4 MSTORE PUSH1 0x20 DUP4 ADD SWAP1 PUSH2 0x22F5 JUMP JUMPDEST PUSH1 0x1 DUP2 MSTORE PUSH32 0xB10E2D527612073B26EECDFD717E6A320CF44B4AFAC2B0732D9FCBE2B7FA0CF6 SWAP4 SWAP3 POP SWAP1 JUMPDEST DUP1 DUP3 LT PUSH2 0xD4B JUMPI POP SWAP1 SWAP2 POP DUP2 ADD PUSH1 0x20 ADD PUSH2 0xCF4 DUP3 PUSH2 0xCE4 JUMP JUMPDEST SWAP2 SWAP3 PUSH1 0x1 DUP2 PUSH1 0x20 SWAP3 SLOAD DUP4 DUP6 DUP9 ADD ADD MSTORE ADD SWAP2 ADD SWAP1 SWAP3 SWAP2 PUSH2 0xD32 JUMP JUMPDEST PUSH1 0xFF NOT AND PUSH1 0x20 DUP1 DUP8 ADD SWAP2 SWAP1 SWAP2 MSTORE SWAP3 ISZERO ISZERO PUSH1 0x5 SHL DUP6 ADD SWAP1 SWAP3 ADD SWAP3 POP PUSH2 0xCF4 SWAP2 POP DUP4 SWAP1 POP PUSH2 0xCE4 JUMP JUMPDEST POP CALLVALUE PUSH2 0x215 JUMPI DUP1 PUSH1 0x3 NOT CALLDATASIZE ADD SLT PUSH2 0x215 JUMPI PUSH1 0xA SLOAD PUSH1 0x40 MLOAD PUSH1 0x1 PUSH1 0x1 PUSH1 0xA0 SHL SUB SWAP1 SWAP2 AND DUP2 MSTORE PUSH1 0x20 SWAP1 RETURN JUMPDEST POP CALLVALUE PUSH2 0x215 JUMPI PUSH1 0x20 CALLDATASIZE PUSH1 0x3 NOT ADD SLT PUSH2 0x215 JUMPI PUSH1 0x4 CALLDATALOAD PUSH0 SWAP1 DUP2 MSTORE PUSH1 0x2 PUSH1 0x20 MSTORE PUSH1 0x40 SWAP1 KECCAK256 SLOAD PUSH1 0x1 PUSH1 0x1 PUSH1 0xA0 SHL SUB AND ISZERO PUSH2 0x1450 JUMPI PUSH1 0x4 CALLDATALOAD DUP2 MSTORE PUSH1 0xC PUSH1 0x20 MSTORE PUSH1 0x40 DUP2 KECCAK256 PUSH1 0xE SLOAD PUSH1 0x1 PUSH1 0x1 PUSH1 0xA0 SHL SUB AND ISZERO ISZERO DUP1 PUSH2 0x1445 JUMPI JUMPDEST PUSH2 0x124B JUMPI JUMPDEST PUSH1 0xB SLOAD SWAP1 PUSH2 0xE1A DUP3 PUSH2 0x28DB JUMP JUMPDEST PUSH1 0xB SSTORE PUSH2 0xE27 DUP3 CALLER PUSH2 0x2B5A JUMP JUMPDEST PUSH1 0x40 MLOAD SWAP3 PUSH2 0xE58 PUSH1 0x5 DUP6 PUSH2 0xE3E PUSH1 0x20 DUP3 ADD DUP7 PUSH2 0x28E9 JUMP JUMPDEST PUSH5 0x2D666F726B PUSH1 0xD8 SHL DUP2 MSTORE SUB PUSH1 0x1A NOT DUP2 ADD DUP8 MSTORE ADD DUP6 PUSH2 0x23E7 JUMP JUMPDEST PUSH1 0x1 DUP3 ADD SLOAD PUSH1 0x2 DUP4 ADD SLOAD PUSH1 0x3 DUP5 ADD SLOAD SWAP1 PUSH1 0xFF PUSH1 0x4 DUP7 ADD SLOAD AND SWAP3 PUSH1 0x40 MLOAD SWAP8 PUSH2 0xE7E DUP10 PUSH2 0x23B7 JUMP JUMPDEST DUP9 MSTORE PUSH1 0x20 DUP9 ADD MSTORE PUSH1 0x40 DUP8 ADD MSTORE PUSH1 0x60 DUP7 ADD MSTORE ISZERO ISZERO PUSH1 0x80 DUP6 ADD MSTORE PUSH2 0xEA2 PUSH1 0x5 DUP4 ADD PUSH2 0x2408 JUMP JUMPDEST PUSH1 0xA0 DUP6 ADD MSTORE PUSH1 0x40 MLOAD PUSH1 0x20 SWAP5 PUSH2 0xEB7 DUP7 DUP4 PUSH2 0x23E7 JUMP JUMPDEST DUP3 DUP3 MSTORE PUSH1 0xC0 DUP2 ADD SWAP2 DUP3 MSTORE DUP3 PUSH1 0xE0 DUP3 ADD MSTORE DUP3 PUSH2 0x100 DUP3 ADD MSTORE DUP3 PUSH2 0x120 DUP3 ADD MSTORE PUSH1 0x4 CALLDATALOAD PUSH2 0x140 DUP3 ADD MSTORE DUP3 PUSH2 0x160 DUP3 ADD MSTORE TIMESTAMP PUSH2 0x180 DUP3 ADD MSTORE DUP5 DUP4 MSTORE PUSH1 0xC DUP7 MSTORE PUSH1 0x40 DUP4 KECCAK256 SWAP2 DUP2 MLOAD DUP1 MLOAD SWAP1 PUSH1 0x1 PUSH1 0x1 PUSH1 0x40 SHL SUB DUP3 GT PUSH2 0x11D0 JUMPI PUSH2 0xF19 DUP3 PUSH2 0x47F DUP8 SLOAD PUSH2 0x237F JUMP JUMPDEST DUP9 SWAP1 PUSH1 0x1F DUP4 GT PUSH1 0x1 EQ PUSH2 0x11E4 JUMPI PUSH2 0xF46 SWAP3 SWAP2 DUP8 SWAP2 DUP4 PUSH2 0x99A JUMPI POP POP DUP2 PUSH1 0x1 SHL SWAP2 PUSH0 NOT SWAP1 PUSH1 0x3 SHL SHR NOT AND OR SWAP1 JUMP JUMPDEST DUP4 SSTORE JUMPDEST PUSH1 0x20 DUP3 ADD MLOAD PUSH1 0x1 DUP5 ADD SSTORE PUSH1 0x40 DUP3 ADD MLOAD PUSH1 0x2 DUP5 ADD SSTORE PUSH1 0x60 DUP3 ADD MLOAD PUSH1 0x3 DUP5 ADD SSTORE PUSH2 0xF86 PUSH1 0x80 DUP4 ADD MLOAD ISZERO ISZERO PUSH1 0x4 DUP6 ADD SWAP1 PUSH1 0xFF DUP1 NOT DUP4 SLOAD AND SWAP2 ISZERO ISZERO AND OR SWAP1 SSTORE JUMP JUMPDEST PUSH1 0xA0 DUP3 ADD MLOAD DUP1 MLOAD SWAP1 PUSH1 0x1 PUSH1 0x1 PUSH1 0x40 SHL SUB DUP3 GT PUSH2 0x11D0 JUMPI PUSH2 0xFB6 DUP3 PUSH2 0xFAD PUSH1 0x5 DUP9 ADD SLOAD PUSH2 0x237F JUMP JUMPDEST PUSH1 0x5 DUP9 ADD PUSH2 0x2953 JUMP JUMPDEST DUP9 SWAP1 PUSH1 0x1F DUP4 GT PUSH1 0x1 EQ PUSH2 0x1163 JUMPI PUSH2 0xFE3 SWAP3 SWAP2 DUP8 SWAP2 DUP4 PUSH2 0x99A JUMPI POP POP DUP2 PUSH1 0x1 SHL SWAP2 PUSH0 NOT SWAP1 PUSH1 0x3 SHL SHR NOT AND OR SWAP1 JUMP JUMPDEST PUSH1 0x5 DUP5 ADD SSTORE JUMPDEST MLOAD DUP1 MLOAD SWAP1 PUSH1 0x1 PUSH1 0x1 PUSH1 0x40 SHL SUB DUP3 GT PUSH2 0x114F JUMPI SWAP1 DUP4 SWAP3 SWAP2 PUSH2 0x1012 DUP3 PUSH2 0x8CF PUSH1 0x6 DUP12 SWAP10 SWAP9 ADD SLOAD PUSH2 0x237F JUMP JUMPDEST DUP9 SWAP1 PUSH1 0x1F DUP4 GT PUSH1 0x1 EQ PUSH2 0x10C6 JUMPI PUSH2 0x180 PUSH1 0x40 SWAP5 PUSH2 0x105B DUP6 DUP10 SWAP7 PUSH2 0x10BB SWAP10 SWAP7 PUSH1 0xC SWAP7 PUSH0 MLOAD PUSH1 0x20 PUSH2 0x2FA3 PUSH0 CODECOPY PUSH0 MLOAD SWAP1 PUSH0 MSTORE SWAP13 SWAP3 PUSH2 0x99A JUMPI POP POP DUP2 PUSH1 0x1 SHL SWAP2 PUSH0 NOT SWAP1 PUSH1 0x3 SHL SHR NOT AND OR SWAP1 JUMP JUMPDEST PUSH1 0x6 DUP6 ADD SSTORE JUMPDEST PUSH1 0xE0 DUP2 ADD MLOAD PUSH1 0x7 DUP6 ADD SSTORE PUSH2 0x100 DUP2 ADD MLOAD PUSH1 0x8 DUP6 ADD SSTORE PUSH2 0x120 DUP2 ADD MLOAD PUSH1 0x9 DUP6 ADD SSTORE PUSH2 0x140 DUP2 ADD MLOAD PUSH1 0xA DUP6 ADD SSTORE PUSH2 0x160 DUP2 ADD MLOAD PUSH1 0xB DUP6 ADD SSTORE ADD MLOAD SWAP2 ADD SSTORE DUP5 DUP2 MSTORE PUSH1 0xC DUP9 MSTORE KECCAK256 SWAP4 PUSH1 0x40 MLOAD SWAP2 DUP3 SWAP2 CALLER SWAP7 PUSH1 0x5 PUSH1 0x4 CALLDATALOAD SWAP3 ADD SWAP1 DUP5 PUSH2 0x2A23 JUMP JUMPDEST SUB SWAP1 LOG3 PUSH1 0x40 MLOAD SWAP1 DUP2 MSTORE RETURN JUMPDEST SWAP1 PUSH1 0x6 DUP6 ADD DUP7 MSTORE DUP10 DUP7 KECCAK256 SWAP2 DUP7 JUMPDEST DUP12 PUSH1 0x1F NOT DUP7 AND DUP3 LT PUSH2 0x1136 JUMPI POP POP PUSH1 0x40 SWAP5 PUSH1 0x1 DUP6 PUSH2 0x10BB SWAP9 SWAP6 PUSH1 0xC SWAP6 PUSH2 0x180 SWAP6 PUSH0 MLOAD PUSH1 0x20 PUSH2 0x2FA3 PUSH0 CODECOPY PUSH0 MLOAD SWAP1 PUSH0 MSTORE SWAP13 SWAP10 PUSH1 0x1F NOT DUP2 AND LT PUSH2 0x111E JUMPI JUMPDEST POP POP POP DUP2 SHL ADD PUSH1 0x6 DUP6 ADD SSTORE PUSH2 0x1061 JUMP JUMPDEST ADD MLOAD PUSH0 NOT PUSH1 0xF8 DUP5 PUSH1 0x3 SHL AND SHR NOT AND SWAP1 SSTORE PUSH0 DUP1 DUP1 PUSH2 0x110E JUMP JUMPDEST DUP4 DUP4 ADD MLOAD DUP6 SSTORE DUP12 SWAP10 POP PUSH1 0x1 SWAP1 SWAP5 ADD SWAP4 SWAP3 DUP4 ADD SWAP3 ADD PUSH2 0x10D3 JUMP JUMPDEST PUSH4 0x4E487B71 PUSH1 0xE0 SHL DUP6 MSTORE PUSH1 0x41 PUSH1 0x4 MSTORE PUSH1 0x24 DUP6 REVERT JUMPDEST SWAP2 SWAP1 PUSH1 0x5 DUP7 ADD DUP8 MSTORE DUP10 DUP8 KECCAK256 SWAP1 DUP8 SWAP4 JUMPDEST DUP12 PUSH1 0x1F NOT DUP6 AND DUP7 LT PUSH2 0x11B7 JUMPI POP PUSH1 0x1 SWAP5 POP DUP4 PUSH1 0x1F NOT DUP2 AND LT PUSH2 0x119F JUMPI JUMPDEST POP POP POP DUP2 SHL ADD PUSH1 0x5 DUP5 ADD SSTORE PUSH2 0xFE9 JUMP JUMPDEST ADD MLOAD PUSH0 NOT PUSH1 0xF8 DUP5 PUSH1 0x3 SHL AND SHR NOT AND SWAP1 SSTORE PUSH0 DUP1 DUP1 PUSH2 0x118F JUMP JUMPDEST DUP3 DUP3 ADD MLOAD DUP5 SSTORE SWAP5 DUP6 ADD SWAP5 PUSH1 0x1 SWAP1 SWAP4 ADD SWAP3 SWAP1 SWAP2 ADD SWAP1 PUSH2 0x1172 JUMP JUMPDEST PUSH4 0x4E487B71 PUSH1 0xE0 SHL DUP7 MSTORE PUSH1 0x41 PUSH1 0x4 MSTORE PUSH1 0x24 DUP7 REVERT JUMPDEST SWAP2 SWAP1 DUP6 DUP8 MSTORE DUP10 DUP8 KECCAK256 SWAP1 DUP8 SWAP4 JUMPDEST DUP12 PUSH1 0x1F NOT DUP6 AND DUP7 LT PUSH2 0x1232 JUMPI POP PUSH1 0x1 SWAP5 POP DUP4 PUSH1 0x1F NOT DUP2 AND LT PUSH2 0x121A JUMPI JUMPDEST POP POP POP DUP2 SHL ADD DUP4 SSTORE PUSH2 0xF49 JUMP JUMPDEST ADD MLOAD PUSH0 NOT PUSH1 0xF8 DUP5 PUSH1 0x3 SHL AND SHR NOT AND SWAP1 SSTORE PUSH0 DUP1 DUP1 PUSH2 0x120D JUMP JUMPDEST DUP3 DUP3 ADD MLOAD DUP5 SSTORE SWAP5 DUP6 ADD SWAP5 PUSH1 0x1 SWAP1 SWAP4 ADD SWAP3 SWAP1 SWAP2 ADD SWAP1 PUSH2 0x11F0 JUMP JUMPDEST PUSH1 0xF SLOAD PUSH1 0x10 SLOAD PUSH1 0x40 MLOAD PUSH4 0x23B872DD PUSH1 0xE0 SHL DUP2 MSTORE CALLER PUSH1 0x4 DUP3 ADD MSTORE ADDRESS PUSH1 0x24 DUP3 ADD MSTORE PUSH1 0x44 DUP2 ADD SWAP2 SWAP1 SWAP2 MSTORE SWAP1 PUSH1 0x20 SWAP1 DUP3 SWAP1 PUSH1 0x64 SWAP1 DUP3 SWAP1 DUP8 SWAP1 PUSH1 0x1 PUSH1 0x1 PUSH1 0xA0 SHL SUB AND GAS CALL SWAP1 DUP2 ISZERO PUSH2 0x13D6 JUMPI DUP4 SWAP2 PUSH2 0x1426 JUMPI JUMPDEST POP ISZERO PUSH2 0x13E1 JUMPI PUSH1 0xF SLOAD PUSH1 0xE SLOAD PUSH1 0x10 SLOAD PUSH1 0x40 MLOAD PUSH4 0x95EA7B3 PUSH1 0xE0 SHL DUP2 MSTORE PUSH1 0x1 PUSH1 0x1 PUSH1 0xA0 SHL SUB SWAP3 DUP4 AND PUSH1 0x4 DUP3 ADD MSTORE PUSH1 0x24 DUP2 ADD SWAP2 SWAP1 SWAP2 MSTORE SWAP2 PUSH1 0x20 SWAP2 DUP4 SWAP2 PUSH1 0x44 SWAP2 DUP4 SWAP2 DUP9 SWAP2 AND GAS CALL DUP1 ISZERO PUSH2 0x13D6 JUMPI PUSH2 0x12F3 SWAP2 DUP5 SWAP2 PUSH2 0x13A7 JUMPI JUMPDEST POP PUSH2 0x289A JUMP JUMPDEST PUSH1 0xE SLOAD PUSH1 0x10 SLOAD DUP4 SWAP2 PUSH1 0x1 PUSH1 0x1 PUSH1 0xA0 SHL SUB AND SWAP1 DUP2 EXTCODESIZE ISZERO PUSH2 0x13A3 JUMPI DUP3 SWAP2 PUSH1 0x44 DUP4 SWAP3 PUSH1 0x40 MLOAD SWAP5 DUP6 SWAP4 DUP5 SWAP3 PUSH4 0x2257C3FB PUSH1 0xE1 SHL DUP5 MSTORE PUSH1 0x4 CALLDATALOAD PUSH1 0x4 DUP6 ADD MSTORE PUSH1 0x24 DUP5 ADD MSTORE GAS CALL DUP1 ISZERO PUSH2 0x1398 JUMPI PUSH2 0x1383 JUMPI JUMPDEST POP POP PUSH1 0xB SLOAD PUSH1 0x10 SLOAD PUSH1 0x40 DUP1 MLOAD CALLER DUP2 MSTORE PUSH1 0x20 DUP2 ADD SWAP3 SWAP1 SWAP3 MSTORE PUSH1 0x4 CALLDATALOAD SWAP3 SWAP2 PUSH32 0xBCD1D4AF7E4C571A4D8268D7E23682D7D43F965DE90FF3CE10D0E99ADFC6C48B SWAP2 SWAP1 LOG3 PUSH2 0xE0D JUMP JUMPDEST DUP2 PUSH2 0x138D SWAP2 PUSH2 0x23E7 JUMP JUMPDEST PUSH2 0xBE4 JUMPI DUP2 PUSH0 PUSH2 0x133E JUMP JUMPDEST PUSH1 0x40 MLOAD RETURNDATASIZE DUP5 DUP3 RETURNDATACOPY RETURNDATASIZE SWAP1 REVERT JUMPDEST DUP3 DUP1 REVERT JUMPDEST PUSH2 0x13C9 SWAP2 POP PUSH1 0x20 RETURNDATASIZE PUSH1 0x20 GT PUSH2 0x13CF JUMPI JUMPDEST PUSH2 0x13C1 DUP2 DUP4 PUSH2 0x23E7 JUMP JUMPDEST DUP2 ADD SWAP1 PUSH2 0x2882 JUMP JUMPDEST PUSH0 PUSH2 0x12ED JUMP JUMPDEST POP RETURNDATASIZE PUSH2 0x13B7 JUMP JUMPDEST PUSH1 0x40 MLOAD RETURNDATASIZE DUP6 DUP3 RETURNDATACOPY RETURNDATASIZE SWAP1 REVERT JUMPDEST PUSH1 0x40 MLOAD PUSH3 0x461BCD PUSH1 0xE5 SHL DUP2 MSTORE PUSH1 0x20 PUSH1 0x4 DUP3 ADD MSTORE PUSH1 0x1D PUSH1 0x24 DUP3 ADD MSTORE PUSH32 0x636C6F6E6520666565207472616E7366657246726F6D206661696C6564000000 PUSH1 0x44 DUP3 ADD MSTORE PUSH1 0x64 SWAP1 REVERT JUMPDEST PUSH2 0x143F SWAP2 POP PUSH1 0x20 RETURNDATASIZE PUSH1 0x20 GT PUSH2 0x13CF JUMPI PUSH2 0x13C1 DUP2 DUP4 PUSH2 0x23E7 JUMP JUMPDEST PUSH0 PUSH2 0x1298 JUMP JUMPDEST POP PUSH1 0x10 SLOAD ISZERO ISZERO PUSH2 0xE08 JUMP JUMPDEST PUSH1 0x40 MLOAD PUSH3 0x461BCD PUSH1 0xE5 SHL DUP2 MSTORE PUSH1 0x20 PUSH1 0x4 DUP3 ADD MSTORE PUSH1 0xE PUSH1 0x24 DUP3 ADD MSTORE PUSH14 0x736F75726365206D697373696E67 PUSH1 0x90 SHL PUSH1 0x44 DUP3 ADD MSTORE PUSH1 0x64 SWAP1 REVERT JUMPDEST POP CALLVALUE PUSH2 0x215 JUMPI PUSH2 0x1495 CALLDATASIZE PUSH2 0x24D5 JUMP JUMPDEST SWAP3 SWAP2 SWAP1 PUSH2 0x14AA PUSH2 0x14A5 CALLER DUP5 PUSH2 0x2B0F JUMP JUMPDEST PUSH2 0x280C JUMP JUMPDEST DUP2 DUP4 MSTORE PUSH1 0xC PUSH1 0x20 MSTORE PUSH1 0x6 PUSH1 0x40 DUP5 KECCAK256 ADD SWAP4 PUSH1 0x1 PUSH1 0x1 PUSH1 0x40 SHL SUB DUP2 GT PUSH2 0x584 JUMPI PUSH2 0x14D6 DUP2 PUSH2 0x47F DUP8 SLOAD PUSH2 0x237F JUMP JUMPDEST DUP4 SWAP5 PUSH1 0x1F DUP3 GT PUSH1 0x1 EQ PUSH2 0x1525 JUMPI PUSH2 0x4D5 DUP3 DUP1 DUP8 SWAP9 PUSH32 0x4EDFF0078F9C3828D1C82175891B64029EC7DC2BAC5ECB6577C95C1B6435E4B8 SWAP8 SWAP9 SWAP2 PUSH2 0x4F5 JUMPI POP DUP2 PUSH1 0x1 SHL SWAP2 PUSH0 NOT SWAP1 PUSH1 0x3 SHL SHR NOT AND OR SWAP1 JUMP JUMPDEST DUP1 DUP6 MSTORE PUSH1 0x20 DUP6 KECCAK256 SWAP6 PUSH1 0x1F NOT DUP4 AND DUP7 JUMPDEST DUP2 DUP2 LT PUSH2 0x1577 JUMPI POP SWAP1 DUP4 PUSH32 0x4EDFF0078F9C3828D1C82175891B64029EC7DC2BAC5ECB6577C95C1B6435E4B8 SWAP7 SWAP8 SWAP9 SWAP3 LT PUSH2 0x553 JUMPI POP POP PUSH1 0x1 DUP3 DUP2 SHL ADD SWAP1 SSTORE PUSH2 0x4D8 JUMP JUMPDEST DUP6 DUP4 ADD CALLDATALOAD DUP10 SSTORE PUSH1 0x1 SWAP1 SWAP9 ADD SWAP8 PUSH1 0x20 SWAP3 DUP4 ADD SWAP3 ADD PUSH2 0x1534 JUMP JUMPDEST POP CALLVALUE PUSH2 0x215 JUMPI DUP1 PUSH1 0x3 NOT CALLDATASIZE ADD SLT PUSH2 0x215 JUMPI PUSH2 0x15A8 PUSH2 0x2E57 JUMP JUMPDEST PUSH1 0xA DUP1 SLOAD PUSH1 0x1 PUSH1 0x1 PUSH1 0xA0 SHL SUB NOT DUP2 AND SWAP1 SWAP2 SSTORE DUP2 SWAP1 PUSH1 0x1 PUSH1 0x1 PUSH1 0xA0 SHL SUB AND PUSH32 0x8BE0079C531659141344CD1FD0A4F28419497F9722A3DAAFE3B4186F6B6457E0 DUP3 DUP1 LOG3 DUP1 RETURN JUMPDEST POP CALLVALUE PUSH2 0x215 JUMPI PUSH1 0x20 CALLDATASIZE PUSH1 0x3 NOT ADD SLT PUSH2 0x215 JUMPI PUSH1 0x20 PUSH2 0x1610 PUSH2 0x160B PUSH2 0x2319 JUMP JUMPDEST PUSH2 0x2A51 JUMP JUMPDEST PUSH1 0x40 MLOAD SWAP1 DUP2 MSTORE RETURN JUMPDEST POP CALLVALUE PUSH2 0x215 JUMPI PUSH1 0x20 CALLDATASIZE PUSH1 0x3 NOT ADD SLT PUSH2 0x215 JUMPI PUSH1 0x20 PUSH2 0x1637 PUSH1 0x4 CALLDATALOAD PUSH2 0x2ADB JUMP JUMPDEST PUSH1 0x40 MLOAD PUSH1 0x1 PUSH1 0x1 PUSH1 0xA0 SHL SUB SWAP1 SWAP2 AND DUP2 MSTORE RETURN JUMPDEST POP CALLVALUE PUSH2 0x215 JUMPI DUP1 PUSH1 0x3 NOT CALLDATASIZE ADD SLT PUSH2 0x215 JUMPI PUSH1 0x20 PUSH1 0x10 SLOAD PUSH1 0x40 MLOAD SWAP1 DUP2 MSTORE RETURN JUMPDEST POP CALLVALUE PUSH2 0x215 JUMPI PUSH1 0x20 CALLDATASIZE PUSH1 0x3 NOT ADD SLT PUSH2 0x215 JUMPI PUSH1 0x4 CALLDATALOAD DUP2 MSTORE PUSH1 0xC PUSH1 0x20 MSTORE PUSH1 0x40 SWAP1 KECCAK256 PUSH2 0x1690 DUP2 PUSH2 0x2408 JUMP JUMPDEST PUSH1 0x1 DUP3 ADD SLOAD SWAP1 PUSH1 0x2 DUP4 ADD SLOAD SWAP3 PUSH1 0x3 DUP2 ADD SLOAD SWAP1 PUSH1 0x4 DUP2 ADD SLOAD PUSH1 0xFF AND PUSH1 0x5 DUP3 ADD PUSH2 0x16B7 SWAP1 PUSH2 0x2408 JUMP JUMPDEST SWAP4 PUSH2 0x16C4 PUSH1 0x6 DUP5 ADD PUSH2 0x2408 JUMP JUMPDEST SWAP5 PUSH1 0x7 DUP5 ADD SLOAD SWAP6 PUSH1 0x8 DUP6 ADD SLOAD SWAP2 PUSH1 0x9 DUP7 ADD SLOAD SWAP4 PUSH1 0xA DUP8 ADD SLOAD SWAP6 PUSH1 0xB DUP9 ADD SLOAD SWAP8 PUSH1 0xC ADD SLOAD SWAP9 PUSH1 0x40 MLOAD SWAP13 DUP14 SWAP13 DUP14 SWAP5 PUSH2 0x1A0 DUP7 MSTORE PUSH2 0x1A0 DUP7 ADD PUSH2 0x1703 SWAP2 PUSH2 0x22F5 JUMP JUMPDEST SWAP5 PUSH1 0x20 ADD MSTORE PUSH1 0x40 DUP14 ADD MSTORE PUSH1 0x60 DUP13 ADD MSTORE ISZERO ISZERO PUSH1 0x80 DUP12 ADD MSTORE DUP10 DUP2 SUB PUSH1 0xA0 DUP12 ADD MSTORE PUSH2 0x172A SWAP2 PUSH2 0x22F5 JUMP JUMPDEST DUP9 DUP2 SUB PUSH1 0xC0 DUP11 ADD MSTORE PUSH2 0x173B SWAP2 PUSH2 0x22F5 JUMP JUMPDEST SWAP6 PUSH1 0xE0 DUP9 ADD MSTORE PUSH2 0x100 DUP8 ADD MSTORE PUSH2 0x120 DUP7 ADD MSTORE PUSH2 0x140 DUP6 ADD MSTORE PUSH2 0x160 DUP5 ADD MSTORE PUSH2 0x180 DUP4 ADD MSTORE SUB SWAP1 RETURN JUMPDEST POP CALLVALUE PUSH2 0x3AD JUMPI PUSH1 0x40 CALLDATASIZE PUSH1 0x3 NOT ADD SLT PUSH2 0x3AD JUMPI PUSH1 0x4 CALLDATALOAD PUSH0 SWAP1 DUP2 MSTORE PUSH1 0x2 PUSH1 0x20 MSTORE PUSH1 0x40 SWAP1 KECCAK256 SLOAD PUSH1 0x1 PUSH1 0x1 PUSH1 0xA0 SHL SUB AND ISZERO ISZERO DUP1 PUSH2 0x1E28 JUMPI JUMPDEST ISZERO PUSH2 0x1DF2 JUMPI PUSH1 0x24 CALLDATALOAD PUSH1 0x4 CALLDATALOAD EQ PUSH2 0x1DC0 JUMPI PUSH1 0xE SLOAD PUSH1 0x1 PUSH1 0x1 PUSH1 0xA0 SHL SUB AND ISZERO ISZERO DUP1 PUSH2 0x1DB5 JUMPI JUMPDEST PUSH2 0x1C01 JUMPI JUMPDEST PUSH1 0x4 CALLDATALOAD DUP2 MSTORE PUSH1 0xC PUSH1 0x20 MSTORE PUSH1 0x40 DUP2 KECCAK256 SWAP1 PUSH1 0x24 CALLDATALOAD DUP2 MSTORE PUSH1 0xC PUSH1 0x20 MSTORE PUSH1 0x40 DUP2 KECCAK256 SWAP2 PUSH1 0xB SLOAD SWAP2 PUSH2 0x17EB DUP4 PUSH2 0x28DB JUMP JUMPDEST PUSH1 0xB SSTORE PUSH2 0x17F8 DUP4 CALLER PUSH2 0x2B5A JUMP JUMPDEST PUSH1 0x40 MLOAD SWAP4 PUSH2 0x182E DUP6 PUSH2 0x1820 PUSH1 0x1 PUSH2 0x1812 PUSH1 0x20 DUP5 ADD DUP9 PUSH2 0x28E9 JUMP JUMPDEST PUSH1 0x2B PUSH1 0xF8 SHL DUP2 MSTORE ADD DUP5 PUSH2 0x28E9 JUMP JUMPDEST SUB PUSH1 0x1F NOT DUP2 ADD DUP8 MSTORE DUP7 PUSH2 0x23E7 JUMP JUMPDEST PUSH2 0x1841 PUSH1 0x1 DUP5 ADD SLOAD PUSH1 0x1 DUP4 ADD SLOAD SWAP1 PUSH2 0x2849 JUMP JUMPDEST PUSH1 0x1 SHR PUSH2 0x1857 PUSH1 0x2 DUP6 ADD SLOAD PUSH1 0x2 DUP5 ADD SLOAD SWAP1 PUSH2 0x2849 JUMP JUMPDEST PUSH1 0x1 SHR PUSH2 0x186D PUSH1 0x3 DUP7 ADD SLOAD PUSH1 0x3 DUP6 ADD SLOAD SWAP1 PUSH2 0x2849 JUMP JUMPDEST PUSH1 0x1 SHR SWAP2 PUSH1 0xFF PUSH1 0x4 DUP8 ADD SLOAD AND SWAP4 DUP5 ISZERO PUSH2 0x1BF2 JUMPI JUMPDEST POP PUSH1 0x40 MLOAD SWAP8 PUSH2 0x188F DUP10 PUSH2 0x23B7 JUMP JUMPDEST DUP9 MSTORE PUSH1 0x20 DUP9 ADD MSTORE PUSH1 0x40 DUP8 ADD MSTORE PUSH1 0x60 DUP7 ADD MSTORE ISZERO ISZERO PUSH1 0x80 DUP6 ADD MSTORE PUSH2 0x18B3 PUSH1 0x5 DUP4 ADD PUSH2 0x2408 JUMP JUMPDEST PUSH1 0xA0 DUP6 ADD MSTORE PUSH1 0x20 SWAP4 PUSH1 0x40 MLOAD PUSH2 0x18C8 DUP7 DUP3 PUSH2 0x23E7 JUMP JUMPDEST DUP3 DUP2 MSTORE PUSH1 0xC0 DUP3 ADD MSTORE DUP2 PUSH1 0xE0 DUP3 ADD MSTORE DUP2 PUSH2 0x100 DUP3 ADD MSTORE DUP2 PUSH2 0x120 DUP3 ADD MSTORE PUSH1 0x4 CALLDATALOAD PUSH2 0x140 DUP3 ADD MSTORE PUSH1 0x24 CALLDATALOAD PUSH2 0x160 DUP3 ADD MSTORE TIMESTAMP PUSH2 0x180 DUP3 ADD MSTORE DUP4 DUP3 MSTORE PUSH1 0xC DUP6 MSTORE PUSH1 0x40 DUP3 KECCAK256 SWAP1 DUP1 MLOAD DUP1 MLOAD SWAP1 PUSH1 0x1 PUSH1 0x1 PUSH1 0x40 SHL SUB DUP3 GT PUSH2 0x114F JUMPI PUSH2 0x1930 DUP3 PUSH2 0x192A DUP7 SLOAD PUSH2 0x237F JUMP JUMPDEST DUP7 PUSH2 0x2953 JUMP JUMPDEST DUP8 SWAP1 PUSH1 0x1F DUP4 GT PUSH1 0x1 EQ PUSH2 0x1B8B JUMPI PUSH2 0x195D SWAP3 SWAP2 DUP7 SWAP2 DUP4 PUSH2 0x99A JUMPI POP POP DUP2 PUSH1 0x1 SHL SWAP2 PUSH0 NOT SWAP1 PUSH1 0x3 SHL SHR NOT AND OR SWAP1 JUMP JUMPDEST DUP3 SSTORE JUMPDEST PUSH1 0x20 DUP2 ADD MLOAD PUSH1 0x1 DUP4 ADD SSTORE PUSH1 0x40 DUP2 ADD MLOAD PUSH1 0x2 DUP4 ADD SSTORE PUSH1 0x60 DUP2 ADD MLOAD PUSH1 0x3 DUP4 ADD SSTORE PUSH2 0x199D PUSH1 0x80 DUP3 ADD MLOAD ISZERO ISZERO PUSH1 0x4 DUP5 ADD SWAP1 PUSH1 0xFF DUP1 NOT DUP4 SLOAD AND SWAP2 ISZERO ISZERO AND OR SWAP1 SSTORE JUMP JUMPDEST PUSH1 0xA0 DUP2 ADD MLOAD DUP1 MLOAD SWAP1 PUSH1 0x1 PUSH1 0x1 PUSH1 0x40 SHL SUB DUP3 GT PUSH2 0x114F JUMPI PUSH2 0x19CD DUP3 PUSH2 0x19C4 PUSH1 0x5 DUP8 ADD SLOAD PUSH2 0x237F JUMP JUMPDEST PUSH1 0x5 DUP8 ADD PUSH2 0x2953 JUMP JUMPDEST DUP8 SWAP1 PUSH1 0x1F DUP4 GT PUSH1 0x1 EQ PUSH2 0x1B23 JUMPI PUSH2 0x19FA SWAP3 SWAP2 DUP7 SWAP2 DUP4 PUSH2 0x99A JUMPI POP POP DUP2 PUSH1 0x1 SHL SWAP2 PUSH0 NOT SWAP1 PUSH1 0x3 SHL SHR NOT AND OR SWAP1 JUMP JUMPDEST PUSH1 0x5 DUP4 ADD SSTORE JUMPDEST PUSH1 0xC0 DUP2 ADD MLOAD DUP1 MLOAD SWAP1 PUSH1 0x1 PUSH1 0x1 PUSH1 0x40 SHL SUB DUP3 GT PUSH2 0x114F JUMPI SWAP1 DUP4 SWAP3 SWAP2 PUSH2 0x1A2D DUP3 PUSH2 0x8CF PUSH1 0x6 DUP12 SWAP10 SWAP9 ADD SLOAD PUSH2 0x237F JUMP JUMPDEST DUP9 SWAP1 PUSH1 0x1F DUP4 GT PUSH1 0x1 EQ PUSH2 0x1AB3 JUMPI PUSH2 0x180 PUSH1 0x40 SWAP5 PUSH2 0x105B DUP6 DUP10 SWAP7 PUSH2 0x1A76 SWAP10 SWAP7 PUSH1 0xC SWAP7 PUSH0 MLOAD PUSH1 0x20 PUSH2 0x2FA3 PUSH0 CODECOPY PUSH0 MLOAD SWAP1 PUSH0 MSTORE SWAP13 SWAP3 PUSH2 0x99A JUMPI POP POP DUP2 PUSH1 0x1 SHL SWAP2 PUSH0 NOT SWAP1 PUSH1 0x3 SHL SHR NOT AND OR SWAP1 JUMP JUMPDEST SUB SWAP1 LOG3 PUSH1 0x40 MLOAD CALLER DUP2 MSTORE PUSH1 0x24 CALLDATALOAD SWAP1 DUP3 PUSH32 0xC21894CA054BDB6B6F667367C0787C77ACFCCE5CD16FB6C4920E74D5A5C7FDD4 DUP6 PUSH1 0x4 CALLDATALOAD SWAP4 LOG4 PUSH1 0x40 MLOAD SWAP1 DUP2 MSTORE RETURN JUMPDEST SWAP1 PUSH1 0x6 DUP6 ADD DUP7 MSTORE DUP10 DUP7 KECCAK256 SWAP2 DUP7 JUMPDEST DUP12 PUSH1 0x1F NOT DUP7 AND DUP3 LT PUSH2 0x1B0A JUMPI POP POP PUSH1 0x40 SWAP5 PUSH1 0x1 DUP6 PUSH2 0x1A76 SWAP9 SWAP6 PUSH1 0xC SWAP6 PUSH2 0x180 SWAP6 PUSH0 MLOAD PUSH1 0x20 PUSH2 0x2FA3 PUSH0 CODECOPY PUSH0 MLOAD SWAP1 PUSH0 MSTORE SWAP13 SWAP10 PUSH1 0x1F NOT DUP2 AND LT PUSH2 0x111E JUMPI POP POP POP DUP2 SHL ADD PUSH1 0x6 DUP6 ADD SSTORE PUSH2 0x1061 JUMP JUMPDEST DUP4 DUP4 ADD MLOAD DUP6 SSTORE DUP12 SWAP10 POP PUSH1 0x1 SWAP1 SWAP5 ADD SWAP4 SWAP3 DUP4 ADD SWAP3 ADD PUSH2 0x1AC0 JUMP JUMPDEST PUSH1 0x5 DUP6 ADD DUP7 MSTORE DUP9 DUP7 KECCAK256 SWAP2 SWAP1 PUSH1 0x1F NOT DUP5 AND DUP8 JUMPDEST DUP12 DUP3 DUP3 LT PUSH2 0x1B75 JUMPI POP POP SWAP1 DUP5 PUSH1 0x1 SWAP6 SWAP5 SWAP4 SWAP3 LT PUSH2 0x1B5D JUMPI JUMPDEST POP POP POP DUP2 SHL ADD PUSH1 0x5 DUP4 ADD SSTORE PUSH2 0x1A00 JUMP JUMPDEST ADD MLOAD PUSH0 NOT PUSH1 0xF8 DUP5 PUSH1 0x3 SHL AND SHR NOT AND SWAP1 SSTORE PUSH0 DUP1 DUP1 PUSH2 0x1B4D JUMP JUMPDEST PUSH1 0x1 DUP6 SWAP7 DUP3 SWAP4 SWAP7 DUP7 ADD MLOAD DUP2 SSTORE ADD SWAP6 ADD SWAP4 ADD PUSH2 0x1B35 JUMP JUMPDEST SWAP2 SWAP1 DUP5 DUP7 MSTORE DUP9 DUP7 KECCAK256 SWAP1 DUP7 SWAP4 JUMPDEST DUP11 PUSH1 0x1F NOT DUP6 AND DUP7 LT PUSH2 0x1BD9 JUMPI POP PUSH1 0x1 SWAP5 POP DUP4 PUSH1 0x1F NOT DUP2 AND LT PUSH2 0x1BC1 JUMPI JUMPDEST POP POP POP DUP2 SHL ADD DUP3 SSTORE PUSH2 0x1960 JUMP JUMPDEST ADD MLOAD PUSH0 NOT PUSH1 0xF8 DUP5 PUSH1 0x3 SHL AND SHR NOT AND SWAP1 SSTORE PUSH0 DUP1 DUP1 PUSH2 0x1BB4 JUMP JUMPDEST DUP3 DUP3 ADD MLOAD DUP5 SSTORE SWAP5 DUP6 ADD SWAP5 PUSH1 0x1 SWAP1 SWAP4 ADD SWAP3 SWAP1 SWAP2 ADD SWAP1 PUSH2 0x1B97 JUMP JUMPDEST PUSH1 0x4 ADD SLOAD PUSH1 0xFF AND SWAP4 POP PUSH0 PUSH2 0x1881 JUMP JUMPDEST PUSH1 0xF SLOAD PUSH1 0x10 SLOAD PUSH1 0x40 MLOAD PUSH4 0x23B872DD PUSH1 0xE0 SHL DUP2 MSTORE CALLER PUSH1 0x4 DUP3 ADD MSTORE ADDRESS PUSH1 0x24 DUP3 ADD MSTORE PUSH1 0x44 DUP2 ADD SWAP2 SWAP1 SWAP2 MSTORE SWAP1 PUSH1 0x20 SWAP1 DUP3 SWAP1 PUSH1 0x64 SWAP1 DUP3 SWAP1 PUSH0 SWAP1 PUSH1 0x1 PUSH1 0x1 PUSH1 0xA0 SHL SUB AND GAS CALL SWAP1 DUP2 ISZERO PUSH2 0x1D46 JUMPI PUSH0 SWAP2 PUSH2 0x1D96 JUMPI JUMPDEST POP ISZERO PUSH2 0x1D51 JUMPI PUSH1 0xF SLOAD PUSH1 0xE SLOAD PUSH1 0x10 SLOAD PUSH1 0x40 MLOAD PUSH4 0x95EA7B3 PUSH1 0xE0 SHL DUP2 MSTORE PUSH1 0x1 PUSH1 0x1 PUSH1 0xA0 SHL SUB SWAP3 DUP4 AND PUSH1 0x4 DUP3 ADD MSTORE PUSH1 0x24 DUP2 ADD SWAP2 SWAP1 SWAP2 MSTORE SWAP2 PUSH1 0x20 SWAP2 DUP4 SWAP2 PUSH1 0x44 SWAP2 DUP4 SWAP2 PUSH0 SWAP2 AND GAS CALL DUP1 ISZERO PUSH2 0x1D46 JUMPI PUSH2 0x1CA8 SWAP2 PUSH0 SWAP2 PUSH2 0x13A7 JUMPI POP PUSH2 0x289A JUMP JUMPDEST PUSH1 0x1 DUP1 PUSH1 0xA0 SHL SUB PUSH1 0xE SLOAD AND PUSH1 0x10 SLOAD DUP2 EXTCODESIZE ISZERO PUSH2 0x3AD JUMPI PUSH0 SWAP2 PUSH1 0x44 DUP4 SWAP3 PUSH1 0x40 MLOAD SWAP5 DUP6 SWAP4 DUP5 SWAP3 PUSH4 0x2257C3FB PUSH1 0xE1 SHL DUP5 MSTORE PUSH1 0x4 CALLDATALOAD PUSH1 0x4 DUP6 ADD MSTORE PUSH1 0x24 DUP5 ADD MSTORE GAS CALL DUP1 ISZERO PUSH2 0x1D46 JUMPI PUSH2 0x1D33 JUMPI JUMPDEST POP PUSH1 0xB SLOAD PUSH1 0x10 SLOAD PUSH1 0x40 DUP1 MLOAD CALLER DUP2 MSTORE PUSH1 0x20 DUP2 ADD SWAP3 SWAP1 SWAP3 MSTORE PUSH1 0x4 CALLDATALOAD SWAP3 SWAP2 PUSH32 0xBCD1D4AF7E4C571A4D8268D7E23682D7D43F965DE90FF3CE10D0E99ADFC6C48B SWAP2 SWAP1 LOG3 PUSH2 0x17C0 JUMP JUMPDEST PUSH2 0x1D3F SWAP2 POP PUSH0 SWAP1 PUSH2 0x23E7 JUMP JUMPDEST PUSH0 PUSH0 PUSH2 0x1CEF JUMP JUMPDEST PUSH1 0x40 MLOAD RETURNDATASIZE PUSH0 DUP3 RETURNDATACOPY RETURNDATASIZE SWAP1 REVERT JUMPDEST PUSH1 0x40 MLOAD PUSH3 0x461BCD PUSH1 0xE5 SHL DUP2 MSTORE PUSH1 0x20 PUSH1 0x4 DUP3 ADD MSTORE PUSH1 0x1D PUSH1 0x24 DUP3 ADD MSTORE PUSH32 0x6D6572676520666565207472616E7366657246726F6D206661696C6564000000 PUSH1 0x44 DUP3 ADD MSTORE PUSH1 0x64 SWAP1 REVERT JUMPDEST PUSH2 0x1DAF SWAP2 POP PUSH1 0x20 RETURNDATASIZE PUSH1 0x20 GT PUSH2 0x13CF JUMPI PUSH2 0x13C1 DUP2 DUP4 PUSH2 0x23E7 JUMP JUMPDEST PUSH0 PUSH2 0x1C4E JUMP JUMPDEST POP PUSH1 0x10 SLOAD ISZERO ISZERO PUSH2 0x17BB JUMP JUMPDEST PUSH1 0x40 MLOAD PUSH3 0x461BCD PUSH1 0xE5 SHL DUP2 MSTORE PUSH1 0x20 PUSH1 0x4 DUP3 ADD MSTORE PUSH1 0xA PUSH1 0x24 DUP3 ADD MSTORE PUSH10 0x73656C662D6D65726765 PUSH1 0xB0 SHL PUSH1 0x44 DUP3 ADD MSTORE PUSH1 0x64 SWAP1 REVERT JUMPDEST PUSH1 0x40 MLOAD PUSH3 0x461BCD PUSH1 0xE5 SHL DUP2 MSTORE PUSH1 0x20 PUSH1 0x4 DUP3 ADD MSTORE PUSH1 0xE PUSH1 0x24 DUP3 ADD MSTORE PUSH14 0x706172656E74206D697373696E67 PUSH1 0x90 SHL PUSH1 0x44 DUP3 ADD MSTORE PUSH1 0x64 SWAP1 REVERT JUMPDEST POP PUSH1 0x24 CALLDATALOAD PUSH0 SWAP1 DUP2 MSTORE PUSH1 0x2 PUSH1 0x20 MSTORE PUSH1 0x40 SWAP1 KECCAK256 SLOAD PUSH1 0x1 PUSH1 0x1 PUSH1 0xA0 SHL SUB AND ISZERO ISZERO PUSH2 0x1797 JUMP JUMPDEST CALLVALUE PUSH2 0x3AD JUMPI PUSH1 0x20 CALLDATASIZE PUSH1 0x3 NOT ADD SLT PUSH2 0x3AD JUMPI PUSH1 0x4 CALLDATALOAD PUSH1 0x8 SLOAD DUP2 LT ISZERO PUSH2 0x1E82 JUMPI PUSH2 0x1E73 PUSH1 0x20 SWAP2 PUSH2 0x2856 JUMP JUMPDEST SWAP1 SLOAD SWAP1 PUSH1 0x3 SHL SHR PUSH1 0x40 MLOAD SWAP1 DUP2 MSTORE RETURN JUMPDEST PUSH4 0x295F44F7 PUSH1 0xE2 SHL PUSH0 MSTORE PUSH0 PUSH1 0x4 MSTORE PUSH1 0x24 MSTORE PUSH1 0x44 PUSH0 REVERT JUMPDEST CALLVALUE PUSH2 0x3AD JUMPI PUSH2 0x1EC7 PUSH2 0x1EA9 CALLDATASIZE PUSH2 0x2345 JUMP JUMPDEST SWAP1 PUSH1 0x40 MLOAD SWAP3 PUSH2 0x1EB9 PUSH1 0x20 DUP6 PUSH2 0x23E7 JUMP JUMPDEST PUSH0 DUP5 MSTORE PUSH2 0x627 DUP4 DUP4 DUP4 PUSH2 0x2559 JUMP JUMPDEST STOP JUMPDEST CALLVALUE PUSH2 0x3AD JUMPI PUSH1 0x40 CALLDATASIZE PUSH1 0x3 NOT ADD SLT PUSH2 0x3AD JUMPI PUSH1 0x4 CALLDATALOAD PUSH1 0x24 CALLDATALOAD PUSH1 0xFF DUP2 AND DUP1 SWAP2 SUB PUSH2 0x3AD JUMPI PUSH2 0x1EF8 PUSH2 0x14A5 CALLER DUP5 PUSH2 0x2B0F JUMP JUMPDEST DUP2 PUSH0 MSTORE PUSH1 0xC PUSH1 0x20 MSTORE PUSH1 0x40 PUSH0 KECCAK256 PUSH1 0x7 DUP2 ADD SWAP2 DUP3 SLOAD PUSH1 0x1 DUP2 ADD DUP1 SWAP2 GT PUSH2 0x1F7B JUMPI DUP4 SSTORE PUSH1 0x1 DUP2 SUB PUSH2 0x1F8F JUMPI POP PUSH1 0x8 DUP2 ADD SWAP1 DUP2 SLOAD SWAP3 PUSH1 0x1 DUP5 ADD DUP1 SWAP5 GT PUSH2 0x1F7B JUMPI PUSH32 0x638D3FD664542ED46076162565DACEBA926B7E81DFF1A8EE8EBCA807C23B1016 SWAP4 PUSH1 0x60 SWAP4 SSTORE JUMPDEST SLOAD SWAP1 PUSH1 0x9 PUSH1 0x8 DUP3 ADD SLOAD SWAP2 ADD SLOAD SWAP1 PUSH1 0x40 MLOAD SWAP3 DUP4 MSTORE PUSH1 0x20 DUP4 ADD MSTORE PUSH1 0x40 DUP3 ADD MSTORE LOG2 STOP JUMPDEST PUSH4 0x4E487B71 PUSH1 0xE0 SHL PUSH0 MSTORE PUSH1 0x11 PUSH1 0x4 MSTORE PUSH1 0x24 PUSH0 REVERT JUMPDEST PUSH1 0x2 EQ PUSH2 0x1FC1 JUMPI JUMPDEST PUSH1 0x60 SWAP1 PUSH32 0x638D3FD664542ED46076162565DACEBA926B7E81DFF1A8EE8EBCA807C23B1016 SWAP3 PUSH2 0x1F5B JUMP JUMPDEST PUSH1 0x9 DUP2 ADD SWAP1 DUP2 SLOAD SWAP3 PUSH1 0x1 DUP5 ADD DUP1 SWAP5 GT PUSH2 0x1F7B JUMPI SWAP3 SWAP1 SWAP2 SSTORE PUSH2 0x1F97 JUMP JUMPDEST CALLVALUE PUSH2 0x3AD JUMPI PUSH1 0x40 CALLDATASIZE PUSH1 0x3 NOT ADD SLT PUSH2 0x3AD JUMPI PUSH2 0x1FF6 PUSH2 0x2319 JUMP JUMPDEST PUSH1 0x24 CALLDATALOAD SWAP1 PUSH2 0x2003 DUP2 PUSH2 0x2A51 JUMP JUMPDEST DUP3 LT ISZERO PUSH2 0x2032 JUMPI PUSH1 0x1 DUP1 PUSH1 0xA0 SHL SUB AND PUSH0 MSTORE PUSH1 0x6 PUSH1 0x20 MSTORE PUSH1 0x40 PUSH0 KECCAK256 SWAP1 PUSH0 MSTORE PUSH1 0x20 MSTORE PUSH1 0x20 PUSH1 0x40 PUSH0 KECCAK256 SLOAD PUSH1 0x40 MLOAD SWAP1 DUP2 MSTORE RETURN JUMPDEST PUSH4 0x295F44F7 PUSH1 0xE2 SHL PUSH0 MSTORE PUSH1 0x1 DUP1 PUSH1 0xA0 SHL SUB AND PUSH1 0x4 MSTORE PUSH1 0x24 MSTORE PUSH1 0x44 PUSH0 REVERT JUMPDEST CALLVALUE PUSH2 0x3AD JUMPI PUSH2 0x1EC7 PUSH2 0x2060 CALLDATASIZE PUSH2 0x2345 JUMP JUMPDEST SWAP2 PUSH2 0x2559 JUMP JUMPDEST CALLVALUE PUSH2 0x3AD JUMPI PUSH0 CALLDATASIZE PUSH1 0x3 NOT ADD SLT PUSH2 0x3AD JUMPI PUSH1 0x20 PUSH1 0x8 SLOAD PUSH1 0x40 MLOAD SWAP1 DUP2 MSTORE RETURN JUMPDEST CALLVALUE PUSH2 0x3AD JUMPI PUSH1 0x40 CALLDATASIZE PUSH1 0x3 NOT ADD SLT PUSH2 0x3AD JUMPI PUSH2 0x209C PUSH2 0x2319 JUMP JUMPDEST PUSH1 0x24 CALLDATALOAD PUSH2 0x20A8 DUP2 PUSH2 0x2ADB JUMP JUMPDEST CALLER ISZERO ISZERO DUP1 PUSH2 0x215A JUMPI JUMPDEST DUP1 PUSH2 0x212D JUMPI JUMPDEST PUSH2 0x211A JUMPI DUP2 SWAP1 PUSH1 0x1 PUSH1 0x1 PUSH1 0xA0 SHL SUB DUP5 DUP2 AND SWAP2 AND PUSH32 0x8C5BE1E5EBEC7D5BD14F71427D1E84F3DD0314C0F7B2291E5B200AC8C7C3B925 PUSH0 DUP1 LOG4 PUSH0 SWAP1 DUP2 MSTORE PUSH1 0x4 PUSH1 0x20 MSTORE PUSH1 0x40 SWAP1 KECCAK256 DUP1 SLOAD PUSH1 0x1 PUSH1 0x1 PUSH1 0xA0 SHL SUB NOT AND PUSH1 0x1 PUSH1 0x1 PUSH1 0xA0 SHL SUB SWAP1 SWAP3 AND SWAP2 SWAP1 SWAP2 OR SWAP1 SSTORE STOP JUMPDEST PUSH4 0xA9FBF51F PUSH1 0xE0 SHL PUSH0 MSTORE CALLER PUSH1 0x4 MSTORE PUSH1 0x24 PUSH0 REVERT JUMPDEST POP PUSH1 0x1 PUSH1 0x1 PUSH1 0xA0 SHL SUB DUP2 AND PUSH0 SWAP1 DUP2 MSTORE PUSH1 0x5 PUSH1 0x20 SWAP1 DUP2 MSTORE PUSH1 0x40 DUP1 DUP4 KECCAK256 CALLER DUP5 MSTORE SWAP1 SWAP2 MSTORE SWAP1 KECCAK256 SLOAD PUSH1 0xFF AND ISZERO PUSH2 0x20B7 JUMP JUMPDEST POP PUSH1 0x1 PUSH1 0x1 PUSH1 0xA0 SHL SUB DUP2 AND CALLER EQ ISZERO PUSH2 0x20B1 JUMP JUMPDEST CALLVALUE PUSH2 0x3AD JUMPI PUSH1 0x20 CALLDATASIZE PUSH1 0x3 NOT ADD SLT PUSH2 0x3AD JUMPI PUSH1 0x4 CALLDATALOAD PUSH2 0x218A DUP2 PUSH2 0x2ADB JUMP JUMPDEST POP PUSH0 MSTORE PUSH1 0x4 PUSH1 0x20 MSTORE PUSH1 0x20 PUSH1 0x1 DUP1 PUSH1 0xA0 SHL SUB PUSH1 0x40 PUSH0 KECCAK256 SLOAD AND PUSH1 0x40 MLOAD SWAP1 DUP2 MSTORE RETURN JUMPDEST CALLVALUE PUSH2 0x3AD JUMPI PUSH0 CALLDATASIZE PUSH1 0x3 NOT ADD SLT PUSH2 0x3AD JUMPI PUSH1 0x40 MLOAD PUSH0 PUSH0 SLOAD PUSH2 0x21C8 DUP2 PUSH2 0x237F JUMP JUMPDEST DUP1 DUP5 MSTORE SWAP1 PUSH1 0x1 DUP2 AND SWAP1 DUP2 ISZERO PUSH2 0x224C JUMPI POP PUSH1 0x1 EQ PUSH2 0x21F0 JUMPI JUMPDEST PUSH2 0x431 DUP4 PUSH2 0xCF4 DUP2 DUP6 SUB DUP3 PUSH2 0x23E7 JUMP JUMPDEST PUSH0 DUP1 DUP1 MSTORE PUSH32 0x290DECD9548B62A8D60345A988386FC84BA6BC95484008F6362F93160EF3E563 SWAP4 SWAP3 POP SWAP1 JUMPDEST DUP1 DUP3 LT PUSH2 0x2232 JUMPI POP SWAP1 SWAP2 POP DUP2 ADD PUSH1 0x20 ADD PUSH2 0xCF4 PUSH2 0x21E0 JUMP JUMPDEST SWAP2 SWAP3 PUSH1 0x1 DUP2 PUSH1 0x20 SWAP3 SLOAD DUP4 DUP6 DUP9 ADD ADD MSTORE ADD SWAP2 ADD SWAP1 SWAP3 SWAP2 PUSH2 0x221A JUMP JUMPDEST PUSH1 0xFF NOT AND PUSH1 0x20 DUP1 DUP7 ADD SWAP2 SWAP1 SWAP2 MSTORE SWAP2 ISZERO ISZERO PUSH1 0x5 SHL DUP5 ADD SWAP1 SWAP2 ADD SWAP2 POP PUSH2 0xCF4 SWAP1 POP PUSH2 0x21E0 JUMP JUMPDEST CALLVALUE PUSH2 0x3AD JUMPI PUSH1 0x20 CALLDATASIZE PUSH1 0x3 NOT ADD SLT PUSH2 0x3AD JUMPI PUSH1 0x4 CALLDATALOAD SWAP1 PUSH4 0xFFFFFFFF PUSH1 0xE0 SHL DUP3 AND DUP1 SWAP3 SUB PUSH2 0x3AD JUMPI PUSH1 0x20 SWAP2 PUSH4 0x780E9D63 PUSH1 0xE0 SHL DUP2 EQ SWAP1 DUP2 ISZERO PUSH2 0x22B2 JUMPI JUMPDEST POP ISZERO ISZERO DUP2 MSTORE RETURN JUMPDEST PUSH4 0x80AC58CD PUSH1 0xE0 SHL DUP2 EQ SWAP2 POP DUP2 ISZERO PUSH2 0x22E4 JUMPI JUMPDEST DUP2 ISZERO PUSH2 0x22D3 JUMPI JUMPDEST POP DUP4 PUSH2 0x22AB JUMP JUMPDEST PUSH4 0x1FFC9A7 PUSH1 0xE0 SHL EQ SWAP1 POP DUP4 PUSH2 0x22CC JUMP JUMPDEST PUSH4 0x5B5E139F PUSH1 0xE0 SHL DUP2 EQ SWAP2 POP PUSH2 0x22C5 JUMP JUMPDEST DUP1 MLOAD DUP1 DUP4 MSTORE PUSH1 0x20 SWAP3 SWAP2 DUP2 SWAP1 DUP5 ADD DUP5 DUP5 ADD MCOPY PUSH0 DUP3 DUP3 ADD DUP5 ADD MSTORE PUSH1 0x1F ADD PUSH1 0x1F NOT AND ADD ADD SWAP1 JUMP JUMPDEST PUSH1 0x4 CALLDATALOAD SWAP1 PUSH1 0x1 PUSH1 0x1 PUSH1 0xA0 SHL SUB DUP3 AND DUP3 SUB PUSH2 0x3AD JUMPI JUMP JUMPDEST PUSH1 0x24 CALLDATALOAD SWAP1 PUSH1 0x1 PUSH1 0x1 PUSH1 0xA0 SHL SUB DUP3 AND DUP3 SUB PUSH2 0x3AD JUMPI JUMP JUMPDEST PUSH1 0x60 SWAP1 PUSH1 0x3 NOT ADD SLT PUSH2 0x3AD JUMPI PUSH1 0x4 CALLDATALOAD PUSH1 0x1 PUSH1 0x1 PUSH1 0xA0 SHL SUB DUP2 AND DUP2 SUB PUSH2 0x3AD JUMPI SWAP1 PUSH1 0x24 CALLDATALOAD PUSH1 0x1 PUSH1 0x1 PUSH1 0xA0 SHL SUB DUP2 AND DUP2 SUB PUSH2 0x3AD JUMPI SWAP1 PUSH1 0x44 CALLDATALOAD SWAP1 JUMP JUMPDEST SWAP1 PUSH1 0x1 DUP3 DUP2 SHR SWAP3 AND DUP1 ISZERO PUSH2 0x23AD JUMPI JUMPDEST PUSH1 0x20 DUP4 LT EQ PUSH2 0x2399 JUMPI JUMP JUMPDEST PUSH4 0x4E487B71 PUSH1 0xE0 SHL PUSH0 MSTORE PUSH1 0x22 PUSH1 0x4 MSTORE PUSH1 0x24 PUSH0 REVERT JUMPDEST SWAP2 PUSH1 0x7F AND SWAP2 PUSH2 0x238E JUMP JUMPDEST PUSH2 0x1A0 DUP2 ADD SWAP1 DUP2 LT PUSH1 0x1 PUSH1 0x1 PUSH1 0x40 SHL SUB DUP3 GT OR PUSH2 0x23D3 JUMPI PUSH1 0x40 MSTORE JUMP JUMPDEST PUSH4 0x4E487B71 PUSH1 0xE0 SHL PUSH0 MSTORE PUSH1 0x41 PUSH1 0x4 MSTORE PUSH1 0x24 PUSH0 REVERT JUMPDEST SWAP1 PUSH1 0x1F DUP1 NOT SWAP2 ADD AND DUP2 ADD SWAP1 DUP2 LT PUSH1 0x1 PUSH1 0x1 PUSH1 0x40 SHL SUB DUP3 GT OR PUSH2 0x23D3 JUMPI PUSH1 0x40 MSTORE JUMP JUMPDEST SWAP1 PUSH1 0x40 MLOAD SWAP2 DUP3 PUSH0 DUP3 SLOAD SWAP3 PUSH2 0x241B DUP5 PUSH2 0x237F JUMP JUMPDEST DUP1 DUP5 MSTORE SWAP4 PUSH1 0x1 DUP2 AND SWAP1 DUP2 ISZERO PUSH2 0x2486 JUMPI POP PUSH1 0x1 EQ PUSH2 0x2442 JUMPI JUMPDEST POP PUSH2 0x2440 SWAP3 POP SUB DUP4 PUSH2 0x23E7 JUMP JUMPDEST JUMP JUMPDEST SWAP1 POP PUSH0 SWAP3 SWAP2 SWAP3 MSTORE PUSH1 0x20 PUSH0 KECCAK256 SWAP1 PUSH0 SWAP2 JUMPDEST DUP2 DUP4 LT PUSH2 0x246A JUMPI POP POP SWAP1 PUSH1 0x20 PUSH2 0x2440 SWAP3 DUP3 ADD ADD PUSH0 PUSH2 0x2433 JUMP JUMPDEST PUSH1 0x20 SWAP2 SWAP4 POP DUP1 PUSH1 0x1 SWAP2 SLOAD DUP4 DUP6 DUP10 ADD ADD MSTORE ADD SWAP2 ADD SWAP1 SWAP2 DUP5 SWAP3 PUSH2 0x2451 JUMP JUMPDEST SWAP1 POP PUSH1 0x20 SWAP3 POP PUSH2 0x2440 SWAP5 SWAP2 POP PUSH1 0xFF NOT AND DUP3 DUP5 ADD MSTORE ISZERO ISZERO PUSH1 0x5 SHL DUP3 ADD ADD PUSH0 PUSH2 0x2433 JUMP JUMPDEST SWAP2 DUP2 PUSH1 0x1F DUP5 ADD SLT ISZERO PUSH2 0x3AD JUMPI DUP3 CALLDATALOAD SWAP2 PUSH1 0x1 PUSH1 0x1 PUSH1 0x40 SHL SUB DUP4 GT PUSH2 0x3AD JUMPI PUSH1 0x20 DUP4 DUP2 DUP7 ADD SWAP6 ADD ADD GT PUSH2 0x3AD JUMPI JUMP JUMPDEST SWAP1 PUSH1 0x40 PUSH1 0x3 NOT DUP4 ADD SLT PUSH2 0x3AD JUMPI PUSH1 0x4 CALLDATALOAD SWAP2 PUSH1 0x24 CALLDATALOAD SWAP1 PUSH1 0x1 PUSH1 0x1 PUSH1 0x40 SHL SUB DUP3 GT PUSH2 0x3AD JUMPI PUSH2 0x2504 SWAP2 PUSH1 0x4 ADD PUSH2 0x24A8 JUMP JUMPDEST SWAP1 SWAP2 JUMP JUMPDEST PUSH1 0x1 PUSH1 0x1 PUSH1 0x40 SHL SUB DUP2 GT PUSH2 0x23D3 JUMPI PUSH1 0x1F ADD PUSH1 0x1F NOT AND PUSH1 0x20 ADD SWAP1 JUMP JUMPDEST SWAP3 SWAP2 SWAP3 PUSH2 0x252F DUP3 PUSH2 0x2508 JUMP JUMPDEST SWAP2 PUSH2 0x253D PUSH1 0x40 MLOAD SWAP4 DUP5 PUSH2 0x23E7 JUMP JUMPDEST DUP3 SWAP5 DUP2 DUP5 MSTORE DUP2 DUP4 ADD GT PUSH2 0x3AD JUMPI DUP3 DUP2 PUSH1 0x20 SWAP4 DUP5 PUSH0 SWAP7 ADD CALLDATACOPY ADD ADD MSTORE JUMP JUMPDEST SWAP1 SWAP2 SWAP1 PUSH1 0x1 PUSH1 0x1 PUSH1 0xA0 SHL SUB DUP4 AND DUP1 ISZERO PUSH2 0x27F9 JUMPI PUSH0 DUP4 DUP2 MSTORE PUSH1 0x2 PUSH1 0x20 MSTORE PUSH1 0x40 SWAP1 KECCAK256 SLOAD PUSH1 0x1 PUSH1 0x1 PUSH1 0xA0 SHL SUB AND SWAP4 CALLER ISZERO ISZERO DUP1 PUSH2 0x2769 JUMPI JUMPDEST POP DUP5 ISZERO DUP1 ISZERO PUSH2 0x2736 JUMPI JUMPDEST DUP3 PUSH0 MSTORE PUSH1 0x3 PUSH1 0x20 MSTORE PUSH1 0x40 PUSH0 KECCAK256 PUSH1 0x1 DUP2 SLOAD ADD SWAP1 SSTORE DUP5 PUSH0 MSTORE PUSH1 0x2 PUSH1 0x20 MSTORE PUSH1 0x40 PUSH0 KECCAK256 DUP4 PUSH12 0xFFFFFFFFFFFFFFFFFFFFFFFF PUSH1 0xA0 SHL DUP3 SLOAD AND OR SWAP1 SSTORE DUP5 DUP4 DUP8 PUSH32 0xDDF252AD1BE2C89B69C2B068FC378DAA952BA7F163C4A11628F55A4DF523B3EF PUSH0 DUP1 LOG4 ISZERO PUSH2 0x26B9 JUMPI PUSH1 0x8 SLOAD DUP5 PUSH0 MSTORE PUSH1 0x9 PUSH1 0x20 MSTORE DUP1 PUSH1 0x40 PUSH0 KECCAK256 SSTORE PUSH1 0x1 PUSH1 0x40 SHL DUP2 LT ISZERO PUSH2 0x23D3 JUMPI DUP5 PUSH2 0x262A DUP3 PUSH1 0x1 PUSH2 0x2642 SWAP5 ADD PUSH1 0x8 SSTORE PUSH2 0x2856 JUMP JUMPDEST SWAP1 SWAP2 SWAP1 DUP3 SLOAD SWAP1 PUSH1 0x3 SHL SWAP2 DUP3 SHL SWAP2 PUSH0 NOT SWAP1 SHL NOT AND OR SWAP1 SSTORE JUMP JUMPDEST DUP2 DUP6 SUB PUSH2 0x2679 JUMPI JUMPDEST POP POP PUSH1 0x1 PUSH1 0x1 PUSH1 0xA0 SHL SUB AND DUP1 DUP4 SUB PUSH2 0x2661 JUMPI POP POP POP JUMP JUMPDEST PUSH4 0x64283D7B PUSH1 0xE0 SHL PUSH0 MSTORE PUSH1 0x4 MSTORE PUSH1 0x24 MSTORE PUSH1 0x44 MSTORE PUSH1 0x64 PUSH0 REVERT JUMPDEST PUSH2 0x2682 SWAP1 PUSH2 0x2A51 JUMP JUMPDEST PUSH0 NOT DUP2 ADD SWAP2 SWAP1 DUP3 GT PUSH2 0x1F7B JUMPI PUSH0 MSTORE PUSH1 0x6 PUSH1 0x20 MSTORE PUSH1 0x40 PUSH0 KECCAK256 DUP2 PUSH0 MSTORE PUSH1 0x20 MSTORE DUP3 PUSH1 0x40 PUSH0 KECCAK256 SSTORE DUP3 PUSH0 MSTORE PUSH1 0x7 PUSH1 0x20 MSTORE PUSH1 0x40 PUSH0 KECCAK256 SSTORE PUSH0 DUP1 PUSH2 0x264A JUMP JUMPDEST DUP5 DUP3 EQ PUSH2 0x2642 JUMPI PUSH2 0x26C9 DUP6 PUSH2 0x2A51 JUMP JUMPDEST DUP5 PUSH0 MSTORE PUSH1 0x7 PUSH1 0x20 MSTORE PUSH1 0x40 PUSH0 KECCAK256 SLOAD SWAP1 DUP7 PUSH0 MSTORE PUSH1 0x6 PUSH1 0x20 MSTORE PUSH1 0x40 PUSH0 KECCAK256 SWAP2 DUP2 DUP2 SUB PUSH2 0x270B JUMPI JUMPDEST POP DUP6 PUSH0 MSTORE PUSH1 0x7 PUSH1 0x20 MSTORE PUSH0 PUSH1 0x40 DUP2 KECCAK256 SSTORE PUSH0 MSTORE PUSH1 0x20 MSTORE PUSH0 PUSH1 0x40 DUP2 KECCAK256 SSTORE PUSH2 0x2642 JUMP JUMPDEST DUP2 PUSH0 MSTORE DUP3 PUSH1 0x20 MSTORE PUSH1 0x40 PUSH0 KECCAK256 SLOAD DUP2 PUSH0 MSTORE DUP4 PUSH1 0x20 MSTORE DUP1 PUSH1 0x40 PUSH0 KECCAK256 SSTORE PUSH0 MSTORE PUSH1 0x7 PUSH1 0x20 MSTORE PUSH1 0x40 PUSH0 KECCAK256 SSTORE PUSH0 PUSH2 0x26EC JUMP JUMPDEST PUSH0 DUP6 DUP2 MSTORE PUSH1 0x4 PUSH1 0x20 MSTORE PUSH1 0x40 SWAP1 KECCAK256 DUP1 SLOAD PUSH1 0x1 PUSH1 0x1 PUSH1 0xA0 SHL SUB NOT AND SWAP1 SSTORE DUP6 PUSH0 MSTORE PUSH1 0x3 PUSH1 0x20 MSTORE PUSH1 0x40 PUSH0 KECCAK256 PUSH0 NOT DUP2 SLOAD ADD SWAP1 SSTORE PUSH2 0x2597 JUMP JUMPDEST DUP1 PUSH2 0x27A8 JUMPI JUMPDEST ISZERO PUSH2 0x277A JUMPI PUSH0 PUSH2 0x258D JUMP JUMPDEST DUP4 DUP6 PUSH2 0x2792 JUMPI PUSH4 0x7E273289 PUSH1 0xE0 SHL PUSH0 MSTORE PUSH1 0x4 MSTORE PUSH1 0x24 PUSH0 REVERT JUMPDEST PUSH4 0x177E802F PUSH1 0xE0 SHL PUSH0 MSTORE CALLER PUSH1 0x4 MSTORE PUSH1 0x24 MSTORE PUSH1 0x44 PUSH0 REVERT JUMPDEST POP CALLER DUP6 EQ DUP1 ISZERO PUSH2 0x27D7 JUMPI JUMPDEST DUP1 PUSH2 0x276F JUMPI POP PUSH0 DUP5 DUP2 MSTORE PUSH1 0x4 PUSH1 0x20 MSTORE PUSH1 0x40 SWAP1 KECCAK256 SLOAD PUSH1 0x1 PUSH1 0x1 PUSH1 0xA0 SHL SUB AND CALLER EQ PUSH2 0x276F JUMP JUMPDEST POP PUSH0 DUP6 DUP2 MSTORE PUSH1 0x5 PUSH1 0x20 SWAP1 DUP2 MSTORE PUSH1 0x40 DUP1 DUP4 KECCAK256 CALLER DUP5 MSTORE SWAP1 SWAP2 MSTORE SWAP1 KECCAK256 SLOAD PUSH1 0xFF AND PUSH2 0x27B3 JUMP JUMPDEST PUSH4 0x32505749 PUSH1 0xE1 SHL PUSH0 MSTORE PUSH0 PUSH1 0x4 MSTORE PUSH1 0x24 PUSH0 REVERT JUMPDEST ISZERO PUSH2 0x2813 JUMPI JUMP JUMPDEST PUSH1 0x40 MLOAD PUSH3 0x461BCD PUSH1 0xE5 SHL DUP2 MSTORE PUSH1 0x20 PUSH1 0x4 DUP3 ADD MSTORE PUSH1 0xE PUSH1 0x24 DUP3 ADD MSTORE PUSH14 0x1B9BDD08185D5D1A1BDC9A5E9959 PUSH1 0x92 SHL PUSH1 0x44 DUP3 ADD MSTORE PUSH1 0x64 SWAP1 REVERT JUMPDEST SWAP2 SWAP1 DUP3 ADD DUP1 SWAP3 GT PUSH2 0x1F7B JUMPI JUMP JUMPDEST PUSH1 0x8 SLOAD DUP2 LT ISZERO PUSH2 0x286E JUMPI PUSH1 0x8 PUSH0 MSTORE PUSH1 0x20 PUSH0 KECCAK256 ADD SWAP1 PUSH0 SWAP1 JUMP JUMPDEST PUSH4 0x4E487B71 PUSH1 0xE0 SHL PUSH0 MSTORE PUSH1 0x32 PUSH1 0x4 MSTORE PUSH1 0x24 PUSH0 REVERT JUMPDEST SWAP1 DUP2 PUSH1 0x20 SWAP2 SUB SLT PUSH2 0x3AD JUMPI MLOAD DUP1 ISZERO ISZERO DUP2 SUB PUSH2 0x3AD JUMPI SWAP1 JUMP JUMPDEST ISZERO PUSH2 0x28A1 JUMPI JUMP JUMPDEST PUSH1 0x40 MLOAD PUSH3 0x461BCD PUSH1 0xE5 SHL DUP2 MSTORE PUSH1 0x20 PUSH1 0x4 DUP3 ADD MSTORE PUSH1 0x12 PUSH1 0x24 DUP3 ADD MSTORE PUSH18 0x19995948185C1C1C9BDD994819985A5B1959 PUSH1 0x72 SHL PUSH1 0x44 DUP3 ADD MSTORE PUSH1 0x64 SWAP1 REVERT JUMPDEST PUSH0 NOT DUP2 EQ PUSH2 0x1F7B JUMPI PUSH1 0x1 ADD SWAP1 JUMP JUMPDEST PUSH0 SWAP3 SWAP2 DUP2 SLOAD SWAP2 PUSH2 0x28F8 DUP4 PUSH2 0x237F JUMP JUMPDEST SWAP3 PUSH1 0x1 DUP2 AND SWAP1 DUP2 ISZERO PUSH2 0x2940 JUMPI POP PUSH1 0x1 EQ PUSH2 0x2911 JUMPI POP POP POP JUMP JUMPDEST SWAP1 SWAP2 SWAP3 SWAP4 POP PUSH0 MSTORE PUSH1 0x20 PUSH0 KECCAK256 PUSH0 SWAP1 JUMPDEST DUP4 DUP3 LT PUSH2 0x292C JUMPI POP POP ADD SWAP1 JUMP JUMPDEST PUSH1 0x1 DUP2 PUSH1 0x20 SWAP3 SLOAD DUP5 DUP7 ADD MSTORE ADD SWAP2 ADD SWAP1 PUSH2 0x291F JUMP JUMPDEST PUSH1 0xFF NOT AND DUP4 MSTORE POP POP DUP2 ISZERO ISZERO SWAP1 SWAP2 MUL ADD SWAP2 POP JUMP JUMPDEST PUSH1 0x1F DUP3 GT PUSH2 0x2960 JUMPI POP POP POP JUMP JUMPDEST PUSH0 MSTORE PUSH1 0x20 PUSH0 KECCAK256 SWAP1 PUSH1 0x20 PUSH1 0x1F DUP5 ADD PUSH1 0x5 SHR DUP4 ADD SWAP4 LT PUSH2 0x2998 JUMPI JUMPDEST PUSH1 0x1F ADD PUSH1 0x5 SHR ADD SWAP1 JUMPDEST DUP2 DUP2 LT PUSH2 0x298D JUMPI POP POP JUMP JUMPDEST PUSH0 DUP2 SSTORE PUSH1 0x1 ADD PUSH2 0x2982 JUMP JUMPDEST SWAP1 SWAP2 POP DUP2 SWAP1 PUSH2 0x2979 JUMP JUMPDEST PUSH0 SWAP3 SWAP2 DUP2 SLOAD SWAP2 PUSH2 0x29B1 DUP4 PUSH2 0x237F JUMP JUMPDEST DUP1 DUP4 MSTORE SWAP3 PUSH1 0x1 DUP2 AND SWAP1 DUP2 ISZERO PUSH2 0x2A06 JUMPI POP PUSH1 0x1 EQ PUSH2 0x29CD JUMPI POP POP POP JUMP JUMPDEST PUSH0 SWAP1 DUP2 MSTORE PUSH1 0x20 DUP2 KECCAK256 SWAP4 SWAP5 POP SWAP2 SWAP3 JUMPDEST DUP4 DUP4 LT PUSH2 0x29EC JUMPI POP PUSH1 0x20 SWAP3 POP ADD ADD SWAP1 JUMP JUMPDEST PUSH1 0x1 DUP2 PUSH1 0x20 SWAP3 SWAP5 SWAP4 SWAP5 SLOAD DUP4 DUP6 DUP8 ADD ADD MSTORE ADD SWAP2 ADD SWAP2 SWAP1 PUSH2 0x29DB JUMP JUMPDEST SWAP2 POP POP PUSH1 0x20 SWAP4 SWAP5 POP PUSH1 0xFF SWAP3 SWAP2 SWAP3 NOT AND DUP4 DUP4 ADD MSTORE ISZERO ISZERO PUSH1 0x5 SHL ADD ADD SWAP1 JUMP JUMPDEST SWAP4 SWAP3 SWAP2 PUSH2 0x2A4C SWAP1 PUSH2 0x2A3E PUSH1 0x40 SWAP4 PUSH1 0x60 DUP9 MSTORE PUSH1 0x60 DUP9 ADD SWAP1 PUSH2 0x29A2 JUMP JUMPDEST SWAP1 DUP7 DUP3 SUB PUSH1 0x20 DUP9 ADD MSTORE PUSH2 0x29A2 JUMP JUMPDEST SWAP4 ADD MSTORE JUMP JUMPDEST PUSH1 0x1 PUSH1 0x1 PUSH1 0xA0 SHL SUB AND DUP1 ISZERO PUSH2 0x2A6F JUMPI PUSH0 MSTORE PUSH1 0x3 PUSH1 0x20 MSTORE PUSH1 0x40 PUSH0 KECCAK256 SLOAD SWAP1 JUMP JUMPDEST PUSH4 0x22718AD9 PUSH1 0xE2 SHL PUSH0 MSTORE PUSH0 PUSH1 0x4 MSTORE PUSH1 0x24 PUSH0 REVERT JUMPDEST SWAP1 DUP1 PUSH1 0x20 SWAP4 SWAP3 DUP2 DUP5 MSTORE DUP5 DUP5 ADD CALLDATACOPY PUSH0 DUP3 DUP3 ADD DUP5 ADD MSTORE PUSH1 0x1F ADD PUSH1 0x1F NOT AND ADD ADD SWAP1 JUMP JUMPDEST ISZERO PUSH2 0x2AA9 JUMPI JUMP JUMPDEST PUSH1 0x40 MLOAD PUSH3 0x461BCD PUSH1 0xE5 SHL DUP2 MSTORE PUSH1 0x20 PUSH1 0x4 DUP3 ADD MSTORE PUSH1 0xA PUSH1 0x24 DUP3 ADD MSTORE PUSH10 0x6F776E6572206F6E6C79 PUSH1 0xB0 SHL PUSH1 0x44 DUP3 ADD MSTORE PUSH1 0x64 SWAP1 REVERT JUMPDEST PUSH0 DUP2 DUP2 MSTORE PUSH1 0x2 PUSH1 0x20 MSTORE PUSH1 0x40 SWAP1 KECCAK256 SLOAD PUSH1 0x1 PUSH1 0x1 PUSH1 0xA0 SHL SUB AND SWAP1 DUP2 ISZERO PUSH2 0x2AFD JUMPI POP SWAP1 JUMP JUMPDEST PUSH4 0x7E273289 PUSH1 0xE0 SHL PUSH0 MSTORE PUSH1 0x4 MSTORE PUSH1 0x24 PUSH0 REVERT JUMPDEST SWAP1 PUSH2 0x2B19 DUP3 PUSH2 0x2ADB JUMP JUMPDEST PUSH1 0x1 PUSH1 0x1 PUSH1 0xA0 SHL SUB DUP3 DUP2 AND SWAP2 AND EQ SWAP2 DUP3 ISZERO PUSH2 0x2B33 JUMPI POP POP SWAP1 JUMP JUMPDEST SWAP1 SWAP2 POP PUSH0 MSTORE PUSH1 0xD PUSH1 0x20 MSTORE PUSH1 0x40 PUSH0 KECCAK256 SWAP1 PUSH1 0x1 DUP1 PUSH1 0xA0 SHL SUB AND PUSH0 MSTORE PUSH1 0x20 MSTORE PUSH1 0xFF PUSH1 0x40 PUSH0 KECCAK256 SLOAD AND SWAP1 JUMP JUMPDEST SWAP1 PUSH1 0x20 SWAP1 PUSH1 0x40 MLOAD SWAP1 PUSH2 0x2B6C DUP4 DUP4 PUSH2 0x23E7 JUMP JUMPDEST PUSH0 DUP3 MSTORE PUSH1 0x1 PUSH1 0x1 PUSH1 0xA0 SHL SUB DUP5 AND SWAP4 DUP5 ISZERO PUSH2 0x27F9 JUMPI PUSH0 DUP3 DUP2 MSTORE PUSH1 0x2 DUP6 MSTORE PUSH1 0x40 SWAP1 KECCAK256 SLOAD PUSH1 0x1 PUSH1 0x1 PUSH1 0xA0 SHL SUB AND DUP1 ISZERO DUP1 ISZERO SWAP2 SWAP1 DUP3 PUSH2 0x2E26 JUMPI JUMPDEST DUP8 PUSH0 MSTORE PUSH1 0x3 DUP8 MSTORE PUSH1 0x40 PUSH0 KECCAK256 PUSH1 0x1 DUP2 SLOAD ADD SWAP1 SSTORE DUP5 PUSH0 MSTORE PUSH1 0x2 DUP8 MSTORE PUSH1 0x40 PUSH0 KECCAK256 DUP9 PUSH12 0xFFFFFFFFFFFFFFFFFFFFFFFF PUSH1 0xA0 SHL DUP3 SLOAD AND OR SWAP1 SSTORE DUP5 DUP9 DUP4 PUSH32 0xDDF252AD1BE2C89B69C2B068FC378DAA952BA7F163C4A11628F55A4DF523B3EF PUSH0 DUP1 LOG4 ISZERO PUSH2 0x2DB0 JUMPI PUSH1 0x8 SLOAD DUP5 PUSH0 MSTORE PUSH1 0x9 DUP8 MSTORE DUP1 PUSH1 0x40 PUSH0 KECCAK256 SSTORE PUSH1 0x1 PUSH1 0x40 SHL DUP2 LT ISZERO PUSH2 0x23D3 JUMPI DUP5 PUSH2 0x262A DUP3 PUSH1 0x1 PUSH2 0x2C32 SWAP5 ADD PUSH1 0x8 SSTORE PUSH2 0x2856 JUMP JUMPDEST DUP7 DUP2 SUB PUSH2 0x2D75 JUMPI JUMPDEST POP PUSH2 0x2D62 JUMPI EXTCODESIZE PUSH2 0x2C4B JUMPI JUMPDEST POP POP POP POP JUMP JUMPDEST SWAP2 PUSH2 0x2C88 SWAP2 DUP2 SWAP5 SWAP6 SWAP4 PUSH1 0x40 MLOAD SWAP4 DUP5 SWAP3 DUP4 SWAP3 PUSH4 0xA85BD01 PUSH1 0xE1 SHL DUP5 MSTORE CALLER PUSH1 0x4 DUP6 ADD MSTORE PUSH0 PUSH1 0x24 DUP6 ADD MSTORE PUSH1 0x44 DUP5 ADD MSTORE PUSH1 0x80 PUSH1 0x64 DUP5 ADD MSTORE PUSH1 0x84 DUP4 ADD SWAP1 PUSH2 0x22F5 JUMP JUMPDEST SUB DUP2 PUSH0 DUP9 GAS CALL PUSH0 SWAP2 DUP2 PUSH2 0x2D22 JUMPI JUMPDEST POP PUSH2 0x2CEB JUMPI POP POP RETURNDATASIZE ISZERO PUSH2 0x2CE3 JUMPI RETURNDATASIZE SWAP1 PUSH2 0x2CAE DUP3 PUSH2 0x2508 JUMP JUMPDEST SWAP2 PUSH2 0x2CBC PUSH1 0x40 MLOAD SWAP4 DUP5 PUSH2 0x23E7 JUMP JUMPDEST DUP3 MSTORE RETURNDATASIZE PUSH0 DUP3 DUP5 ADD RETURNDATACOPY JUMPDEST DUP2 MLOAD SWAP2 DUP3 PUSH2 0x2CE0 JUMPI DUP4 PUSH4 0x32505749 PUSH1 0xE1 SHL PUSH0 MSTORE PUSH1 0x4 MSTORE PUSH1 0x24 PUSH0 REVERT JUMPDEST ADD REVERT JUMPDEST PUSH1 0x60 SWAP1 PUSH2 0x2CC5 JUMP JUMPDEST SWAP1 SWAP3 SWAP2 POP PUSH1 0x1 PUSH1 0x1 PUSH1 0xE0 SHL SUB NOT AND PUSH4 0x757A42FF PUSH1 0xE1 SHL ADD PUSH2 0x2D10 JUMPI POP PUSH0 DUP1 DUP1 DUP1 PUSH2 0x2C45 JUMP JUMPDEST PUSH4 0x32505749 PUSH1 0xE1 SHL PUSH0 MSTORE PUSH1 0x4 MSTORE PUSH1 0x24 PUSH0 REVERT JUMPDEST SWAP1 SWAP2 POP DUP4 DUP2 DUP2 RETURNDATASIZE DUP4 GT PUSH2 0x2D5B JUMPI JUMPDEST PUSH2 0x2D3A DUP2 DUP4 PUSH2 0x23E7 JUMP JUMPDEST DUP2 ADD SUB SLT PUSH2 0x3AD JUMPI MLOAD PUSH1 0x1 PUSH1 0x1 PUSH1 0xE0 SHL SUB NOT DUP2 AND DUP2 SUB PUSH2 0x3AD JUMPI SWAP1 PUSH0 PUSH2 0x2C96 JUMP JUMPDEST POP RETURNDATASIZE PUSH2 0x2D30 JUMP JUMPDEST PUSH4 0x39E35637 PUSH1 0xE1 SHL PUSH0 MSTORE PUSH0 PUSH1 0x4 MSTORE PUSH1 0x24 PUSH0 REVERT JUMPDEST PUSH2 0x2D7E DUP4 PUSH2 0x2A51 JUMP JUMPDEST PUSH0 NOT DUP2 ADD SWAP1 DUP2 GT PUSH2 0x1F7B JUMPI DUP8 PUSH0 MSTORE PUSH1 0x6 DUP8 MSTORE PUSH1 0x40 PUSH0 KECCAK256 DUP2 PUSH0 MSTORE DUP8 MSTORE DUP5 PUSH1 0x40 PUSH0 KECCAK256 SSTORE DUP5 PUSH0 MSTORE PUSH1 0x7 DUP8 MSTORE PUSH1 0x40 PUSH0 KECCAK256 SSTORE PUSH2 0x2C3A JUMP JUMPDEST DUP1 DUP8 EQ PUSH2 0x2C32 JUMPI PUSH2 0x2DC0 DUP2 PUSH2 0x2A51 JUMP JUMPDEST DUP5 PUSH0 MSTORE PUSH1 0x7 DUP8 MSTORE PUSH1 0x40 PUSH0 KECCAK256 SLOAD SWAP1 DUP3 PUSH0 MSTORE PUSH1 0x6 DUP9 MSTORE PUSH1 0x40 PUSH0 KECCAK256 SWAP2 DUP2 DUP2 SUB PUSH2 0x2DFE JUMPI JUMPDEST POP DUP6 PUSH0 MSTORE PUSH1 0x7 DUP9 MSTORE PUSH0 PUSH1 0x40 DUP2 KECCAK256 SSTORE PUSH0 MSTORE DUP7 MSTORE PUSH0 PUSH1 0x40 DUP2 KECCAK256 SSTORE PUSH2 0x2C32 JUMP JUMPDEST DUP2 PUSH0 MSTORE DUP3 DUP10 MSTORE PUSH1 0x40 PUSH0 KECCAK256 SLOAD DUP2 PUSH0 MSTORE DUP4 DUP11 MSTORE DUP1 PUSH1 0x40 PUSH0 KECCAK256 SSTORE PUSH0 MSTORE PUSH1 0x7 DUP10 MSTORE PUSH1 0x40 PUSH0 KECCAK256 SSTORE PUSH0 PUSH2 0x2DE1 JUMP JUMPDEST PUSH0 DUP6 DUP2 MSTORE PUSH1 0x4 PUSH1 0x20 MSTORE PUSH1 0x40 DUP1 DUP3 KECCAK256 DUP1 SLOAD PUSH1 0x1 PUSH1 0x1 PUSH1 0xA0 SHL SUB NOT AND SWAP1 SSTORE DUP4 DUP3 MSTORE PUSH1 0x3 DUP10 MSTORE SWAP1 KECCAK256 DUP1 SLOAD PUSH0 NOT ADD SWAP1 SSTORE PUSH2 0x2BA2 JUMP JUMPDEST PUSH1 0xA SLOAD PUSH1 0x1 PUSH1 0x1 PUSH1 0xA0 SHL SUB AND CALLER SUB PUSH2 0x2E6B JUMPI JUMP JUMPDEST PUSH4 0x118CDAA7 PUSH1 0xE0 SHL PUSH0 MSTORE CALLER PUSH1 0x4 MSTORE PUSH1 0x24 PUSH0 REVERT JUMPDEST DUP3 EXTCODESIZE PUSH2 0x2E8C JUMPI JUMPDEST POP POP POP POP POP JUMP JUMPDEST PUSH1 0x40 MLOAD PUSH4 0xA85BD01 PUSH1 0xE1 SHL DUP2 MSTORE PUSH1 0x1 PUSH1 0x1 PUSH1 0xA0 SHL SUB SWAP2 DUP3 AND PUSH1 0x4 DUP3 ADD MSTORE SWAP2 DUP2 AND PUSH1 0x24 DUP4 ADD MSTORE PUSH1 0x44 DUP3 ADD SWAP4 SWAP1 SWAP4 MSTORE PUSH1 0x80 PUSH1 0x64 DUP3 ADD MSTORE SWAP2 AND SWAP2 PUSH1 0x20 SWAP1 DUP3 SWAP1 DUP2 SWAP1 PUSH2 0x2ED8 SWAP1 PUSH1 0x84 DUP4 ADD SWAP1 PUSH2 0x22F5 JUMP JUMPDEST SUB DUP2 PUSH0 DUP7 GAS CALL PUSH0 SWAP2 DUP2 PUSH2 0x2F5D JUMPI JUMPDEST POP PUSH2 0x2F3B JUMPI POP RETURNDATASIZE ISZERO PUSH2 0x2F34 JUMPI RETURNDATASIZE PUSH2 0x2EFC DUP2 PUSH2 0x2508 JUMP JUMPDEST SWAP1 PUSH2 0x2F0A PUSH1 0x40 MLOAD SWAP3 DUP4 PUSH2 0x23E7 JUMP JUMPDEST DUP2 MSTORE RETURNDATASIZE PUSH0 PUSH1 0x20 DUP4 ADD RETURNDATACOPY JUMPDEST DUP1 MLOAD SWAP1 DUP2 PUSH2 0x2F2F JUMPI DUP3 PUSH4 0x32505749 PUSH1 0xE1 SHL PUSH0 MSTORE PUSH1 0x4 MSTORE PUSH1 0x24 PUSH0 REVERT JUMPDEST PUSH1 0x20 ADD REVERT JUMPDEST PUSH1 0x60 PUSH2 0x2F14 JUMP JUMPDEST PUSH1 0x1 PUSH1 0x1 PUSH1 0xE0 SHL SUB NOT AND PUSH4 0x757A42FF PUSH1 0xE1 SHL ADD PUSH2 0x2D10 JUMPI POP PUSH0 DUP1 DUP1 DUP1 DUP1 PUSH2 0x2E85 JUMP JUMPDEST SWAP1 SWAP2 POP PUSH1 0x20 DUP2 RETURNDATASIZE PUSH1 0x20 GT PUSH2 0x2F9A JUMPI JUMPDEST DUP2 PUSH2 0x2F79 PUSH1 0x20 SWAP4 DUP4 PUSH2 0x23E7 JUMP JUMPDEST DUP2 ADD SUB SLT PUSH2 0x3AD JUMPI MLOAD PUSH1 0x1 PUSH1 0x1 PUSH1 0xE0 SHL SUB NOT DUP2 AND DUP2 SUB PUSH2 0x3AD JUMPI SWAP1 PUSH0 PUSH2 0x2EE6 JUMP JUMPDEST RETURNDATASIZE SWAP2 POP PUSH2 0x2F6C JUMP INVALID 0xD4 0xB6 SHR GASPRICE 0x4C 0xCD DUP9 0xED 0xCD MOD 0x25 0xCF TLOAD 0xED LOG3 GASLIMIT 0x2D CALLER 0xEB CREATE PUSH27 0x6A80254536B0976E37667A2646970667358221220D1E2B2C40A97 PUSH23 0x7D284474E7893EA6A9CA64229D1F79CFDBFC357FAFD2B2 RETURNDATASIZE PUSH21 0x64736F6C634300081B003300000000000000000000 "},"methodIdentifiers":{"agents(uint256)":"513856c8","approve(address,uint256)":"095ea7b3","authorizeCaller(uint256,address,bool)":"db7477ff","authorizedCallers(uint256,address)":"b0353cfe","balanceOf(address)":"70a08231","cloneAgent(uint256)":"881d09d4","cloneFee()":"52383037","getApproved(uint256)":"081812fc","isApprovedForAll(address,address)":"e985e9c5","mergeAgents(uint256,uint256)":"50a42e2e","mintAgent(string,uint256,uint256,uint256,bool,string)":"a7fa3f14","name()":"06fdde03","owner()":"8da5cb5b","ownerOf(uint256)":"6352211e","recordDecision(uint256,uint8)":"304969cc","renounceOwnership()":"715018a6","royaltyRouter()":"cbe39c20","royaltyToken()":"b96354cf","safeTransferFrom(address,address,uint256)":"42842e0e","safeTransferFrom(address,address,uint256,bytes)":"b88d4fde","setApprovalForAll(address,bool)":"a22cb465","setRoyaltyConfig(address,address,uint256)":"fb305ae5","supportsInterface(bytes4)":"01ffc9a7","symbol()":"95d89b41","tokenByIndex(uint256)":"4f6ccce7","tokenOfOwnerByIndex(address,uint256)":"2f745c59","tokenURI(uint256)":"c87b56dd","totalSupply()":"18160ddd","transferFrom(address,address,uint256)":"23b872dd","transferOwnership(address)":"f2fde38b","updateConfig(uint256,string)":"c21c3e1a","updateMemory(uint256,string)":"80b6185e"}}}}}