{
  "_format": "hh-sol-artifact-1",
  "contractName": "StableRotatorAgent",
  "sourceName": "contracts/StableRotatorAgent.sol",
  "abi": [
    {
      "inputs": [],
      "stateMutability": "nonpayable",
      "type": "constructor"
    },
    {
      "inputs": [],
      "name": "ERC721EnumerableForbiddenBatchMint",
      "type": "error"
    },
    {
      "inputs": [
        {
          "internalType": "address",
          "name": "sender",
          "type": "address"
        },
        {
          "internalType": "uint256",
          "name": "tokenId",
          "type": "uint256"
        },
        {
          "internalType": "address",
          "name": "owner",
          "type": "address"
        }
      ],
      "name": "ERC721IncorrectOwner",
      "type": "error"
    },
    {
      "inputs": [
        {
          "internalType": "address",
          "name": "operator",
          "type": "address"
        },
        {
          "internalType": "uint256",
          "name": "tokenId",
          "type": "uint256"
        }
      ],
      "name": "ERC721InsufficientApproval",
      "type": "error"
    },
    {
      "inputs": [
        {
          "internalType": "address",
          "name": "approver",
          "type": "address"
        }
      ],
      "name": "ERC721InvalidApprover",
      "type": "error"
    },
    {
      "inputs": [
        {
          "internalType": "address",
          "name": "operator",
          "type": "address"
        }
      ],
      "name": "ERC721InvalidOperator",
      "type": "error"
    },
    {
      "inputs": [
        {
          "internalType": "address",
          "name": "owner",
          "type": "address"
        }
      ],
      "name": "ERC721InvalidOwner",
      "type": "error"
    },
    {
      "inputs": [
        {
          "internalType": "address",
          "name": "receiver",
          "type": "address"
        }
      ],
      "name": "ERC721InvalidReceiver",
      "type": "error"
    },
    {
      "inputs": [
        {
          "internalType": "address",
          "name": "sender",
          "type": "address"
        }
      ],
      "name": "ERC721InvalidSender",
      "type": "error"
    },
    {
      "inputs": [
        {
          "internalType": "uint256",
          "name": "tokenId",
          "type": "uint256"
        }
      ],
      "name": "ERC721NonexistentToken",
      "type": "error"
    },
    {
      "inputs": [
        {
          "internalType": "address",
          "name": "owner",
          "type": "address"
        },
        {
          "internalType": "uint256",
          "name": "index",
          "type": "uint256"
        }
      ],
      "name": "ERC721OutOfBoundsIndex",
      "type": "error"
    },
    {
      "inputs": [
        {
          "internalType": "address",
          "name": "owner",
          "type": "address"
        }
      ],
      "name": "OwnableInvalidOwner",
      "type": "error"
    },
    {
      "inputs": [
        {
          "internalType": "address",
          "name": "account",
          "type": "address"
        }
      ],
      "name": "OwnableUnauthorizedAccount",
      "type": "error"
    },
    {
      "anonymous": false,
      "inputs": [
        {
          "indexed": true,
          "internalType": "uint256",
          "name": "tokenId",
          "type": "uint256"
        },
        {
          "indexed": true,
          "internalType": "address",
          "name": "owner",
          "type": "address"
        },
        {
          "indexed": false,
          "internalType": "string",
          "name": "name",
          "type": "string"
        },
        {
          "indexed": false,
          "internalType": "string",
          "name": "configHash",
          "type": "string"
        },
        {
          "indexed": false,
          "internalType": "uint256",
          "name": "clonedFrom",
          "type": "uint256"
        }
      ],
      "name": "AgentMinted",
      "type": "event"
    },
    {
      "anonymous": false,
      "inputs": [
        {
          "indexed": true,
          "internalType": "uint256",
          "name": "childTokenId",
          "type": "uint256"
        },
        {
          "indexed": true,
          "internalType": "uint256",
          "name": "parentA",
          "type": "uint256"
        },
        {
          "indexed": true,
          "internalType": "uint256",
          "name": "parentB",
          "type": "uint256"
        },
        {
          "indexed": false,
          "internalType": "address",
          "name": "minter",
          "type": "address"
        }
      ],
      "name": "AgentsMerged",
      "type": "event"
    },
    {
      "anonymous": false,
      "inputs": [
        {
          "indexed": true,
          "internalType": "address",
          "name": "owner",
          "type": "address"
        },
        {
          "indexed": true,
          "internalType": "address",
          "name": "approved",
          "type": "address"
        },
        {
          "indexed": true,
          "internalType": "uint256",
          "name": "tokenId",
          "type": "uint256"
        }
      ],
      "name": "Approval",
      "type": "event"
    },
    {
      "anonymous": false,
      "inputs": [
        {
          "indexed": true,
          "internalType": "address",
          "name": "owner",
          "type": "address"
        },
        {
          "indexed": true,
          "internalType": "address",
          "name": "operator",
          "type": "address"
        },
        {
          "indexed": false,
          "internalType": "bool",
          "name": "approved",
          "type": "bool"
        }
      ],
      "name": "ApprovalForAll",
      "type": "event"
    },
    {
      "anonymous": false,
      "inputs": [
        {
          "indexed": true,
          "internalType": "uint256",
          "name": "tokenId",
          "type": "uint256"
        },
        {
          "indexed": false,
          "internalType": "address",
          "name": "caller",
          "type": "address"
        },
        {
          "indexed": false,
          "internalType": "bool",
          "name": "authorized",
          "type": "bool"
        }
      ],
      "name": "CallerAuthorized",
      "type": "event"
    },
    {
      "anonymous": false,
      "inputs": [
        {
          "indexed": true,
          "internalType": "uint256",
          "name": "clonedTokenId",
          "type": "uint256"
        },
        {
          "indexed": true,
          "internalType": "uint256",
          "name": "sourceTokenId",
          "type": "uint256"
        },
        {
          "indexed": false,
          "internalType": "address",
          "name": "payer",
          "type": "address"
        },
        {
          "indexed": false,
          "internalType": "uint256",
          "name": "amount",
          "type": "uint256"
        }
      ],
      "name": "CloneFeePaid",
      "type": "event"
    },
    {
      "anonymous": false,
      "inputs": [
        {
          "indexed": true,
          "internalType": "uint256",
          "name": "tokenId",
          "type": "uint256"
        },
        {
          "indexed": false,
          "internalType": "string",
          "name": "configHash",
          "type": "string"
        }
      ],
      "name": "ConfigUpdated",
      "type": "event"
    },
    {
      "anonymous": false,
      "inputs": [
        {
          "indexed": true,
          "internalType": "uint256",
          "name": "tokenId",
          "type": "uint256"
        },
        {
          "indexed": false,
          "internalType": "uint256",
          "name": "totalDecisions",
          "type": "uint256"
        },
        {
          "indexed": false,
          "internalType": "uint256",
          "name": "totalRebalances",
          "type": "uint256"
        },
        {
          "indexed": false,
          "internalType": "uint256",
          "name": "totalHarvests",
          "type": "uint256"
        }
      ],
      "name": "DecisionRecorded",
      "type": "event"
    },
    {
      "anonymous": false,
      "inputs": [
        {
          "indexed": true,
          "internalType": "uint256",
          "name": "tokenId",
          "type": "uint256"
        },
        {
          "indexed": false,
          "internalType": "string",
          "name": "memoryHash",
          "type": "string"
        }
      ],
      "name": "MemoryUpdated",
      "type": "event"
    },
    {
      "anonymous": false,
      "inputs": [
        {
          "indexed": true,
          "internalType": "address",
          "name": "previousOwner",
          "type": "address"
        },
        {
          "indexed": true,
          "internalType": "address",
          "name": "newOwner",
          "type": "address"
        }
      ],
      "name": "OwnershipTransferred",
      "type": "event"
    },
    {
      "anonymous": false,
      "inputs": [
        {
          "indexed": false,
          "internalType": "address",
          "name": "router",
          "type": "address"
        },
        {
          "indexed": false,
          "internalType": "address",
          "name": "token",
          "type": "address"
        },
        {
          "indexed": false,
          "internalType": "uint256",
          "name": "cloneFee",
          "type": "uint256"
        }
      ],
      "name": "RoyaltyConfigUpdated",
      "type": "event"
    },
    {
      "anonymous": false,
      "inputs": [
        {
          "indexed": true,
          "internalType": "address",
          "name": "from",
          "type": "address"
        },
        {
          "indexed": true,
          "internalType": "address",
          "name": "to",
          "type": "address"
        },
        {
          "indexed": true,
          "internalType": "uint256",
          "name": "tokenId",
          "type": "uint256"
        }
      ],
      "name": "Transfer",
      "type": "event"
    },
    {
      "inputs": [
        {
          "internalType": "uint256",
          "name": "",
          "type": "uint256"
        }
      ],
      "name": "agents",
      "outputs": [
        {
          "internalType": "string",
          "name": "name",
          "type": "string"
        },
        {
          "internalType": "uint256",
          "name": "minApyDeltaBps",
          "type": "uint256"
        },
        {
          "internalType": "uint256",
          "name": "minHoldingDays",
          "type": "uint256"
        },
        {
          "internalType": "uint256",
          "name": "safetyMarginBps",
          "type": "uint256"
        },
        {
          "internalType": "bool",
          "name": "harvester",
          "type": "bool"
        },
        {
          "internalType": "string",
          "name": "configHash",
          "type": "string"
        },
        {
          "internalType": "string",
          "name": "memoryHash",
          "type": "string"
        },
        {
          "internalType": "uint256",
          "name": "totalDecisions",
          "type": "uint256"
        },
        {
          "internalType": "uint256",
          "name": "totalRebalances",
          "type": "uint256"
        },
        {
          "internalType": "uint256",
          "name": "totalHarvests",
          "type": "uint256"
        },
        {
          "internalType": "uint256",
          "name": "clonedFrom",
          "type": "uint256"
        },
        {
          "internalType": "uint256",
          "name": "mergedFrom",
          "type": "uint256"
        },
        {
          "internalType": "uint256",
          "name": "createdAt",
          "type": "uint256"
        }
      ],
      "stateMutability": "view",
      "type": "function"
    },
    {
      "inputs": [
        {
          "internalType": "address",
          "name": "to",
          "type": "address"
        },
        {
          "internalType": "uint256",
          "name": "tokenId",
          "type": "uint256"
        }
      ],
      "name": "approve",
      "outputs": [],
      "stateMutability": "nonpayable",
      "type": "function"
    },
    {
      "inputs": [
        {
          "internalType": "uint256",
          "name": "tokenId",
          "type": "uint256"
        },
        {
          "internalType": "address",
          "name": "caller",
          "type": "address"
        },
        {
          "internalType": "bool",
          "name": "authorized",
          "type": "bool"
        }
      ],
      "name": "authorizeCaller",
      "outputs": [],
      "stateMutability": "nonpayable",
      "type": "function"
    },
    {
      "inputs": [
        {
          "internalType": "uint256",
          "name": "",
          "type": "uint256"
        },
        {
          "internalType": "address",
          "name": "",
          "type": "address"
        }
      ],
      "name": "authorizedCallers",
      "outputs": [
        {
          "internalType": "bool",
          "name": "",
          "type": "bool"
        }
      ],
      "stateMutability": "view",
      "type": "function"
    },
    {
      "inputs": [
        {
          "internalType": "address",
          "name": "owner",
          "type": "address"
        }
      ],
      "name": "balanceOf",
      "outputs": [
        {
          "internalType": "uint256",
          "name": "",
          "type": "uint256"
        }
      ],
      "stateMutability": "view",
      "type": "function"
    },
    {
      "inputs": [
        {
          "internalType": "uint256",
          "name": "sourceTokenId",
          "type": "uint256"
        }
      ],
      "name": "cloneAgent",
      "outputs": [
        {
          "internalType": "uint256",
          "name": "",
          "type": "uint256"
        }
      ],
      "stateMutability": "nonpayable",
      "type": "function"
    },
    {
      "inputs": [],
      "name": "cloneFee",
      "outputs": [
        {
          "internalType": "uint256",
          "name": "",
          "type": "uint256"
        }
      ],
      "stateMutability": "view",
      "type": "function"
    },
    {
      "inputs": [
        {
          "internalType": "uint256",
          "name": "tokenId",
          "type": "uint256"
        }
      ],
      "name": "getApproved",
      "outputs": [
        {
          "internalType": "address",
          "name": "",
          "type": "address"
        }
      ],
      "stateMutability": "view",
      "type": "function"
    },
    {
      "inputs": [
        {
          "internalType": "address",
          "name": "owner",
          "type": "address"
        },
        {
          "internalType": "address",
          "name": "operator",
          "type": "address"
        }
      ],
      "name": "isApprovedForAll",
      "outputs": [
        {
          "internalType": "bool",
          "name": "",
          "type": "bool"
        }
      ],
      "stateMutability": "view",
      "type": "function"
    },
    {
      "inputs": [
        {
          "internalType": "uint256",
          "name": "parentA",
          "type": "uint256"
        },
        {
          "internalType": "uint256",
          "name": "parentB",
          "type": "uint256"
        }
      ],
      "name": "mergeAgents",
      "outputs": [
        {
          "internalType": "uint256",
          "name": "",
          "type": "uint256"
        }
      ],
      "stateMutability": "nonpayable",
      "type": "function"
    },
    {
      "inputs": [
        {
          "internalType": "string",
          "name": "name",
          "type": "string"
        },
        {
          "internalType": "uint256",
          "name": "minApyDeltaBps",
          "type": "uint256"
        },
        {
          "internalType": "uint256",
          "name": "minHoldingDays",
          "type": "uint256"
        },
        {
          "internalType": "uint256",
          "name": "safetyMarginBps",
          "type": "uint256"
        },
        {
          "internalType": "bool",
          "name": "harvester",
          "type": "bool"
        },
        {
          "internalType": "string",
          "name": "configHash",
          "type": "string"
        }
      ],
      "name": "mintAgent",
      "outputs": [
        {
          "internalType": "uint256",
          "name": "",
          "type": "uint256"
        }
      ],
      "stateMutability": "nonpayable",
      "type": "function"
    },
    {
      "inputs": [],
      "name": "name",
      "outputs": [
        {
          "internalType": "string",
          "name": "",
          "type": "string"
        }
      ],
      "stateMutability": "view",
      "type": "function"
    },
    {
      "inputs": [],
      "name": "owner",
      "outputs": [
        {
          "internalType": "address",
          "name": "",
          "type": "address"
        }
      ],
      "stateMutability": "view",
      "type": "function"
    },
    {
      "inputs": [
        {
          "internalType": "uint256",
          "name": "tokenId",
          "type": "uint256"
        }
      ],
      "name": "ownerOf",
      "outputs": [
        {
          "internalType": "address",
          "name": "",
          "type": "address"
        }
      ],
      "stateMutability": "view",
      "type": "function"
    },
    {
      "inputs": [
        {
          "internalType": "uint256",
          "name": "tokenId",
          "type": "uint256"
        },
        {
          "internalType": "uint8",
          "name": "kind",
          "type": "uint8"
        }
      ],
      "name": "recordDecision",
      "outputs": [],
      "stateMutability": "nonpayable",
      "type": "function"
    },
    {
      "inputs": [],
      "name": "renounceOwnership",
      "outputs": [],
      "stateMutability": "nonpayable",
      "type": "function"
    },
    {
      "inputs": [],
      "name": "royaltyRouter",
      "outputs": [
        {
          "internalType": "contract IRoyaltyRouter",
          "name": "",
          "type": "address"
        }
      ],
      "stateMutability": "view",
      "type": "function"
    },
    {
      "inputs": [],
      "name": "royaltyToken",
      "outputs": [
        {
          "internalType": "contract IERC20",
          "name": "",
          "type": "address"
        }
      ],
      "stateMutability": "view",
      "type": "function"
    },
    {
      "inputs": [
        {
          "internalType": "address",
          "name": "from",
          "type": "address"
        },
        {
          "internalType": "address",
          "name": "to",
          "type": "address"
        },
        {
          "internalType": "uint256",
          "name": "tokenId",
          "type": "uint256"
        }
      ],
      "name": "safeTransferFrom",
      "outputs": [],
      "stateMutability": "nonpayable",
      "type": "function"
    },
    {
      "inputs": [
        {
          "internalType": "address",
          "name": "from",
          "type": "address"
        },
        {
          "internalType": "address",
          "name": "to",
          "type": "address"
        },
        {
          "internalType": "uint256",
          "name": "tokenId",
          "type": "uint256"
        },
        {
          "internalType": "bytes",
          "name": "data",
          "type": "bytes"
        }
      ],
      "name": "safeTransferFrom",
      "outputs": [],
      "stateMutability": "nonpayable",
      "type": "function"
    },
    {
      "inputs": [
        {
          "internalType": "address",
          "name": "operator",
          "type": "address"
        },
        {
          "internalType": "bool",
          "name": "approved",
          "type": "bool"
        }
      ],
      "name": "setApprovalForAll",
      "outputs": [],
      "stateMutability": "nonpayable",
      "type": "function"
    },
    {
      "inputs": [
        {
          "internalType": "address",
          "name": "router",
          "type": "address"
        },
        {
          "internalType": "address",
          "name": "token",
          "type": "address"
        },
        {
          "internalType": "uint256",
          "name": "fee",
          "type": "uint256"
        }
      ],
      "name": "setRoyaltyConfig",
      "outputs": [],
      "stateMutability": "nonpayable",
      "type": "function"
    },
    {
      "inputs": [
        {
          "internalType": "bytes4",
          "name": "interfaceId",
          "type": "bytes4"
        }
      ],
      "name": "supportsInterface",
      "outputs": [
        {
          "internalType": "bool",
          "name": "",
          "type": "bool"
        }
      ],
      "stateMutability": "view",
      "type": "function"
    },
    {
      "inputs": [],
      "name": "symbol",
      "outputs": [
        {
          "internalType": "string",
          "name": "",
          "type": "string"
        }
      ],
      "stateMutability": "view",
      "type": "function"
    },
    {
      "inputs": [
        {
          "internalType": "uint256",
          "name": "index",
          "type": "uint256"
        }
      ],
      "name": "tokenByIndex",
      "outputs": [
        {
          "internalType": "uint256",
          "name": "",
          "type": "uint256"
        }
      ],
      "stateMutability": "view",
      "type": "function"
    },
    {
      "inputs": [
        {
          "internalType": "address",
          "name": "owner",
          "type": "address"
        },
        {
          "internalType": "uint256",
          "name": "index",
          "type": "uint256"
        }
      ],
      "name": "tokenOfOwnerByIndex",
      "outputs": [
        {
          "internalType": "uint256",
          "name": "",
          "type": "uint256"
        }
      ],
      "stateMutability": "view",
      "type": "function"
    },
    {
      "inputs": [
        {
          "internalType": "uint256",
          "name": "tokenId",
          "type": "uint256"
        }
      ],
      "name": "tokenURI",
      "outputs": [
        {
          "internalType": "string",
          "name": "",
          "type": "string"
        }
      ],
      "stateMutability": "view",
      "type": "function"
    },
    {
      "inputs": [],
      "name": "totalSupply",
      "outputs": [
        {
          "internalType": "uint256",
          "name": "",
          "type": "uint256"
        }
      ],
      "stateMutability": "view",
      "type": "function"
    },
    {
      "inputs": [
        {
          "internalType": "address",
          "name": "from",
          "type": "address"
        },
        {
          "internalType": "address",
          "name": "to",
          "type": "address"
        },
        {
          "internalType": "uint256",
          "name": "tokenId",
          "type": "uint256"
        }
      ],
      "name": "transferFrom",
      "outputs": [],
      "stateMutability": "nonpayable",
      "type": "function"
    },
    {
      "inputs": [
        {
          "internalType": "address",
          "name": "newOwner",
          "type": "address"
        }
      ],
      "name": "transferOwnership",
      "outputs": [],
      "stateMutability": "nonpayable",
      "type": "function"
    },
    {
      "inputs": [
        {
          "internalType": "uint256",
          "name": "tokenId",
          "type": "uint256"
        },
        {
          "internalType": "string",
          "name": "newConfigHash",
          "type": "string"
        }
      ],
      "name": "updateConfig",
      "outputs": [],
      "stateMutability": "nonpayable",
      "type": "function"
    },
    {
      "inputs": [
        {
          "internalType": "uint256",
          "name": "tokenId",
          "type": "uint256"
        },
        {
          "internalType": "string",
          "name": "newMemoryHash",
          "type": "string"
        }
      ],
      "name": "updateMemory",
      "outputs": [],
      "stateMutability": "nonpayable",
      "type": "function"
    }
  ],
  "bytecode": "0x60806040523461037e57604080519081016001600160401b03811182821017610294576040908152601382527f537461626c65526f7461746f72204167656e7400000000000000000000000000602083015280519081016001600160401b0381118282101761029457604052600381526253524160e81b602082015281516001600160401b038111610294575f54600181811c91168015610374575b602082101461027657601f8111610312575b50602092601f82116001146102b357928192935f926102a8575b50508160011b915f199060031b1c1916175f555b80516001600160401b03811161029457600154600181811c9116801561028a575b602082101461027657601f8111610213575b50602091601f82116001146101b3579181925f926101a8575b50508160011b915f199060031b1c1916176001555b331561019557600a8054336001600160a01b03198216811790925560405191906001600160a01b03167f8be0079c531659141344cd1fd0a4f28419497f9722a3daafe3b4186f6b6457e05f80a3612ff890816103838239f35b631e4fbdf760e01b5f525f60045260245ffd5b015190505f80610127565b601f1982169260015f52805f20915f5b8581106101fb575083600195106101e3575b505050811b0160015561013c565b01515f1960f88460031b161c191690555f80806101d5565b919260206001819286850151815501940192016101c3565b60015f527fb10e2d527612073b26eecdfd717e6a320cf44b4afac2b0732d9fcbe2b7fa0cf6601f830160051c8101916020841061026c575b601f0160051c01905b818110610261575061010e565b5f8155600101610254565b909150819061024b565b634e487b7160e01b5f52602260045260245ffd5b90607f16906100fc565b634e487b7160e01b5f52604160045260245ffd5b015190505f806100c7565b601f198216935f8052805f20915f5b8681106102fa57508360019596106102e2575b505050811b015f556100db565b01515f1960f88460031b161c191690555f80806102d5565b919260206001819286850151815501940192016102c2565b5f80527f290decd9548b62a8d60345a988386fc84ba6bc95484008f6362f93160ef3e563601f830160051c8101916020841061036a575b601f0160051c01905b81811061035f57506100ad565b5f8155600101610352565b9091508190610349565b90607f169061009b565b5f80fdfe6080806040526004361015610012575f80fd5b5f905f3560e01c90816301ffc9a7146122705750806306fdde03146121a9578063081812fc1461216d578063095ea7b31461208357806318160ddd1461206657806323b872dd1461204f5780632f745c5914611fdd578063304969cc14611ec957806342842e0e14611e985780634f6ccce714611e4a57806350a42e2e14611763578063513856c81461166757806352383037146116495780636352211e1461161857806370a08231146115ec578063715018a61461158f57806380b6185e14611486578063881d09d414610db55780638da5cb5b14610d8c57806395d89b4114610ca9578063a22cb46514610be8578063a7fa3f141461067e578063b0353cfe14610634578063b88d4fde146105c1578063b96354cf14610598578063c21c3e1a14610435578063c87b56dd146103da578063cbe39c20146103b1578063db7477ff146102f9578063e985e9c5146102a1578063f2fde38b146102185763fb305ae51461017e575f80fd5b34610215577f3ac4bc32465d1e87f862bb690143e4dccce3ba824ce50abd648f1d26e5a157bf61020f6101b036612345565b6101bb939193612e57565b600e80546001600160a01b039485166001600160a01b03199182168117909255600f805496909516951685179093556010819055604080519384526020840194909452928201929092529081906060820190565b0390a180f35b80fd5b503461021557602036600319011261021557610232612319565b61023a612e57565b6001600160a01b0316801561028d57600a80546001600160a01b0319811683179091556001600160a01b03167f8be0079c531659141344cd1fd0a4f28419497f9722a3daafe3b4186f6b6457e05f80a380f35b631e4fbdf760e01b82526004829052602482fd5b50346102155760403660031901126102155760406102bd612319565b916102c661232f565b9260018060a01b031681526005602052209060018060a01b03165f52602052602060ff60405f2054166040519015158152f35b50346102155760603660031901126102155760043561031661232f565b604435801515918282036103ad577f136602f218ae287f0d5b40c7312d717840e8f62069f115a3fd6a00be6de7645a9261039560409361036861035888612adb565b6001600160a01b03163314612aa2565b868852600d60205284882060018060a01b0385165f52602052845f209060ff801983541691151516179055565b82516001600160a01b0390921682526020820152a280f35b5f80fd5b5034610215578060031936011261021557600e546040516001600160a01b039091168152602090f35b5034610215576020366003190112610215576103f7600435612adb565b50806040516104076020826123e7565b525061043160405161041a6020826123e7565b5f81526040519182916020835260208301906122f5565b0390f35b503461021557610444366124d5565b92919061045361035883612adb565b818352600c60205260056040842001936001600160401b038111610584576104858161047f875461237f565b87612953565b8394601f8211600114610500576104d5828087987ff3cb9e4896730a0e19d942b5a7560134bfcc3761db7cb21e08e683fdc6f613f79798916104f5575b508160011b915f199060031b1c19161790565b90555b6104ef604051928392602084526020840191612a82565b0390a280f35b90508501355f6104c2565b8085526020852095601f198316865b81811061056c575090837ff3cb9e4896730a0e19d942b5a7560134bfcc3761db7cb21e08e683fdc6f613f79697989210610553575b5050600182811b0190556104d8565b8401355f19600385901b60f8161c191690555f80610544565b8583013589556001909801976020928301920161050f565b634e487b7160e01b84526041600452602484fd5b5034610215578060031936011261021557600f546040516001600160a01b039091168152602090f35b5034610215576080366003190112610215576105db612319565b6105e361232f565b90604435606435926001600160401b03841161063057366023850112156106305761061b61062d943690602481600401359101612523565b92610627838383612559565b33612e7e565b80f35b8480fd5b503461021557604036600319011261021557604061065061232f565b916004358152600d602052209060018060a01b03165f52602052602060ff60405f2054166040519015158152f35b50346102155760c0366003190112610215576004356001600160401b038111610be4576106af9036906004016124a8565b6024359260443591606435608435801515809103610be05760a4356001600160401b038111610630576106e69036906004016124a8565b9190928815610ba25786151580610b96575b15610b5a576127108110610b1c57600b5496610713886128db565b600b556107208833612b5a565b6040519961072d8b6123b7565b61073836888c612523565b8b5260208b015260408a015260608901526080880152610759368284612523565b60a088015260209560405161076e88826123e7565b85815260c08901528460e08901528461010089015284610120890152846101408901528461016089015242610180890152858552600c87526040852088518051906001600160401b038211610a34576107d1826107cb855461237f565b85612953565b8990601f8311600114610ab5576107ff929189918361099a575b50508160011b915f199060031b1c19161790565b81555b60208901516001820155604089015160028201556060890151600382015561083f60808a01511515600483019060ff801983541691151516179055565b60a08901518051906001600160401b038211610a345761086f82610866600586015461237f565b60058601612953565b8990601f8311600114610a485761089c929189918361099a5750508160011b915f199060031b1c19161790565b60058201555b60c08901519889516001600160401b038111610a345788999a6108d8826108cf6006879d9c9d015461237f565b60068701612953565b8b908a601f84116001146109a55761097994610926855f516020612fa35f395f51905f529c9b99966109869b9996600c96610180969261099a5750508160011b915f199060031b1c19161790565b60068501555b60e0810151600785015561010081015160088501556101208101516009850155610140810151600a850155610160810151600b850155015191015560405195606087526060870191612a82565b918483038a860152612a82565b9360408201528033940390a3604051908152f35b015190505f806107eb565b50600685018b528c8b2091908b8e5b601f1986168210610a1a575050610979946001856109869a9895600c95610180955f516020612fa35f395f51905f529f9e9c99601f19811610610a02575b505050811b01600685015561092c565b01515f1960f88460031b161c191690555f80806109f2565b8383015185558e9c5060019094019392830192018e6109b4565b634e487b7160e01b88526041600452602488fd5b91906005840189528a89209089935b8c601f1985168610610a9c57506001945083601f19811610610a84575b505050811b0160058201556108a2565b01515f1960f88460031b161c191690555f8080610a74565b8282015184559485019460019093019290910190610a57565b91908389528a89209089935b8c601f1985168610610b0357506001945083601f19811610610aeb575b505050811b018155610802565b01515f1960f88460031b161c191690555f8080610ade565b8282015184559485019460019093019290910190610ac1565b60405162461bcd60e51b81526020600482015260166024820152750e6c2cccae8f240daeae6e840c4ca407c7a40625c60f60531b6044820152606490fd5b60405162461bcd60e51b8152602060048201526014602482015273696e76616c696420686f6c64696e67206461797360601b6044820152606490fd5b5061016d8711156106f8565b60405162461bcd60e51b815260206004820152601660248201527564656c7461206d75737420626520706f73697469766560501b6044820152606490fd5b8380fd5b5080fd5b503461021557604036600319011261021557610c02612319565b6024359081151590818303610be0573315610c95576001600160a01b0316918215610c8157610c5290338552600560205260408520845f5260205260405f209060ff801983541691151516179055565b6040519081527f17307eab39ab6107e8899845ad3d59bd9653f200f220920489ca2b5937696c3160203392a380f35b630b61174360e31b84526004839052602484fd5b63a9fbf51f60e01b84526004849052602484fd5b5034610215578060031936011261021557604051908060015490610ccc8261237f565b8085529160018116908115610d655750600114610d08575b61043184610cf4818603826123e7565b6040519182916020835260208301906122f5565b600181527fb10e2d527612073b26eecdfd717e6a320cf44b4afac2b0732d9fcbe2b7fa0cf6939250905b808210610d4b57509091508101602001610cf482610ce4565b919260018160209254838588010152019101909291610d32565b60ff191660208087019190915292151560051b85019092019250610cf49150839050610ce4565b5034610215578060031936011261021557600a546040516001600160a01b039091168152602090f35b5034610215576020366003190112610215576004355f908152600260205260409020546001600160a01b031615611450576004358152600c60205260408120600e546001600160a01b0316151580611445575b61124b575b600b5490610e1a826128db565b600b55610e278233612b5a565b60405192610e58600585610e3e60208201866128e9565b642d666f726b60d81b815203601a198101875201856123e7565b6001820154600283015460038401549060ff6004860154169260405197610e7e896123b7565b885260208801526040870152606086015215156080850152610ea260058301612408565b60a0850152604051602094610eb786836123e7565b82825260c081019182528260e082015282610100820152826101208201526004356101408201528261016082015242610180820152848352600c8652604083209181518051906001600160401b0382116111d057610f198261047f875461237f565b8890601f83116001146111e457610f46929187918361099a5750508160011b915f199060031b1c19161790565b83555b602082015160018401556040820151600284015560608201516003840155610f8660808301511515600485019060ff801983541691151516179055565b60a08201518051906001600160401b0382116111d057610fb682610fad600588015461237f565b60058801612953565b8890601f831160011461116357610fe3929187918361099a5750508160011b915f199060031b1c19161790565b60058401555b518051906001600160401b03821161114f5790839291611012826108cf60068b9998015461237f565b8890601f83116001146110c65761018060409461105b8589966110bb9996600c965f516020612fa35f395f51905f529c9261099a5750508160011b915f199060031b1c19161790565b60068501555b60e0810151600785015561010081015160088501556101208101516009850155610140810151600a850155610160810151600b8501550151910155848152600c885220936040519182913396600560043592019084612a23565b0390a3604051908152f35b9060068501865289862091865b8b601f19861682106111365750506040946001856110bb9895600c95610180955f516020612fa35f395f51905f529c99601f1981161061111e575b505050811b016006850155611061565b01515f1960f88460031b161c191690555f808061110e565b8383015185558b995060019094019392830192016110d3565b634e487b7160e01b85526041600452602485fd5b91906005860187528987209087935b8b601f19851686106111b757506001945083601f1981161061119f575b505050811b016005840155610fe9565b01515f1960f88460031b161c191690555f808061118f565b8282015184559485019460019093019290910190611172565b634e487b7160e01b86526041600452602486fd5b91908587528987209087935b8b601f198516861061123257506001945083601f1981161061121a575b505050811b018355610f49565b01515f1960f88460031b161c191690555f808061120d565b82820151845594850194600190930192909101906111f0565b600f546010546040516323b872dd60e01b81523360048201523060248201526044810191909152906020908290606490829087906001600160a01b03165af19081156113d6578391611426575b50156113e157600f54600e5460105460405163095ea7b360e01b81526001600160a01b039283166004820152602481019190915291602091839160449183918891165af180156113d6576112f39184916113a7575b5061289a565b600e5460105483916001600160a01b031690813b156113a3578291604483926040519485938492632257c3fb60e11b8452600435600485015260248401525af1801561139857611383575b5050600b5460105460408051338152602081019290925260043592917fbcd1d4af7e4c571a4d8268d7e23682d7d43f965de90ff3ce10d0e99adfc6c48b9190a3610e0d565b8161138d916123e7565b610be457815f61133e565b6040513d84823e3d90fd5b8280fd5b6113c9915060203d6020116113cf575b6113c181836123e7565b810190612882565b5f6112ed565b503d6113b7565b6040513d85823e3d90fd5b60405162461bcd60e51b815260206004820152601d60248201527f636c6f6e6520666565207472616e7366657246726f6d206661696c65640000006044820152606490fd5b61143f915060203d6020116113cf576113c181836123e7565b5f611298565b506010541515610e08565b60405162461bcd60e51b815260206004820152600e60248201526d736f75726365206d697373696e6760901b6044820152606490fd5b503461021557611495366124d5565b9291906114aa6114a53384612b0f565b61280c565b818352600c60205260066040842001936001600160401b038111610584576114d68161047f875461237f565b8394601f8211600114611525576104d5828087987f4edff0078f9c3828d1c82175891b64029ec7dc2bac5ecb6577c95c1b6435e4b89798916104f557508160011b915f199060031b1c19161790565b8085526020852095601f198316865b818110611577575090837f4edff0078f9c3828d1c82175891b64029ec7dc2bac5ecb6577c95c1b6435e4b89697989210610553575050600182811b0190556104d8565b85830135895560019098019760209283019201611534565b50346102155780600319360112610215576115a8612e57565b600a80546001600160a01b0319811690915581906001600160a01b03167f8be0079c531659141344cd1fd0a4f28419497f9722a3daafe3b4186f6b6457e08280a380f35b503461021557602036600319011261021557602061161061160b612319565b612a51565b604051908152f35b5034610215576020366003190112610215576020611637600435612adb565b6040516001600160a01b039091168152f35b50346102155780600319360112610215576020601054604051908152f35b5034610215576020366003190112610215576004358152600c6020526040902061169081612408565b600182015490600283015492600381015490600481015460ff16600582016116b790612408565b936116c460068401612408565b94600784015495600885015491600986015493600a87015495600b88015497600c0154986040519c8d9c8d946101a086526101a08601611703916122f5565b946020015260408d015260608c0152151560808b015289810360a08b015261172a916122f5565b88810360c08a015261173b916122f5565b9560e08801526101008701526101208601526101408501526101608401526101808301520390f35b50346103ad5760403660031901126103ad576004355f908152600260205260409020546001600160a01b0316151580611e28575b15611df25760243560043514611dc057600e546001600160a01b0316151580611db5575b611c01575b6004358152600c60205260408120906024358152600c6020526040812091600b54916117eb836128db565b600b556117f88333612b5a565b6040519361182e85611820600161181260208401886128e9565b602b60f81b815201846128e9565b03601f1981018752866123e7565b6118416001840154600183015490612849565b60011c6118576002850154600284015490612849565b60011c61186d6003860154600385015490612849565b60011c9160ff600487015416938415611bf2575b506040519761188f896123b7565b8852602088015260408701526060860152151560808501526118b360058301612408565b60a08501526020936040516118c886826123e7565b82815260c08201528160e0820152816101008201528161012082015260043561014082015260243561016082015242610180820152838252600c8552604082209080518051906001600160401b03821161114f576119308261192a865461237f565b86612953565b8790601f8311600114611b8b5761195d929186918361099a5750508160011b915f199060031b1c19161790565b82555b60208101516001830155604081015160028301556060810151600383015561199d60808201511515600484019060ff801983541691151516179055565b60a08101518051906001600160401b03821161114f576119cd826119c4600587015461237f565b60058701612953565b8790601f8311600114611b23576119fa929186918361099a5750508160011b915f199060031b1c19161790565b60058301555b60c08101518051906001600160401b03821161114f5790839291611a2d826108cf60068b9998015461237f565b8890601f8311600114611ab35761018060409461105b858996611a769996600c965f516020612fa35f395f51905f529c9261099a5750508160011b915f199060031b1c19161790565b0390a360405133815260243590827fc21894ca054bdb6b6f667367c0787c77acfcce5cd16fb6c4920e74d5a5c7fdd48560043593a4604051908152f35b9060068501865289862091865b8b601f1986168210611b0a575050604094600185611a769895600c95610180955f516020612fa35f395f51905f529c99601f1981161061111e57505050811b016006850155611061565b8383015185558b99506001909401939283019201611ac0565b6005850186528886209190601f198416875b8b828210611b75575050908460019594939210611b5d575b505050811b016005830155611a00565b01515f1960f88460031b161c191690555f8080611b4d565b6001859682939686015181550195019301611b35565b91908486528886209086935b8a601f1985168610611bd957506001945083601f19811610611bc1575b505050811b018255611960565b01515f1960f88460031b161c191690555f8080611bb4565b8282015184559485019460019093019290910190611b97565b6004015460ff1693505f611881565b600f546010546040516323b872dd60e01b8152336004820152306024820152604481019190915290602090829060649082905f906001600160a01b03165af1908115611d46575f91611d96575b5015611d5157600f54600e5460105460405163095ea7b360e01b81526001600160a01b039283166004820152602481019190915291602091839160449183915f91165af18015611d4657611ca8915f916113a7575061289a565b60018060a01b03600e5416601054813b156103ad575f91604483926040519485938492632257c3fb60e11b8452600435600485015260248401525af18015611d4657611d33575b50600b5460105460408051338152602081019290925260043592917fbcd1d4af7e4c571a4d8268d7e23682d7d43f965de90ff3ce10d0e99adfc6c48b9190a36117c0565b611d3f91505f906123e7565b5f5f611cef565b6040513d5f823e3d90fd5b60405162461bcd60e51b815260206004820152601d60248201527f6d6572676520666565207472616e7366657246726f6d206661696c65640000006044820152606490fd5b611daf915060203d6020116113cf576113c181836123e7565b5f611c4e565b5060105415156117bb565b60405162461bcd60e51b815260206004820152600a60248201526973656c662d6d6572676560b01b6044820152606490fd5b60405162461bcd60e51b815260206004820152600e60248201526d706172656e74206d697373696e6760901b6044820152606490fd5b506024355f908152600260205260409020546001600160a01b03161515611797565b346103ad5760203660031901126103ad57600435600854811015611e8257611e73602091612856565b90549060031b1c604051908152f35b63295f44f760e21b5f525f60045260245260445ffd5b346103ad57611ec7611ea936612345565b9060405192611eb96020856123e7565b5f8452610627838383612559565b005b346103ad5760403660031901126103ad5760043560243560ff81168091036103ad57611ef86114a53384612b0f565b815f52600c60205260405f206007810191825460018101809111611f7b57835560018103611f8f5750600881019081549260018401809411611f7b577f638d3fd664542ed46076162565daceba926b7e81dff1a8ee8ebca807c23b101693606093555b5490600960088201549101549060405192835260208301526040820152a2005b634e487b7160e01b5f52601160045260245ffd5b600214611fc1575b6060907f638d3fd664542ed46076162565daceba926b7e81dff1a8ee8ebca807c23b101692611f5b565b600981019081549260018401809411611f7b5792909155611f97565b346103ad5760403660031901126103ad57611ff6612319565b6024359061200381612a51565b8210156120325760018060a01b03165f52600660205260405f20905f52602052602060405f2054604051908152f35b63295f44f760e21b5f5260018060a01b031660045260245260445ffd5b346103ad57611ec761206036612345565b91612559565b346103ad575f3660031901126103ad576020600854604051908152f35b346103ad5760403660031901126103ad5761209c612319565b6024356120a881612adb565b3315158061215a575b8061212d575b61211a5781906001600160a01b0384811691167f8c5be1e5ebec7d5bd14f71427d1e84f3dd0314c0f7b2291e5b200ac8c7c3b9255f80a45f90815260046020526040902080546001600160a01b0319166001600160a01b03909216919091179055005b63a9fbf51f60e01b5f523360045260245ffd5b506001600160a01b0381165f90815260056020908152604080832033845290915290205460ff16156120b7565b506001600160a01b0381163314156120b1565b346103ad5760203660031901126103ad5760043561218a81612adb565b505f526004602052602060018060a01b0360405f205416604051908152f35b346103ad575f3660031901126103ad576040515f5f546121c88161237f565b808452906001811690811561224c57506001146121f0575b61043183610cf4818503826123e7565b5f8080527f290decd9548b62a8d60345a988386fc84ba6bc95484008f6362f93160ef3e563939250905b80821061223257509091508101602001610cf46121e0565b91926001816020925483858801015201910190929161221a565b60ff191660208086019190915291151560051b84019091019150610cf490506121e0565b346103ad5760203660031901126103ad576004359063ffffffff60e01b82168092036103ad5760209163780e9d6360e01b81149081156122b2575b5015158152f35b6380ac58cd60e01b8114915081156122e4575b81156122d3575b50836122ab565b6301ffc9a760e01b149050836122cc565b635b5e139f60e01b811491506122c5565b805180835260209291819084018484015e5f828201840152601f01601f1916010190565b600435906001600160a01b03821682036103ad57565b602435906001600160a01b03821682036103ad57565b60609060031901126103ad576004356001600160a01b03811681036103ad57906024356001600160a01b03811681036103ad579060443590565b90600182811c921680156123ad575b602083101461239957565b634e487b7160e01b5f52602260045260245ffd5b91607f169161238e565b6101a081019081106001600160401b038211176123d357604052565b634e487b7160e01b5f52604160045260245ffd5b90601f801991011681019081106001600160401b038211176123d357604052565b9060405191825f82549261241b8461237f565b80845293600181169081156124865750600114612442575b50612440925003836123e7565b565b90505f9291925260205f20905f915b81831061246a575050906020612440928201015f612433565b6020919350806001915483858901015201910190918492612451565b90506020925061244094915060ff191682840152151560051b8201015f612433565b9181601f840112156103ad578235916001600160401b0383116103ad57602083818601950101116103ad57565b9060406003198301126103ad5760043591602435906001600160401b0382116103ad57612504916004016124a8565b9091565b6001600160401b0381116123d357601f01601f191660200190565b92919261252f82612508565b9161253d60405193846123e7565b8294818452818301116103ad578281602093845f960137010152565b9091906001600160a01b03831680156127f9575f838152600260205260409020546001600160a01b03169333151580612769575b5084158015612736575b825f52600360205260405f2060018154019055845f52600260205260405f20836bffffffffffffffffffffffff60a01b8254161790558483877fddf252ad1be2c89b69c2b068fc378daa952ba7f163c4a11628f55a4df523b3ef5f80a4156126b957600854845f5260096020528060405f2055600160401b8110156123d3578461262a8260016126429401600855612856565b90919082549060031b91821b915f19901b1916179055565b818503612679575b50506001600160a01b031680830361266157505050565b6364283d7b60e01b5f5260045260245260445260645ffd5b61268290612a51565b5f19810191908211611f7b575f52600660205260405f20815f526020528260405f2055825f52600760205260405f20555f8061264a565b848214612642576126c985612a51565b845f52600760205260405f205490865f52600660205260405f209181810361270b575b50855f5260076020525f60408120555f526020525f6040812055612642565b815f528260205260405f2054815f52836020528060405f20555f52600760205260405f20555f6126ec565b5f85815260046020526040902080546001600160a01b0319169055855f52600360205260405f205f198154019055612597565b806127a8575b1561277a575f61258d565b838561279257637e27328960e01b5f5260045260245ffd5b63177e802f60e01b5f523360045260245260445ffd5b5033851480156127d7575b8061276f57505f848152600460205260409020546001600160a01b0316331461276f565b505f85815260056020908152604080832033845290915290205460ff166127b3565b633250574960e11b5f525f60045260245ffd5b1561281357565b60405162461bcd60e51b815260206004820152600e60248201526d1b9bdd08185d5d1a1bdc9a5e995960921b6044820152606490fd5b91908201809211611f7b57565b60085481101561286e5760085f5260205f2001905f90565b634e487b7160e01b5f52603260045260245ffd5b908160209103126103ad575180151581036103ad5790565b156128a157565b60405162461bcd60e51b815260206004820152601260248201527119995948185c1c1c9bdd994819985a5b195960721b6044820152606490fd5b5f198114611f7b5760010190565b5f92918154916128f88361237f565b9260018116908115612940575060011461291157505050565b90919293505f5260205f205f905b83821061292c5750500190565b60018160209254848601520191019061291f565b60ff191683525050811515909102019150565b601f821161296057505050565b5f5260205f20906020601f840160051c83019310612998575b601f0160051c01905b81811061298d575050565b5f8155600101612982565b9091508190612979565b5f92918154916129b18361237f565b8083529260018116908115612a0657506001146129cd57505050565b5f9081526020812093945091925b8383106129ec575060209250010190565b6001816020929493945483858701015201910191906129db565b915050602093945060ff929192191683830152151560051b010190565b939291612a4c90612a3e6040936060885260608801906129a2565b9086820360208801526129a2565b930152565b6001600160a01b03168015612a6f575f52600360205260405f205490565b6322718ad960e21b5f525f60045260245ffd5b908060209392818452848401375f828201840152601f01601f1916010190565b15612aa957565b60405162461bcd60e51b815260206004820152600a6024820152696f776e6572206f6e6c7960b01b6044820152606490fd5b5f818152600260205260409020546001600160a01b0316908115612afd575090565b637e27328960e01b5f5260045260245ffd5b90612b1982612adb565b6001600160a01b03828116911614918215612b3357505090565b9091505f52600d60205260405f209060018060a01b03165f5260205260ff60405f20541690565b9060209060405190612b6c83836123e7565b5f82526001600160a01b0384169384156127f9575f8281526002855260409020546001600160a01b031680158015919082612e26575b875f526003875260405f2060018154019055845f526002875260405f20886bffffffffffffffffffffffff60a01b8254161790558488837fddf252ad1be2c89b69c2b068fc378daa952ba7f163c4a11628f55a4df523b3ef5f80a415612db057600854845f52600987528060405f2055600160401b8110156123d3578461262a826001612c329401600855612856565b868103612d75575b50612d62573b612c4b575b50505050565b91612c8891819495936040519384928392630a85bd0160e11b84523360048501525f602485015260448401526080606484015260848301906122f5565b03815f885af15f9181612d22575b50612ceb5750503d15612ce3573d90612cae82612508565b91612cbc60405193846123e7565b82523d5f8284013e5b81519182612ce05783633250574960e11b5f5260045260245ffd5b01fd5b606090612cc5565b909291506001600160e01b03191663757a42ff60e11b01612d1057505f808080612c45565b633250574960e11b5f5260045260245ffd5b9091508381813d8311612d5b575b612d3a81836123e7565b810103126103ad57516001600160e01b0319811681036103ad57905f612c96565b503d612d30565b6339e3563760e11b5f525f60045260245ffd5b612d7e83612a51565b5f198101908111611f7b57875f526006875260405f20815f5287528460405f2055845f526007875260405f2055612c3a565b808714612c3257612dc081612a51565b845f526007875260405f205490825f526006885260405f2091818103612dfe575b50855f52600788525f60408120555f5286525f6040812055612c32565b815f5282895260405f2054815f52838a528060405f20555f526007895260405f20555f612de1565b5f8581526004602052604080822080546001600160a01b031916905583825260038952902080545f19019055612ba2565b600a546001600160a01b03163303612e6b57565b63118cdaa760e01b5f523360045260245ffd5b823b612e8c575b5050505050565b604051630a85bd0160e11b81526001600160a01b039182166004820152918116602483015260448201939093526080606482015291169160209082908190612ed89060848301906122f5565b03815f865af15f9181612f5d575b50612f3b57503d15612f34573d612efc81612508565b90612f0a60405192836123e7565b81523d5f602083013e5b80519081612f2f5782633250574960e11b5f5260045260245ffd5b602001fd5b6060612f14565b6001600160e01b03191663757a42ff60e11b01612d1057505f80808080612e85565b9091506020813d602011612f9a575b81612f79602093836123e7565b810103126103ad57516001600160e01b0319811681036103ad57905f612ee6565b3d9150612f6c56fed4b61c3a4ccd88edcd0625cf5ceda3452d33ebf07a06a80254536b0976e37667a2646970667358221220d1e2b2c40a97767d284474e7893ea6a9ca64229d1f79cfdbfc357fafd2b23d7464736f6c634300081b0033",
  "linkReferences": {},
  "deployedLinkReferences": {}
}