{
  "_format": "hh-sol-artifact-1",
  "contractName": "RoyaltyRouter",
  "sourceName": "contracts/RoyaltyRouter.sol",
  "abi": [
    {
      "inputs": [
        {
          "internalType": "address",
          "name": "usdc_",
          "type": "address"
        },
        {
          "internalType": "address",
          "name": "agentContract_",
          "type": "address"
        }
      ],
      "stateMutability": "nonpayable",
      "type": "constructor"
    },
    {
      "inputs": [
        {
          "internalType": "address",
          "name": "owner",
          "type": "address"
        }
      ],
      "name": "OwnableInvalidOwner",
      "type": "error"
    },
    {
      "inputs": [
        {
          "internalType": "address",
          "name": "account",
          "type": "address"
        }
      ],
      "name": "OwnableUnauthorizedAccount",
      "type": "error"
    },
    {
      "inputs": [],
      "name": "ReentrancyGuardReentrantCall",
      "type": "error"
    },
    {
      "anonymous": false,
      "inputs": [
        {
          "indexed": true,
          "internalType": "uint256",
          "name": "tokenId",
          "type": "uint256"
        },
        {
          "indexed": true,
          "internalType": "uint256",
          "name": "ancestorTokenId",
          "type": "uint256"
        },
        {
          "indexed": false,
          "internalType": "address",
          "name": "ancestor",
          "type": "address"
        },
        {
          "indexed": false,
          "internalType": "uint256",
          "name": "amount",
          "type": "uint256"
        }
      ],
      "name": "LineagePaid",
      "type": "event"
    },
    {
      "anonymous": false,
      "inputs": [
        {
          "indexed": true,
          "internalType": "address",
          "name": "previousOwner",
          "type": "address"
        },
        {
          "indexed": true,
          "internalType": "address",
          "name": "newOwner",
          "type": "address"
        }
      ],
      "name": "OwnershipTransferred",
      "type": "event"
    },
    {
      "anonymous": false,
      "inputs": [
        {
          "indexed": true,
          "internalType": "uint256",
          "name": "tokenId",
          "type": "uint256"
        },
        {
          "indexed": true,
          "internalType": "address",
          "name": "payer",
          "type": "address"
        },
        {
          "indexed": false,
          "internalType": "uint256",
          "name": "totalAmount",
          "type": "uint256"
        },
        {
          "indexed": false,
          "internalType": "uint256",
          "name": "ownerShare",
          "type": "uint256"
        },
        {
          "indexed": false,
          "internalType": "uint256",
          "name": "lineageShare",
          "type": "uint256"
        },
        {
          "indexed": false,
          "internalType": "uint256",
          "name": "treasuryShare",
          "type": "uint256"
        }
      ],
      "name": "Routed",
      "type": "event"
    },
    {
      "anonymous": false,
      "inputs": [
        {
          "indexed": false,
          "internalType": "uint256",
          "name": "ownerBps",
          "type": "uint256"
        },
        {
          "indexed": false,
          "internalType": "uint256",
          "name": "lineageBps",
          "type": "uint256"
        },
        {
          "indexed": false,
          "internalType": "uint256",
          "name": "treasuryBps",
          "type": "uint256"
        }
      ],
      "name": "SplitsUpdated",
      "type": "event"
    },
    {
      "inputs": [],
      "name": "MAX_LINEAGE_HOPS",
      "outputs": [
        {
          "internalType": "uint256",
          "name": "",
          "type": "uint256"
        }
      ],
      "stateMutability": "view",
      "type": "function"
    },
    {
      "inputs": [],
      "name": "agentContract",
      "outputs": [
        {
          "internalType": "contract IStableRotatorAgent",
          "name": "",
          "type": "address"
        }
      ],
      "stateMutability": "view",
      "type": "function"
    },
    {
      "inputs": [
        {
          "internalType": "uint256",
          "name": "tokenId",
          "type": "uint256"
        }
      ],
      "name": "getLineage",
      "outputs": [
        {
          "internalType": "uint256[]",
          "name": "",
          "type": "uint256[]"
        }
      ],
      "stateMutability": "view",
      "type": "function"
    },
    {
      "inputs": [],
      "name": "lineageBps",
      "outputs": [
        {
          "internalType": "uint256",
          "name": "",
          "type": "uint256"
        }
      ],
      "stateMutability": "view",
      "type": "function"
    },
    {
      "inputs": [],
      "name": "owner",
      "outputs": [
        {
          "internalType": "address",
          "name": "",
          "type": "address"
        }
      ],
      "stateMutability": "view",
      "type": "function"
    },
    {
      "inputs": [],
      "name": "ownerBps",
      "outputs": [
        {
          "internalType": "uint256",
          "name": "",
          "type": "uint256"
        }
      ],
      "stateMutability": "view",
      "type": "function"
    },
    {
      "inputs": [
        {
          "internalType": "uint256",
          "name": "tokenId",
          "type": "uint256"
        }
      ],
      "name": "pull",
      "outputs": [],
      "stateMutability": "nonpayable",
      "type": "function"
    },
    {
      "inputs": [],
      "name": "renounceOwnership",
      "outputs": [],
      "stateMutability": "nonpayable",
      "type": "function"
    },
    {
      "inputs": [
        {
          "internalType": "uint256",
          "name": "tokenId",
          "type": "uint256"
        },
        {
          "internalType": "uint256",
          "name": "amount",
          "type": "uint256"
        }
      ],
      "name": "route",
      "outputs": [],
      "stateMutability": "nonpayable",
      "type": "function"
    },
    {
      "inputs": [
        {
          "internalType": "uint256",
          "name": "ownerBps_",
          "type": "uint256"
        },
        {
          "internalType": "uint256",
          "name": "lineageBps_",
          "type": "uint256"
        },
        {
          "internalType": "uint256",
          "name": "treasuryBps_",
          "type": "uint256"
        }
      ],
      "name": "setSplits",
      "outputs": [],
      "stateMutability": "nonpayable",
      "type": "function"
    },
    {
      "inputs": [
        {
          "internalType": "address",
          "name": "newOwner",
          "type": "address"
        }
      ],
      "name": "transferOwnership",
      "outputs": [],
      "stateMutability": "nonpayable",
      "type": "function"
    },
    {
      "inputs": [],
      "name": "treasuryBps",
      "outputs": [
        {
          "internalType": "uint256",
          "name": "",
          "type": "uint256"
        }
      ],
      "stateMutability": "view",
      "type": "function"
    },
    {
      "inputs": [],
      "name": "usdc",
      "outputs": [
        {
          "internalType": "contract IERC20",
          "name": "",
          "type": "address"
        }
      ],
      "stateMutability": "view",
      "type": "function"
    }
  ],
  "bytecode": "0x60c03461014b57601f6110b238819003918201601f19168301916001600160401b0383118484101761014f57808492604094855283398101031261014b57610052602061004b83610163565b9201610163565b3315610138575f8054336001600160a01b0319821681178355604051949290916001600160a01b0316907f8be0079c531659141344cd1fd0a4f28419497f9722a3daafe3b4186f6b6457e09080a360017f9b779b17422d0df92223018b32b4d1fa46e071723d6817e2486d003becc55f00819055611f4090556105dc6002556101f46003556001600160a01b039081166080521660a052610f3a908161017882396080518181816103a9015281816104d5015281816105e40152818161087d01528181610a170152610bc4015260a051818181610168015281816107a20152610d310152f35b631e4fbdf760e01b5f525f60045260245ffd5b5f80fd5b634e487b7160e01b5f52604160045260245ffd5b51906001600160a01b038216820361014b5756fe6080806040526004361015610012575f80fd5b5f3560e01c908163356dc94f14610613575080633e413bee146105cf57806344af87f61461048a5780634d0392a8146103755780634dc10ea11461035857806354b9c3431461033b57806357c6cc39146102db578063700cd48e14610215578063715018a6146101be5780638da5cb5b146101975780639e5182ab14610153578063a2fbd7df146101385763f2fde38b146100ab575f80fd5b34610134576020366003190112610134576004356001600160a01b03811690819003610134576100d9610ede565b8015610121575f80546001600160a01b03198116831782556001600160a01b0316907f8be0079c531659141344cd1fd0a4f28419497f9722a3daafe3b4186f6b6457e09080a3005b631e4fbdf760e01b5f525f60045260245ffd5b5f80fd5b34610134575f36600319011261013457602060405160088152f35b34610134575f366003190112610134576040517f00000000000000000000000000000000000000000000000000000000000000006001600160a01b03168152602090f35b34610134575f366003190112610134575f546040516001600160a01b039091168152602090f35b34610134575f366003190112610134576101d6610ede565b5f80546001600160a01b0319811682556001600160a01b03167f8be0079c531659141344cd1fd0a4f28419497f9722a3daafe3b4186f6b6457e08280a3005b3461013457606036600319011261013457604435602435600435610237610ede565b61271061024d846102488585610670565b610670565b03610296577ffdb98b6e295610bf2419ce2012cacd127f8547e833929f29cc19e3d52aa9b62b9260609282600155806002558160035560405192835260208301526040820152a1005b60405162461bcd60e51b815260206004820152601860248201527f73706c697473206d7573742073756d20746f20313030303000000000000000006044820152606490fd5b34610134576020366003190112610134576102f7600435610d0d565b6040518091602082016020835281518091526020604084019201905f5b818110610322575050500390f35b8251845285945060209384019390920191600101610314565b34610134575f366003190112610134576020600154604051908152f35b34610134575f366003190112610134576020600354604051908152f35b346101345760203660031901126101345761038e610691565b6040516370a0823160e01b81523060048201526020816024817f00000000000000000000000000000000000000000000000000000000000000006001600160a01b03165afa90811561047f575f9161044d575b50801561041b576103f59033600435610756565b60017f9b779b17422d0df92223018b32b4d1fa46e071723d6817e2486d003becc55f0055005b60405162461bcd60e51b815260206004820152600a6024820152696e6f2062616c616e636560b01b6044820152606490fd5b90506020813d602011610477575b816104686020938361062d565b810103126101345751816103e1565b3d915061045b565b6040513d5f823e3d90fd5b34610134576040366003190112610134576024356104a6610691565b801561059f576040516323b872dd60e01b8152336004820152306024820152604481018290526020816064815f7f00000000000000000000000000000000000000000000000000000000000000006001600160a01b03165af190811561047f575f91610565575b5015610520576103f59033600435610756565b60405162461bcd60e51b815260206004820152601860248201527f55534443207472616e7366657246726f6d206661696c656400000000000000006044820152606490fd5b90506020813d602011610597575b816105806020938361062d565b810103126101345761059190610663565b8261050d565b3d9150610573565b60405162461bcd60e51b81526020600482015260086024820152670616d6f756e743d360c41b6044820152606490fd5b34610134575f366003190112610134576040517f00000000000000000000000000000000000000000000000000000000000000006001600160a01b03168152602090f35b34610134575f366003190112610134576020906002548152f35b90601f8019910116810190811067ffffffffffffffff82111761064f57604052565b634e487b7160e01b5f52604160045260245ffd5b5190811515820361013457565b9190820180921161067d57565b634e487b7160e01b5f52601160045260245ffd5b60027f9b779b17422d0df92223018b32b4d1fa46e071723d6817e2486d003becc55f0054146106e05760027f9b779b17422d0df92223018b32b4d1fa46e071723d6817e2486d003becc55f0055565b633ee5aeb560e01b5f5260045ffd5b8181029291811591840414171561067d57565b9190820391821161067d57565b9081602091031261013457516001600160a01b03811681036101345790565b80518210156107425760209160051b010190565b634e487b7160e01b5f52603260045260245ffd5b90612710610766600154856106ef565b0490612710610777600254866106ef565b049161078c836107878388610702565b610702565b6040516331a9108f60e11b8152600481018690527f00000000000000000000000000000000000000000000000000000000000000006001600160a01b03169490602081602481895afa801561047f5784915f91610c80575b5081610b92575b50505f9481610941575b50509081610846575b907f870b74a6310f222ecda48c1254ef119ab33c23bb5073dc424809694df130a88e936080939260405197885260208801526040870152606086015260018060a01b031693a3565b5f5460405163a9059cbb60e01b81526001600160a01b0390911660048201526024810183905290929190602081806044810103815f7f00000000000000000000000000000000000000000000000000000000000000006001600160a01b03165af190811561047f575f91610907575b50156108c25790916107fe565b60405162461bcd60e51b815260206004820152601860248201527f7472656173757279207472616e73666572206661696c656400000000000000006044820152606490fd5b90506020813d602011610939575b816109226020938361062d565b810103126101345761093390610663565b5f6108b5565b3d9150610915565b61094a87610d0d565b90815180158015610975575b50505050906109688561096e93610702565b90610670565b5f806107f5565b5f9b94959a939b999897929950610b7e5784999404945f94861515955b8c51811015610b61578a60206109a98f849061072e565b516024604051809481936331a9108f60e11b835260048301525afa90811561047f5788905f92610b31575b506109e3575b50600101610992565b60405163a9059cbb60e01b81526001600160a01b0382166004820152602481018a905290999190602081806044810103815f7f00000000000000000000000000000000000000000000000000000000000000006001600160a01b03165af190811561047f575f91610af8575b5015610ab3578d998b7f55c8a86ce0e14101b942bbe36b220a2a1798b3a17b3cc1214b457b5d5d50efcf8b610a9085610a8a83600199610670565b9f61072e565b51604080516001600160a01b03969096168652602086019290925293a3906109da565b60405162461bcd60e51b815260206004820152601760248201527f6c696e65616765207472616e73666572206661696c65640000000000000000006044820152606490fd5b90506020813d8211610b29575b81610b126020938361062d565b8101031261013457610b2390610663565b5f610a4f565b3d9150610b05565b610b5391925060203d8111610b5a575b610b4b818361062d565b81019061070f565b905f6109d4565b503d610b41565b50939a509450948096975061096e9350610968919892935f610956565b634e487b7160e01b5f52601260045260245ffd5b60405163a9059cbb60e01b81526001600160a01b0390911660048201526024810191909152602081806044810103815f7f00000000000000000000000000000000000000000000000000000000000000006001600160a01b03165af190811561047f575f91610c46575b5015610c0957825f6107eb565b60405162461bcd60e51b81526020600482015260156024820152741bdddb995c881d1c985b9cd9995c8819985a5b1959605a1b6044820152606490fd5b90506020813d602011610c78575b81610c616020938361062d565b8101031261013457610c7290610663565b5f610bfc565b3d9150610c54565b610c99915060203d602011610b5a57610b4b818361062d565b5f6107e4565b67ffffffffffffffff811161064f5760051b60200190565b81601f820112156101345780519067ffffffffffffffff821161064f5760405192610cec601f8401601f19166020018561062d565b8284526020838301011161013457815f9260208093018386015e8301015290565b6040519190610120610d1f818561062d565b60088452601f19013660208501375f907f00000000000000000000000000000000000000000000000000000000000000006001600160a01b031690825b60088110610dc4575b505050610d7181610c9f565b90610d7f604051928361062d565b808252601f19610d8e82610c9f565b013660208401375f5b818110610da5575090925050565b80610db26001928761072e565b51610dbd828661072e565b5201610d97565b604051630a270ad960e31b815260048101839052935f85602481875afa94851561047f575f95610e45575b508415928380610e3d575b610e35578514610e2e5784610e0f828961072e565b525f19811461067d576001019391610e2957600101610d5c565b610d65565b9350610d65565b509350610d65565b508015610dfa565b9094503d805f833e610e57818361062d565b8101906101808183031261013457805167ffffffffffffffff81116101345782610e82918301610cb7565b50610e8f60808201610663565b5060a081015167ffffffffffffffff81116101345782610eb0918301610cb7565b5060c081015167ffffffffffffffff81116101345761014092610ed4918301610cb7565b500151935f610def565b5f546001600160a01b03163303610ef157565b63118cdaa760e01b5f523360045260245ffdfea2646970667358221220d64af2320d455b6db8aca7387068cb90380d08637c33ab0b54fcc40bf26c461864736f6c634300081b0033",
  "linkReferences": {},
  "deployedLinkReferences": {}
}